:020000041000EA
:10000000002000081B0100100D0000007D01001001
:1000100000000000000000000000000000000000E0
:100020000000000000000000000000007901001046
:1000300000000000000000007901001079010010AC
:100040007901001079010010790100107901001088
:100050007901001079010010790100107901001078
:100060007901001079010010790100107901001068
:100070007901001079010010790100107901001058
:100080000448054B10B5834203D0044B002B00D02D
:10009000984710BD780300087803000800000000AE
:1000A00006480749091A8B10C90FC91810B549101D
:1000B00003D0044B002B00D0984710BD78030008F4
:1000C000780300080000000010B5074C2378002BCF
:1000D00009D1FFF7D5FF054B002B02D0044800E003
:1000E00000BF0123237010BDB00300080000000012
:1000F00094150010054B10B5002B03D0044905489A
:1001000000E000BFFFF7CCFF10BDC04600000000BC
:10011000B4030008941500107047FFF7FDFF72B696
:100120000F4C104DAC4209DA21686268A368043BA9
:1001300002DBC858D050FAE70C34F3E70A490B4AFF
:100140000020521A02DD043A8850FCDC08480949B4
:100150000860BFF34F8F00F06FF800F01DF8FEE766
:10016000A0150010B8150010B0030008C80500085D
:100170000000000808ED00E0FEE7FEE700B50420FF
:100180007146084202D0EFF3098002E0EFF30880E5
:10019000043000F0BBFDFEE710B562B6034800F086
:1001A000C3F8002000F0BAFEFBE7C04600200010B4
:1001B00010B5002000F090FA10BD704770B5002017
:1001C00000F0EEFC041E28D0144B186000F064FB15
:1001D000411C200000F080FF114B0400186000F06B
:1001E0004DFB411C200000F077FF04000D4B013C4B
:1001F00018600D49200000F06FFFFA210B4D01300F
:1002000028708900200000F067FF094D0130286048
:10021000002000F0C5FC074B186070BD8800000886
:100220008C0000088000000840420F009400000885
:10023000900000088400000810B5204800F0ACF8D9
:10024000B022E02130201E4CD200A35889005B0070
:100250005B08A35063588343635080235B04A3501F
:10026000184B194AE250A02204339201E250FF22B7
:10027000164BE25000F014FFC02201215200A35897
:100280008B43A350FFF799FFFFF798FF104B032014
:100290001A681300BA33198807234B43126A802166
:1002A0009B180022DA605A600A4A00F05FFA0A4896
:1002B00000F022F9094800F05BF910BDD4140010D9
:1002C0000000264084050000010002008C050000AB
:1002D0004C05000878030008CC030008A0140010A7
:1002E0009023034A5B01D058032318407047C0464F
:1002F0000000204010B5902400F047F8074B64013F
:100300001959074A1140074A0A431A5110225968DD
:100310001142FCD000F03DF810BDC0460000204066
:10032000FCFF00000100FA05F8B590260E4C76019E
:10033000070000F02AF8A3590500DB439B0701D111
:10034000FFF7D8FF80239B00E750A259074B1A40C4
:10035000074B1343A351102362681A42FCD02800B4
:1003600000F017F8F8BDC04600002040FCFF000078
:100370000300FA05000000000230800803D00130BD
:100380000238FCD1C046C0467047EFF3108072B609
:10039000704780F310887047014B18607047C04663
:1003A0004C050008044B1B681A00BA3212881B6AFD
:1003B0005043C0187047C0464C050008A02300B544
:1003C0001B06984226D015D8802825D00AD8102898
:1003D00024D0402824D000280BD0154809E0A420C0
:1003E000C00306E08022134B520090421CD098427A
:1003F000F3D100BD104B984218D0104BC018042800
:10040000EBD800F05FFEECEA0F0305000C48F0E7C4
:100410000C48EEE70020ECE70B48EAE70B48E8E77A
:100420000B48E6E70B48E4E71800E2E7A020D7E72F
:10043000FF00520006005200090000A0FFFFFF0F5E
:10044000020052000300520005005200010050005B
:10045000020050000100520010B50020FFF7A2FF7B
:100460000A4B1C682300BC331B68C0180368002BB0
:100470000ADB074B1868FFF7A1FF012263689A6047
:100480009A68002AFCD110BD0248FCE74C05000820
:100490005005000802005000064B1B68BC331B6867
:1004A000C3181B68002B03DA89B241600020704733
:1004B0000148FCE74C05000801008A000368002B96
:1004C00004DA89B2C2608160002070470048FCE70E
:1004D00001008A00064B1B68BC331B68C3181B68ED
:1004E000002B03DAC36800200B6070470148FCE76B
:1004F0004C05000801008A00024B1A68002A00D14E
:100500001860704764050008F0B52C24154E44436C
:1005100030681F000019FF241E0A26402740124C95
:100520001B0C256807602C6A46608360BA352D88ED
:100530006F433F190761370080377F01E7190B4D83
:1005400076014761A4191F043B436419236000230B
:100550008361059BC2610162002B01D01B888381EE
:10056000F0BDC046640500084C05000808100000F6
:10057000F0B50400236987B0026841680393A3685B
:1005800004AD1732C0682B806A80039BA26A059174
:100590000095E16A266A676AFFF7B6FF00213B0013
:1005A0000A0030000091FFF7AFFF2800216B00F038
:1005B00077FB0022AB5E002B06DB1F2213401E3AA6
:1005C0009A401300014A136007B0F0BD00E100E05B
:1005D000F0B585B003931B4B16001C682C235843C1
:1005E0004B4320180769E418002F27D0A569002D78
:1005F00026D13B68002B23DA134B1B6834331B785E
:100600000193436801996068029300F0EBFD0122B9
:100610008A40336812049BB2134333600123FE60A7
:10062000A361039B01996362029800F0DBFD012343
:100630008B409BB2BB60280005B0F0BD034DFAE7CC
:10064000034DF8E7640500084C05000804028A0021
:1006500007028A0073B5002642690400D568019636
:100660002B0CB34221D01B0413601368194B006993
:100670001B68BC331B68C3181B68B34215DA01A999
:10068000FFF728FFB0420CD10198E26903681E0C05
:10069000DBB29A4205D9226A9B009B58002B00D0FE
:1006A000984731002069FFF7F7FEADB2002D09D061
:1006B00063691D6000251B68636AAB4205D09847DB
:1006C0006562A56163691B6873BDA36A002BF8D0DE
:1006D0009847F6E74C0500082C2310B54343034A1E
:1006E0001068C018FFF7B6FF10BDC04664050008CB
:1006F0001A4B70B51A680C00130033331B78834211
:100700002AD9002928D00D681F212B000B400D424B
:1007100022D11100BA310988126A48431900104DDC
:100720008018286022685209934210D30021FFF7F5
:10073000B3FE002122002868FFF7C0FE011E04D18D
:100740002868FFF7A9FE002800D0064870BD62683F
:100750009E00B1500133E5E70348F7E74C05000878
:100760006805000801018A0003018A000B0010B52A
:10077000002A0DD1002914D10B4A0C4C11680A0033
:10078000BA321288096A424352182260180010BD1A
:10079000002906D006490B604A60FFF7A9FF030055
:1007A000F4E7044BF2E7C0464C0500086805000872
:1007B0008803000803018A00F7B51B4F04003B685B
:1007C0000E00002B2BD0DB681A68824229D9002545
:1007D0005B680193A94202D1FFF7D7FD0500386895
:1007E0000368002B19DA1F23012223409A40640971
:1007F000019BA4001C1921680A420CD0914321607E
:1008000000240021FFF748FE002E02D12800FFF748
:10081000C0FD2000FEBD054CF3E7054CF4E7034C9A
:10082000F7E7044CF5E7C0466805000802018800B8
:100830000301880004018A000C4B1B68002B11D0B7
:10084000DB681A6882420FD959681F234209184091
:100850001E3B8340920050581840431E9841044B61
:10086000C01870470348FCE70348FAE7680500082A
:10087000000188000201880004018A00054B1B6802
:100880001A0088321B6812689B181868000AC0B2E8
:100890007047C0464C050008044B1B681A0088329C
:1008A0001B6812689B181868000E70474C050008FA
:1008B000034BE0308000C0588006800F7047C04670
:1008C00000002640024B18694007C00F7047C04621
:1008D00000002740A6220549D2008B580220DB43A6
:1008E0009B0702D00123885818407047000026401B
:1008F00010B5FFF7EFFF0023022801D1014B1B6861
:10090000180010BD70050008084A83009B18D0220B
:100910009200985807221040042806D1C022920065
:100920009B581F22FC30134018437047000026409C
:1009300010B5FFF7E9FF88235B0098421CD00BD865
:10094000012813D0022814D0431E9841104B404276
:100950001840104BC01810BD1223FF33984210D01E
:100960001423FF33984210D00020F4E70A4B186894
:10097000F1E7FFF7BDFFEEE7084A094BD058C00F7B
:1009800001E0FFF79FFFC003E5E7044A054BF5E7E9
:1009900000EE85FF00127A006C050008000026407A
:1009A0000C0500003C050000B023154ADB00D358BD
:1009B00010B59903DB01DB0F890BC371114B01608B
:1009C000D3580F24D904DB01DB0D0381B123DB00F5
:1009D000D358C90C81801900214081721909214026
:1009E000C172D9029B009B0F8373074BC90CD3586C
:1009F00081815A05DB01520FDB0D8271038210BD2C
:100A000000002640840500008C0500008030034B68
:100A1000FF308000C058C00F7047C046000026401D
:100A20000F4B421E1B683F331B78934216D9803010
:100A30007F220C4BFF308000C3581F201A400A70E1
:100A40001A0A02404A701A0C02408A701A01C24007
:100A500000209B009B0FCA700B7170470248FCE797
:100A60004C0500080000264001004A00F0B589B09E
:100A700003AD2800FFF798FFB0230026164ADB00DD
:100A8000D358B34224DAAB7B022B21D0AC88B442DA
:100A90001ED03000ED79039FFFF74AFF220033009C
:100AA00031000190681C00F0C3FB0C00050033000E
:100AB0003A003100019800F0BBFBE6076A083243B8
:100AC0006308801859412A00230000F091FB0600BA
:100AD000300009B0F0BDC04600002640F7B5234BFA
:100AE00006001B683F331B78002B08D000283BD042
:100AF000834204D36946FFF793FF041E01D000260A
:100B000032E03000FFF782FF2300002805D06B465B
:100B10001C79023C23005A1E93416A461778547888
:100B20009578002BEBD0002CE9D0002DE7D03000D9
:100B3000FFF7FEFE002306002A002000190000F047
:100B400077FB00230C0005003A003000190000F08C
:100B50006FFBE6076A0832436308801859412A0090
:100B6000230000F045FB06003000FEBD4C050008E8
:100B700010B5041E04D1FFF779FF002806D008E065
:100B8000064B1B683F331B78834203D22000FFF7DC
:100B9000CFFE10BDFFF7A2FFEFE7C0464C050008EF
:100BA00070B50500FFF784FEE035074BAD0004008B
:100BB000E8580F231840FFF7DBFF0123A3405B0831
:100BC0001818E04070BDC0460000264030B5FF2533
:100BD00003242A000440E400A24089012940D243B2
:100BE000A14083B200280ADBC0240B4B80088000A0
:100BF000C018A400035913400B43035130BD0F200C
:100C00000340083B05489B089B001B18D86902401D
:100C10000A43DA61F2E7C04600E100E000ED00E0DF
:100C2000144B30B51B6807241A002C3212781F2A87
:100C300015D882081500A5432C1E0FD1033420407F
:100C4000A04081401B68920020339B180A00FF21BE
:100C500081401C68624011406140196030BD1A68D3
:100C6000802320401B06034380208001091889004F
:100C70008B50F3E74C050008064B10B59A68064CFC
:100C800010308300A24202D19858995010BD034AF7
:100C9000D058FBE700ED00E0000000080000001065
:100CA000F7B504000E00002801D1144C17E0002312
:100CB000C55E134B4188134F0193002D11DB2800B3
:100CC000FFF7AEFF61682800FFF780FFBB68019A5D
:100CD0000024934203D131002800FFF7CDFF20000C
:100CE000FEBD08B26168FFF771FFBB68019A9342CD
:100CF000DBD131002800FFF7BFFFD6E70100560027
:100D00000000000800ED00E0FEE7000002680A4B6A
:100D100010B51A6042685A6082689A60C268DA60E8
:100D200002691A6142695A6182699A61C269DA612B
:100D3000FFF7EAFF10BDC04690030008B0235B0533
:100D40005A782120002A01D05878C0B27047B023C9
:100D50005B059A89002A02D0988980B2704780206A
:100D60004000FBE7254B73B586000D00F4580429BD
:100D700001D0012925D100200EE0A3682B420AD121
:100D8000E36829001A685B6868460193009223684B
:100D900098471B4B1C606469002C0AD0194B984281
:100DA000EBD1012DE9D1164A174B126815489A511B
:100DB00076BD012DFCD1134B9842F4D0124B9C51BF
:100DC000F6E7022914D026006469002CFBD100202C
:100DD000002EEDD0B3682B4208D1F36829001A68C1
:100DE0005B68684601930092336898473669EFE77D
:100DF000034B1B68181EDBD01E69E8E7B40500082A
:100E0000B0050008FF0042009C0500081A4B1B6853
:100E1000190088311A6809685118096801621900B7
:100E20008C3109685218126842621A0046321278F0
:100E3000002A1FD09A68E0321268D2061AD5F22230
:100E4000DB68D2019A580260F022D2019A584260BF
:100E50000A4A9A5882600A4A9A58C260094A9A58BD
:100E60000261094A9A584261084A9A588261084ABE
:100E70009B58C3617047C0464C05000804780000C9
:100E8000087800000C78000010780000147800004A
:100E9000187800001A4B1B681900883109681A6815
:100EA0005218016A116019008C3109681A685218C9
:100EB000416A11601A0046321278002A1ED09A68E0
:100EC000E0321268D20619D5F0224168DB68D201FF
:100ED000995081680B4A9950C1680B4A9950016931
:100EE0000A4A995041690A4A99508169094A9950B8
:100EF000C169094A99500168E83299507047C04663
:100F00004C05000804780000087800000C78000008
:100F1000107800001478000018780000F7B505007C
:100F2000FFF70CFF564F01907B68002B00D06FE05D
:100F3000FFF72BFA7B680090002B00D07CE0514B30
:100F400007271C682300BA331B885F43236AFB18FA
:100F50001A68002AFCDADB68DA001ED51B0F4A4843
:100F60001E07FFF753FF22008832126823684749A3
:100F70009B181A6801980A40212862D1902000012C
:100F800002431A6022008C32126823689B181A6888
:100F90000A40104318603C4B3343802292051343B0
:100FA000226A0024BF18FB607C607B68FFF7CFFEDD
:100FB0008023344F5B00984246D1280000F068FA45
:100FC0003F6807223B00BA331E883B6A5643F3183A
:100FD0001A68002AFCDADD68EB0003D52801000955
:100FE000FFF758FF00222A4B00981D403B6AF31878
:100FF000DD605A60FFF7CDF9002C10D1204B5B6803
:10100000002B03D008210120FFF7ACFE2000FEBD1D
:1010100001210800FFF7A6FE041E00D188E7184B47
:101020005B68002B03D002210120FFF79BFE194BC8
:101030009C42EBD0184CE9E704210120FFF792FE17
:101040007DE7802040009BE73B681A00BC32196AAC
:10105000126852181168002910DBBA331B889B18DC
:101060001B68002B0ADB04230C4A11690B43136134
:10107000012D01D030BFA3E720BFA1E7054C9FE7BA
:10108000B40500084C05000874050008FF00FFFFC8
:10109000FFFFFFDF05004200FF00420000ED00E01F
:1010A000C0228020064952008B58C0059B009B0837
:1010B00003438B50802388581B0603438B50704793
:1010C0000000264002B4714649084900095649000B
:1010D0008E4402BC7047C046002243088B4274D342
:1010E00003098B425FD3030A8B4244D3030B8B4229
:1010F00028D3030C8B420DD3FF22090212BA030C32
:101100008B4202D31212090265D0030B8B4219D312
:1011100000E0090AC30B8B4201D3CB03C01A524132
:10112000830B8B4201D38B03C01A5241430B8B427A
:1011300001D34B03C01A5241030B8B4201D30B0363
:10114000C01A5241C30A8B4201D3CB02C01A52418A
:10115000830A8B4201D38B02C01A5241430A8B424D
:1011600001D34B02C01A5241030A8B4201D30B0236
:10117000C01A5241CDD2C3098B4201D3CB01C01A50
:10118000524183098B4201D38B01C01A524143095A
:101190008B4201D34B01C01A524103098B4201D348
:1011A0000B01C01A5241C3088B4201D3CB00C01AB5
:1011B000524183088B4201D38B00C01A524143082D
:1011C0008B4201D34B00C01A5241411A00D2014652
:1011D000524110467047FFE701B5002000F006F8C5
:1011E00002BDC0460029F7D076E770477047C04679
:1011F000002B11D1002A0FD1002900D1002802D0E4
:101200000021C943080007B4024802A14018029017
:1012100003BDC046D9FFFFFF03B4684601B502987D
:1012200000F034F8019B9E4602B00CBC7047C046EB
:10123000F0B5CE469946030C9C46130447461B0C5A
:101240001D000E0061460404240C80B50700100C3C
:101250004B436543414360432C0CC01820188C4617
:10126000834203D980235B029846C44449467943AC
:101270005643030C2D042D0C8919634400044019B6
:10128000C918C0BCB946B046F0BDC046F0B5574617
:101290004E464546DE46E0B504000D0092469946AE
:1012A00083B08B4230D82DD04946504600F0D8F854
:1012B00029000600200000F0D3F8331A9846203B9E
:1012C00034D49B4653465A46934042461F005346E9
:1012D00093401E00AF423BD8AF4200D179E05B465D
:1012E000A41BBD41002B00DA76E00022002300920F
:1012F000019301235A4693400193012342469340B0
:10130000009329E08242CFD900220023009201936A
:101310000C9B002B01D01C605D600098019903B00C
:10132000F0BCBB46B246A946A046F0BD42469B462D
:1013300020239B1A5246DA40414613004A468A400F
:10134000170042461F43534693401E00AF42C3D985
:1013500000220023009201934346002BD8D0FB07C4
:1013600072081A4346467B080EE0AB4201D1A24206
:101370000CD8A41A9D41012024196D410021013E81
:1013800024184D41002E06D0AB42EED9013E24195F
:101390006D41002EF8D1009801995B460019694112
:1013A000002B24DB2B005A464446D3402A00E2405F
:1013B0001C005B461500002B2ADB26009E403300F4
:1013C00026004746BE403200801A994100900191A4
:1013D0009EE7A342BCD882E74246202300219B1A05
:1013E0000022009101920122DA40019285E74246F3
:1013F00020239B1A2A0046469A402300F340444685
:1014000013432A00E2401C005B461500002BD4DA8F
:1014100042462F002023260097409B1ADE403B00C7
:101420003343CDE71C2101231B04984201D3000C58
:1014300010391B0A984201D3000A08391B09984247
:1014400001D30009043902A2105C40187047C0465D
:10145000040302020101010100000000000000007D
:1014600010B5002903D1FFF7DDFF203002E00800AE
:10147000FFF7D8FF10BDC046F8B5C046F8BC08BCA1
:101480009E467047F8B5C046F8BC08BC9E467047FB
:1014900001B40248844601BC604700BF65020008F1
:1014A0000300000001000000010000000000000037
:1014B00005036000040000000100000000000000BF
:1014C0000100000006046000080000002C05000870
:1014D000B101001000002040000024400000004046
:1014E00000000000000023400000304000003140B8
:1014F00000009F40000022400000104000009D407E
:101500002020202020101010101D1D8017007500B5
:10151000FF03060206003604102000007FC0000012
:1015200000040000000000000019324B647D000040
:10153000000000804000080B100000000000FF01C8
:101540002002001F00800004FF0810180010001483
:101550000018001C4044484C5000000008100000D7
:101560000800000004000000041000000012000049
:10157000042100000021000000160000401140027C
:10158000C41300138013A01340138813A813200062
:101590001C00000000000000F4FCFF7F01000000C0
:1015A000000000100000000880000000C0150010BE
:1015B00080000008F8020000B003000818020000D4
:1015C00000093D0000093D0000127A0000093D00BD
:1015D000A00F000004000000F5000010C90000107A
:1015E00080B230B5C400002820D0114B1868030029
:1015F000BA331A8807235343026A9A1811680029DC
:10160000FCDA3E210B4A062511600B4A0B4911609A
:10161000A3210B4AC90055500A495450006A545836
:101620001B18002058605358002BFCDA30BDC04610
:101630004C05000804012640080126401E1F00003A
:10164000000026401C05000010B54378FF2B11D187
:1016500000F00AF90400032000F026F90121C36814
:101660005B681A680A431A601A680A42FCD12000B3
:1016700000F0E2F810BDF7B507000020019100F07E
:1016800013F93F4C050023681A005033BC3216682A
:101690001B788619002B5CD000F0EEF80090032830
:1016A00018D000F0E1F80400364A374BD158002931
:1016B000FCDAD358002B37DB344D009B032B05D1CC
:1016C0000121002000F0E8F80028F9D1200000F006
:1016D000B3F80AE0062000F0E7F82368BC331B6883
:1016E000C0180368002B02DA284D2800FEBD002038
:1016F00000F09AF8264B9842F6D00023254A1900AC
:101700000120126800F0A0F8041EEDD1002000F0C6
:101710008BF81F4A204B904203D09C42E4D0013406
:10172000F4E79C42BDD1DFE7012128001B4A00F00D
:1017300093F80028C0D10198FFF752FF002F06D080
:101740003368002BFCDB00F09FF80500B5E7144D73
:10175000B3E700F089F801210400104A280000F0E6
:101760007BF8002808D1002F08D03368002BFCDB61
:1017700000F08AF80500A9E7044DA7E7084DA5E7A2
:101780004C050008000026401C0500000500520022
:101790000101880060050008F049020050050008BA
:1017A00001005000184BF7B51B6818495A6804230C
:1017B0000C6923430B61012824D030BF1300FC3394
:1017C0001B69002B1DD1A324114B12481249E400C0
:1017D00007681E590D680195104D056006251D51BD
:1017E0003E240C600E4C3E351D511D59002DFCDA77
:1017F0000C4CFC321461A322D20007609E50019B66
:101800000B60F7BD20BFD9E74C05000800ED00E0F4
:101810000000264008012640040126401E1F00004B
:101820001C050000AAAAAAAA01B40248844601BC69
:10183000604700BF3908001001B40248844601BC6B
:10184000604700BF9303001001B40248844601BC06
:10185000604700BFD105001001B40248844601BCB6
:10186000604700BFBD04001001B40248844601BCBB
:10187000604700BF8B03001001B40248844601BCDE
:10188000604700BFE102001001B40248844601BC79
:10189000604700BF5904001001B40248844601BCEF
:1018A000604700BFB907001001B40248844601BC7C
:1018B000604700BFA503001000000000000000000A
:1018C0000000000000000000000000000000000018
:1020000000F80F08712300100D000000E5230010F8
:10201000E5230010E5230010E52300100000000078
:10202000000000000000000000000000917500109A
:10203000E123001000000000317600103975001017
:10204000E1230010E1230010E1230010E123001040
:10205000E1230010E1230010E1230010E123001030
:10206000E1230010E1230010E1230010E123001020
:10207000E1230010E1230010E1230010E123001010
:1022E0000348044B834202D0034B03B118477047A5
:1022F000402B0008402B0008000000000548064B5A
:102300001B1AD90F01EBA301491002D0034B03B1F3
:1023100018477047402B0008402B000800000000C1
:1023200010B5064C237843B9FFF7DAFF044B13B11D
:102330000448AFF300800123237010BD302C000847
:1023400000000000F4E70D1008B5054B1BB105496E
:102350000548AFF30080BDE80840FFF7CFBF00BFDE
:1023600000000000342C0008F4E70D10704770479F
:10237000FFF7FCFF72B6144C144DAC4209DA216829
:102380006268A368043BA2BFC858D050FAE70C3477
:10239000F3E70F490F4A00209142BCBF41F8040BFC
:1023A000FAE70D480D490860BFF34F8F00F084F83D
:1023B00000F068F804F0CBF861F0A6FF00F09EFC96
:1023C00061F0C6FFFEE7000000E80D1018E80D10F0
:1023D000302C00082C1901080020000808ED00E04E
:1023E000FEE7FEE700B504207146084202D0EFF395
:1023F000098002E0EFF3088004304BF029FDFEE78E
:1024000008B5012045F040FF08BD704710B5002019
:102410004BF0CAFB00B910BD0446124B18604AF0DD
:1024200023FB0130B4FBF0F00F4B18604AF034FB93
:102430000130B4FBF0F40D4B1C60013C0C4BA3FBD2
:1024400004239B0C01330B4A13700B4BA3FB043486
:10245000A4090134094B1C6000204BF0A5FB084B7C
:102460001860D8E7E8220008EC220008E022000803
:1024700083DE1B43F4220008D34D6210F0220008D3
:10248000E422000808B5094843F052FBFFF7BDFFFE
:10249000FFF7BCFF00221146032045F051FF04481E
:1024A00045F094FD034845F0F3FD08BD7422071084
:1024B0004C2C000800710610EFF3108172B6074A29
:1024C000D2F8883043F47003C2F88830BFF34F8FDE
:1024D000BFF36F8F81F31088704700BF00ED00E0FD
:1024E00008B500F0FFF800F00FF800F0F1F800F088
:1024F00057F800F069F808BD08B500F03BF800F0A7
:102500005BF800F089F808BD08B50F2101204AF0FA
:1025100037F900220F21012049F0A4FF0F210120EB
:102520004AF0ECF8002108464AF02AF9FF2200217F
:10253000084649F097FF002108464AF0DFF80221DB
:1025400000204AF01DF909220221002049F08AFFEB
:10255000022100204AF0D2F8072100204AF010F9A9
:1025600000220721104649F07DFF072100204AF094
:10257000C5F808BD08B506483FF054F905483FF0D6
:1025800051F905483FF04EF904483FF04BF908BDBA
:102590003C71061034710610407106103871061037
:1025A00008B5002211462F204AF06CF802220021C3
:1025B00003204AF067F808BD08B502483FF032F939
:1025C00008BD00BF5871061010B50D4C0D4A002112
:1025D000204645F005FC0C4A0121204645F000FC50
:1025E0000A4A0421204645F0FBFB094A0621204601
:1025F00045F0F6FB074A0721204645F0F1FB10BDE8
:102600000003314088710610C07106106872061010
:1026100030720610F871061008B51B483FF002F939
:102620001A483FF0FFF81A483FF0FCF819483FF00D
:10263000F9F819483FF0F6F818483FF0F3F8184851
:102640003FF0F0F817483FF0EDF817483FF0EAF890
:1026500016483FF0E7F816483FF0E4F815483FF019
:10266000E1F815483FF0DEF814483FF0DBF8144875
:102670003FF0D8F813483FF0D5F813483FF0D2F8B0
:1026800012483FF0CFF808BDA0720610A4720610E1
:1026900084710610BC710610F47106109C7206104D
:1026A000647206102C7206105C71061060710610C0
:1026B00064710610687106106C7106107071061056
:1026C00074710610787106107C7106108071061006
:1026D000024B33229A601A61704700BF00203040DD
:1026E000FEE7000030B583B007220021322049F018
:1026F000C9FF962100204BF0FDFB4BF08DFBC0B9CC
:10270000784BD3F8004F04F03F044BF075FB30B129
:1027100001204BF067FB744B9B6C002B26DB714B4D
:10272000C3F8004F4AF0AEFA4AF09AFA01204AF094
:10273000BDFA01204CF0B8F84CF05EF84CF038F9D6
:102740004CF022F94AF0E0FB002108464AF028FA52
:1027500000204AF093F901204AF078F900204AF06D
:102760008BF8624B1B6893F8434006E00620FFF7A6
:10277000B7FF20464AF0AEFE013C002CF9D1002103
:1027800001204AF00DFB00204AF0F8F9002800F083
:102790008E80002108464AF003FB002108464AF0DB
:1027A000CDF9534D00240094234622462146284665
:1027B00045F016FA0094234622460121284645F0AA
:1027C0000FFA4C484AF026FA00287CD101204AF042
:1027D00025F900204AF052F900204AF037F900208C
:1027E0004AF04AF8002101204AF0DAFA00210846AE
:1027F0004AF0D6FA002102204AF0D2FA0021032042
:102800004AF0CEFA002104204AF0CAFA002105203D
:102810004AF0C6FA38484AF091FB002856D13748AA
:102820004AF0E6FD002854D1002108464AF086F916
:10283000002108464AF0B4F9314901204AF070FEFF
:10284000002849D142F2107101204AF091FF00287E
:1028500045D100204AF07AF84AF002FA01204AF005
:1028600025FA642100204BF045FBFFF7CFFD2548FA
:102870003EF0D8FF00B101BE23483EF0D3FF00B1C7
:1028800001BE22483EF0CEFF00B101BE20483EF01E
:10289000C9FF00B101BE1F483EF0C4FF00B101BE38
:1028A0001D483EF0BFFF00B101BE03B030BD4AF08D
:1028B000A5FA40F2111398427FF46BAF012100207A
:1028C0004AF03CF965E70520FFF70AFF0420FFF70F
:1028D00007FF0420FFF704FF0320FFF701FF032099
:1028E000FFF7FEFE00F0274000002740800D0108A2
:1028F0000000314040420F00A8720610400D030056
:10290000D4720610BC720610C0720610C472061093
:10291000C8720610CC720610D072061008B50448B2
:102920004BF06AFC08B1002008BD0248FCE700BF7C
:10293000F82200080000020610B53EF071FF0446C0
:1029400038B154B1FFF7CCFDFFF7D6FD5CB120469E
:1029500010BD41F093FC0446F3E740F6E44100204B
:1029600041F04CFDEEE7FFF7D9FF0446EFE700002A
:1029700010B5054C054A0649204647F02FF8236854
:1029800043F00043236010BD00006340D42D0008D5
:102990004471061010B5044C0449204647F000F974
:1029A000204647F0D7F810BD00006340D42D000842
:1029B00003680BB901207047002070472DE9F043F0
:1029C00083B08146884617461E469DF82850224B04
:1029D0000093642300220146204847F0EDF8F8B147
:1029E00028B11F4B984202D0013B984208D11A4BA4
:1029F0000093642301224946184847F043F948B33D
:102A000003B0BDE8F083144B642218F80410134897
:102A100047F00CFA01340028E2D1A742F3D8DFE7EF
:102A20000446F8E7691E0C4B009364233219A14257
:102A300014BF00210121094847F0ACF9013408B95D
:102A4000A542EFD80028DBD1034A6421034847F0B0
:102A500075F9D5E70446F2E7D42D0008000063407D
:102A60000520AA0070B582B00E4615460E4B0093A5
:102A70006423002201460D4847F09EF890B10A4AAF
:102A800064210A4847F05AF902B070BD064B64222F
:102A9000315D064847F0CAF901340028EFD1A5425C
:102AA000F4D8ECE70446F8E7D42D000800006340B2
:102AB00010B584B0044641238DF8083002230093FA
:102AC00003AB012202A96820FFF778FF9DF80C30C4
:102AD0001B021BB29DF80D0018435DF065FB002240
:102AE000094B5DF0F5FC06A3D3E900235DF010FA75
:102AF0005DF074FE206004B010BD00BFAFF3008035
:102B0000A4703D0AD74342400040754000B587B0ED
:102B100040F26B13ADF80C306B238DF808300122B6
:102B2000009204AB02A96820FFF748FF05909DF8CA
:102B3000103013F0400F05D105A8FFF739FF07B09B
:102B40005DF804FB022203A96820FFF78BFF0590C4
:102B500019238DF80C3007228DF80D208DF80830E0
:102B6000022203A96820FFF77DFF0590E4E700003B
:102B70002DE9F04387B006460D4690461F463B239D
:102B80008DF808300623009304AB012202A96820C7
:102B9000FFF714FF03909DF810C04FEA0C2C0FFABA
:102BA0008CFC9DF811009DF812904FEA09290FFA4C
:102BB00089F99DF8133049EA03099DF8144024026D
:102BC00024B29DF815301C434CEA00005DF0ECFA8D
:102BD00000221D4B5DF052FB5DF000FE3060484668
:102BE0005DF0E2FA0022184B5DF048FB5DF0F6FD67
:102BF000286020465DF0D8FA0022134B5DF03EFBC2
:102C00005DF0ECFD07EE900AC8F8000096ED007A42
:102C100027EE077AD5ED006A66EEA66A37EE267AC9
:102C200067EEA77A77EE277A17EE900A5DF0CEFA74
:102C30005DF05CF85DF0D2FD386003A8FFF7B8FEE8
:102C400007B0BDE8F08300BF0000103F00000000A7
:102C50002DE9F04186B080460F46164643238DF895
:102C600008300623009303AB012202A96820FFF776
:102C7000A5FE05909DF80C301B021BB29DF80D00BF
:102C80009DF80E502D022DB29DF80F2015439DF892
:102C90001040240224B29DF81120144318435DF023
:102CA00083FA13A3D3E900235DF012FC5DF096FDD7
:102CB000C8F8000028465DF077FA0DA3D3E9002399
:102CC0005DF006FC5DF08AFD386020465DF06CFA30
:102CD00007A3D3E900235DF0FBFB5DF07FFD3060CF
:102CE00005A8FFF765FE06B0BDE8F081AFF30080F0
:102CF00000000000006060407047000010B582B026
:102D0000FFF71AFE00B101BE62B64FF4E133009343
:102D1000FF231A46282129204CF09AF80024019418
:102D20000223009323464FF480520549054805F0DD
:102D3000D3FC05F009FD01BE204602B010BD00BF66
:102D4000DC7206109531001010B582B03CF03EF9EF
:102D500000282ED11F4A136843F0040313604FF478
:102D6000007004F085FD1C4B186048B3194A1368C5
:102D700043F008031360194B0193194B0093194B4F
:102D8000194A12684FF400713CF0F8FE0446E8B9A5
:102D9000104A136843F010031360002213490F4BCD
:102DA00018683CF06BFE044638B9114860F06AF9C7
:102DB00003E004460F4860F065F9204602B010BDFC
:102DC0000D4860F05FF94FF0FF34F6E70B4860F014
:102DD00059F9F2E7302E0008282E0008242E0008AA
:102DE0003073061014230008202E0008012E001056
:102DF000847306100873061040730610647306107F
:102E000084B000B583B005A880E80E009DF81430AA
:102E1000D3B1012B21D1134A136823F0200313608F
:102E2000114860F02FF902238DF8073000234FF08E
:102E3000FF320DF107010D48006804F0DDFD03B01D
:102E40005DF804EB04B07047064A136843F0400392
:102E5000136007A800F0FCFBF1E7054860F012F9E9
:102E6000EDE700BF302E0008B07306102C2E0008CE
:102E7000E073061030B5A5B04FF0A4FB18B10025E3
:102E8000284625B030BD06AC78220021204660F0EF
:102E900093FA2A4B0FCB84E80F00294B07CBCDF8D0
:102EA0003900CDF83D10CDF841201B788DF8453024
:102EB000244B1F932146244860F07EF800242546C9
:102EC000632C32D801A906A84FF0FAF8054668B17C
:102ED000C4F1630341F2883201461C4860F06CF88B
:102EE00041F2883005F034FE0134E9E706A91848BC
:102EF00060F062F8174A136843F0020313609DF80C
:102F00000430042B09D0062BBAD102A810F0F8FD2A
:102F10000146114860F050F8B2E702A80EF010FF29
:102F200001460E4860F048F8AAE70D4860F0AAF89C
:102F300008210C4860F040F8A2E700BF0C740610AE
:102F40001C740610040040002C740610B0740610A7
:102F500048740610302E0008947406107874061019
:102F6000007506103075061010B5044603F076FAA9
:102F70000346064A1821204660F08CF8002801DB41
:102F8000002010BD4FF0FF30FBE700BF6875061052
:102F900070B588B002AC344D0FCD0FC42B682380C0
:102FA0000023CDF81A30ADF81E30304B304A9A600D
:102FB000304A1A612E229A8106229A8202A8FFF7CD
:102FC000D3FF054688B9294E02AC3460204661F033
:102FD0004DFA81B2B180284B1A6800929B88224634
:102FE00026485FF0E9FF2C4617E0254860F04AF8D4
:102FF0002FE01E49234B18683CF042F8054600B309
:10300000C4F195034FF4FA6201461F485FF0D4FF04
:103010004FF4FA6005F09CFD0134952C1CD84FF05C
:10302000D1FA0028E5D1194860F02CF8184A136845
:1030300023F002031360FFF71DFF05460028D8D0D8
:1030400007E0144860F01EF8114A136843F02003AB
:103050001360284608B070BD0F4860F013F80521D2
:103060000E485FF0A9FFF4E7787A06101C230008E9
:1030700080750610B075061014230008B875061088
:10308000E8750610242E0008A07606102C7606108F
:10309000302E000880760610F87606102477061089
:1030A00008B52F4B1B6813F0200F19D12C4B1B6850
:1030B00013F0100F21D12A4B1B6813F0080F29D1F0
:1030C000274B1B6813F0040F29D1254B1B6813F005
:1030D000020F2FD1224B1B6813F0010F35D108BD11
:1030E000204B18683CF0C8FB18B91F485FF0CAFFB6
:1030F000DCE71E485FF0C6FFD8E71A4B18683CF0C3
:1031000007FC18B91A485FF0BDFFD4E719485FF013
:10311000B9FFD0E7184B186804F0BAFBD0E73CF0D1
:1031200061FC18B915485FF0ADFFCEE714485FF0B9
:10313000A9FFCAE74EF06AFF18B912485FF0A2FF74
:10314000C8E711485FF09EFFC4E74FF0A9FB18B92C
:103150000E485FF097FFC2E70D485FF093FFBEE7B0
:10316000302E0008242E00085877061080770610AD
:10317000AC770610D8770610282E000800780610C5
:103180001C78061044780610647806108C780610B7
:10319000B078061010B5B4B000228DF80C200121D3
:1031A000032005F07FF8524B186003A84EF032FD63
:1031B00008BB504A136843F0010313604E485FF0A8
:1031C00061FFFFF757FEC8B9FFF7BEFDB0B9FFF7C3
:1031D000DFFE98B9494B01930223009300234FF47B
:1031E00080624749474805F077FA01281DD04648D4
:1031F0005FF048FF02E045485FF044FF44485FF05D
:1032000041FF3E4B186808B106F0DEF8414B1868E4
:1032100008B106F0D9F8FFF743FF3F485FF032FFEF
:10322000002006F0D1F834B010BD4FF4FA6005F07C
:103230008FFC384B01930223009300234FF48062EC
:103240003649374805F048FA012803D035485FF081
:1032500019FFD3E73448FFF74FFD1BE033485FF019
:1032600011FFFFF795FE0028C8D100248DF83440E7
:1032700023464FF0FF320DA92D48006804F0BCFB37
:103280008DF8104023464FF0FF3204A9294800680A
:1032900004F0B2FB4FF0FF320DF1CF01144B186870
:1032A00004F07EFD0128F5D19DF8CF30022BF1D13D
:1032B00001238DF8103000234FF0FF3204A91D4880
:1032C000006804F099FB1C4B18683CF0D5FA4FF0ED
:1032D00079F90028C2D1074A136823F0020313606A
:1032E00016485FF0CFFEFFF7C5FD0028B6D085E792
:1032F0002C2E0008302E000808790610742E0008C5
:1033000030790610ED35001040790610D47806109B
:103310001C7A0610342E00084C7A061068790610C4
:1033200019340010787906109C790610F879061087
:10333000782E0008382E0008242E0008D4790610B4
:1033400000B58BB00E4841F0DDFB0023099302224B
:103350008DF8002009AA69460A48006804F032FC8A
:10336000099B4BB14FF0E0234FF08052C3F8042D7E
:10337000BFF34F8FBFF36F8F0BB05DF804FB00BF3F
:103380003C2E0008382E000830B583B0FFF7F0FA65
:103390000022FF21164841F073FB034618B143B1E8
:1033A00073B103B030BD1349114841F0C3FB03466C
:1033B000F5E742F210710E4841F0CEFA0346EFE70E
:1033C0000B4C04F1080500220B49284641F046F950
:1033D0000122009203232946204641F07FF920462E
:1033E00041F078FB054B596805485FF0E5FDD8E7EB
:1033F0003C2E0008287C0610413300103C230008B6
:10340000907A061008B5034841F07CFBFFF7C2FA3A
:1034100008BD00BF3C2E000830B5BFB0FFF7B4FFB9
:1034200000222421032004F03DFF404B186001E0FE
:10343000FFF7E8FF4FF0FF3235A93C4B186804F066
:10344000AFFC0128F6D19DF8D430012BF0D0022B2F
:1034500004D0002BEED1FFF797FFEBE7FFF756FB09
:1034600039AB38AA37A936A8FFF782FB3DA8FFF78A
:103470001FFB3CAA3BA93AA8FFF7EAFB10AD3D9819
:103480005CF0A4FECDE90E013C985CF09FFECDE916
:103490000C013B985CF09AFECDE90A013A985CF089
:1034A00095FECDE9080139985CF090FECDE9060162
:1034B00038985CF08BFECDE9040137985CF086FE0D
:1034C000CDE9020136985CF081FECDE90001184A91
:1034D000912128465FF0DEFD164CE560284660F03D
:1034E000C5FF20616268294613485FF065FD2146EB
:1034F000124B18683BF0C4FE014630B9104841F049
:10350000E9FA1048FFF7F8FB94E70F485FF054FD25
:1035100001238DF8D33000234FF0FF320DF1D3019A
:103520000A48006804F068FAE8E700BF382E00088F
:10353000CC7A06103C230008587B0610242E000885
:103540003C2E0008C07B0610887B06102C2E00083D
:1035500030B583B00024254604E04FF47A7005F0BE
:10356000F7FA0134022C0ED801221149114B1868C8
:103570003BF086FF05460028EFD10D4B5A681989AC
:103580000D485FF019FD0DB903B030BD0322294687
:103590000A485FF011FD00238DF807304FF0FF322D
:1035A0000DF107010648006804F026FAECE700BFB9
:1035B00050230008242E0008387C0610747C061066
:1035C0002C2E000808B501220549064B18683CF06E
:1035D0007BF800B908BD014603485FF0EDFCF9E750
:1035E00050230008242E0008B47C061000B5A7B0B4
:1035F000FFF7AEFF00229821012004F053FE114B8B
:10360000186001E0FFF7DEFF4FF0FF3269460D4B17
:10361000186804F0C5FB0128F6D19DF80030012B95
:10362000F0D0022B04D0002BEED1FFF791FFEBE797
:103630000DF10102259904485FF0BEFC0348FFF735
:103640005BFBE1E7782E0008EC7C0610107D06108D
:1036500010B5A6B00446C1680DF1010060F09AFEF5
:103660002369259302238DF8003000234FF0FF32A9
:1036700069460348006804F0BFF926B010BD00BFDA
:10368000782E0008000000000230800803D00130CE
:103690000238FCD100BF00BF7047EFF3108072B654
:1036A000704780F310887047B0F1FF3F22D008B315
:1036B00038B5C50E43011B1A65F10005AD0045EA9A
:1036C00093759B001B1845F10005ED0045EA537505
:1036D000DC004FF47A720023204629465DF01EF983
:1036E0006FF47A73A34240F2E733AB4101D26FF03B
:1036F000010038BD704708B540F07EFE002008BDCF
:10370000034B0360034B0B6080231360704700BFC3
:1037100094340008942E0008034B0360034B0B60A5
:103720004FF48073136070477C35000894300008B4
:1037300070B582B0054600230193244B1B686BB122
:10374000224B1B6843B1FFF7A8FF044605F0CEFCEF
:1037500070B92046FFF7A5FF02B070BD1C483EF0CF
:103760001FFC18B9194B1A4A1A60E9E701BEE7E7CE
:103770004FF47A7605FB06F6164DA5FB0635AD0926
:10378000FFF7B9FF85420CD813480028E1D1019B0F
:10379000AB4200D901BE0198FFF786FF05F030F873
:1037A000D7E7012301AA291A0848006840F0AEFDB6
:1037B0000A4B9842E9D1B6F57A7FCAD3002301AA11
:1037C00029460248006840F0A1FDDEE77C2E000893
:1037D000802E0008D34D621000000E06051A020468
:1037E00008B506F00CFA03680BB14068984708BDAD
:1037F0002DE9F04784B00C9D002843D00F46904639
:103800001C468146B5F5967F3ED313B113F0070FE2
:103810003ED184B3002606F1F40004F029F8824674
:10382000002837D025F00705AD083CB356440322E5
:103830000021012004F036FDC6F8E80000B3184B63
:10384000C6F8EC30C6F8F0A016F0070F00D001BEA5
:10385000029601949DF8343000930E9B2A4641460F
:10386000384605F05FFDC9F80000864214D0A8B1C3
:1038700001BE002009E025F00706CCE70446D5E7A5
:1038800001BEDCE7074800E0064804B0BDE8F08769
:103890000548FAE70548F8E70020F6E70020F4E7D6
:1038A00001EFCDAB05000E0606000E0601000E0668
:1038B00010B505F03FFC0446D0F8EC20074B9A42C7
:1038C00004D001BE204605F00FFAFBE700231A469C
:1038D0001946D0F8E80004F08FF8F3E701EFCDAB1C
:1038E000E0B110B50446006805F06EFD246805F0EF
:1038F000CBFDD4F8EC200A4B9A4203D005F082F8B5
:10390000002010BD0023C4F8EC30D4F8E80004F027
:10391000E7FDD4F8F00003F0BBFFEFE70148704784
:1039200001EFCDAB05000E06A8B110B50446036843
:10393000D3F8EC10094A914203D000200023236001
:1039400010BD4FF0FF31D3F8E80004F0D8FA20465C
:10395000FFF7C6FFF2E70248704700BF01EFCDABAB
:1039600005000E0680B110B50446017131B1042086
:1039700004F0EBFC206028B1002010BD012004F011
:10398000E4FCF7E70148F8E70148704701000E063C
:1039900005000E0698B110B504460846FFF784FEF0
:1039A000014623792BB1206804F07AFB28B100206E
:1039B00010BD206804F0A3FAF8E70248F8E70248CF
:1039C000704700BF00000E0605000E0688B108B55E
:1039D00003792BB1006804F0D4F840B1002008BD91
:1039E00000231A461946006804F006F8F5E7024875
:1039F000F5E70248704700BF02000E0605000E06FC
:103A000060B330B583B00C46054649B3002301933B
:103A1000EFF305839BB1002301AA006804F0D2F8FC
:103A2000012815D1019B9BB14FF0E0234FF080524C
:103A3000C3F8042DBFF34F8FBFF36F8F08E010461C
:103A4000FFF732FE024600232146286803F0D4FF28
:103A500010B9044803B030BD0020FBE702487047AE
:103A60000148F7E702000E0605000E0650B330B518
:103A700083B00C46054639B300230193EFF3058369
:103A800093B101AA006804F06BFC012814D1019BDA
:103A900093B14FF0E0234FF08052C3F8042DBFF3F1
:103AA0004F8FBFF36F8F07E01046FFF7FDFD024613
:103AB0002146286804F074F910B9044803B030BDF9
:103AC0000020FBE7024870470148F7E702000E06B6
:103AD00005000E0628B108B5006804F001FD0020BD
:103AE00008BD0148704700BF05000E0660B110B563
:103AF0000B4611460446184604F004FC206008B149
:103B0000002010BD0148FCE70148704701000E0687
:103B100005000E0630B583B00023019330B305468F
:103B2000EFF3058303B119BB0846FFF7BDFD01465E
:103B3000EFF305849CB101AA0021286804F010FC71
:103B4000C0B1019BC3B14FF0E0234FF08052C3F8E6
:103B5000042DBFF34F8FBFF36F8F002403E028685D
:103B600004F0CDF950B1204603B030BD044CFAE763
:103B7000034CF8E7034CF6E70024F4E7014CF2E7C6
:103B800005000E0600000E0600B583B00023019369
:103B900010B3EFF3058393B101A9006804F093F823
:103BA000012812D1019B83B14FF0E0234FF08052E6
:103BB000C3F8042DBFF34F8FBFF36F8F05E00023D1
:103BC0001A461946006803F017FF18B1002003B029
:103BD0005DF804FB0148FAE70148F8E702000E0629
:103BE00005000E0628B108B5006804F079FC002035
:103BF00008BD0148704700BF05000E0668B110B54A
:103C00000B46114604460022184604F04BFB206088
:103C100008B1002010BD0248FCE70248704700BF11
:103C200001000E0605000E0628B108B5006804F074
:103C300057FC002008BD0148704700BF05000E0674
:103C400028B32DE9F04182B00F4614461D46804648
:103C5000FAB108205DF062F80646E0B10460456004
:103C600077B901220D4B0093334601210C4805F032
:103C700059FFC8F8000028B1002002B0BDE8F0816B
:103C80000022EFE730465DF051F80648F5E70648B8
:103C900070470548F1E70348EFE700BFE137001040
:103CA00050F1061001000E0605000E06002853D044
:103CB00030B585B004460846FFF7F6FC0246EFF340
:103CC000058383B300230393009303AB092120688A
:103CD00005F044FF01282ED1039B4BB14FF0E023A8
:103CE0004FF08052C3F8042DBFF34F8FBFF36F8F97
:103CF00000250395246805F0D5FB0246009503AB2B
:103D00000621204605F02AFF012814D1039B93B118
:103D10004FF0E0234FF08052C3F8042DBFF34F8FD4
:103D2000BFF36F8F07E0002300930421206805F0A4
:103D300015FF012803D068B1002005B030BD24680C
:103D400005F0AAFB0246002300930121204605F05E
:103D500005FFF0E70148F0E70148704702000E0652
:103D600005000E0648B300B585B0EFF30583B3B187
:103D700000220392009203AB0821006805F0EEFEDA
:103D8000012813D1039B8BB14FF0E0234FF08052F9
:103D9000C3F8042DBFF34F8FBFF36F8F06E00022EF
:103DA000009213460321006805F0D8FE18B10020E8
:103DB00005B05DF804FB0248FAE70248704700BF0F
:103DC00002000E0605000E0658B110B50C4651B1A2
:103DD000006805F0F9FE003818BF012020700020AF
:103DE00010BD024870470148FAE700BF05000E0603
:103DF000B0B130B583B00546006805F000FF044659
:103E00000022009213460521286805F0A7FE10B98C
:103E1000044803B030BD20465CF088FF0020F8E77E
:103E20000148704702000E0605000E0630B110B5BD
:103E3000044605F031FB2060002010BD00487047AB
:103E400005000E0608B5FFF72FFC04F081FE0020E8
:103E500008BD10B582B004464FF0FF3269462046D7
:103E6000FFF704FE0028F7D1009B13B10198984793
:103E7000F2E7FFF71DFD02B010BD000070B584B081
:103E800004460E4601B100B901BEB36813B17368B0
:103E900003B901BE002323606360A360E36031695E
:103EA00001B9102108222046FFF7A8FE054680B977
:103EB0000123237304F10800F2686AB17368317852
:103EC000029401910093B3680749FFF791FC0546FE
:103ED00020B9284604B070BD044AEFE700232373DD
:103EE0002046FFF7A1FEF4E7533E00102C7D06109C
:103EF00070B582B00446FFF7D0FB0546237BCBB3F9
:103F0000012B13D00026237B042B24D1237B93B3D6
:103F10002846FFF7C6FB2046FFF786FE064668BB2D
:103F2000FFF7BBFB05460023237324E00323237321
:103F3000FFF7B7FB00220092019269462046FFF787
:103F40005FFD06460028DED0FFF7A7FB01232373A1
:103F5000FFF7A7FB12E02846FFF7A3FB04F10800D8
:103F6000FFF7E2FC064648B9FFF797FB0546042336
:103F70002373CBE700262846FFF793FB304602B0B9
:103F800070BD000070B582B00D461646044618B3E9
:103F900025B3FFF782FB237B013BDBB2012B1FD84C
:103FA00063680133636002232373FFF77AFB009594
:103FB0000196002269462046FFF722FD0546FFF7DD
:103FC0006CFB6368013B63600BB901232373FFF74C
:103FD00068FB284602B070BD01BED9E701BED8E734
:103FE000FFF75FFB004DF4E720000E06401A704714
:103FF0000238032803D8DFE800F00A04060800208E
:1040000070475020704762207047702070474020F2
:10401000704720B129B132B13BB100207047012077
:10402000704701207047012070470120704748B158
:1040300051B10B7803B14AB10B694BB1CB684BB1AD
:104040000020704701207047012070470120704711
:1040500000207047012070472DE9F04768B10F46F6
:1040600015460646836E7BB1426DA2B1D1B1984729
:1040700080464FF00009CA4630E0274B274A40F2FD
:104080005E2127485CF00EFE264B244A40F25F2159
:1040900023485CF007FE244B204A4FF41871204857
:1040A0005CF000FE214B1D4A40F261211C485CF08F
:1040B000F9FD1F4B194A40F27E2119485CF0F2FDD0
:1040C000B36E98474146FFF791FFB0F5FA7F05D3ED
:1040D0004FF0010902E04FF00109A2469DB1B9F18C
:1040E000000F10D1736D2A463946B06D9847041EF3
:1040F000F1DBE5DDB36E98478046AC42D9D82D1B85
:10410000A2442744EAE7BAF1000F01DDC6F8708047
:104110005046BDE8F08700BF387D0610508006107D
:104120004C7D0610C47D0610E07D06100C7E061046
:104130001C7E06102DE9F04F83B0A8B10D468046D5
:10414000036E8B4217D3D0F868B0BBF1000F19D0C3
:10415000D0F850A0BAF1000F1BD0C66D06B3D847F7
:1041600001900027B94634E0254B264A40F2D6217B
:1041700025485CF097FD254B224A40F2D721224882
:104180005CF090FD224B1F4A4FF436711E485CF0E4
:1041900089FD204B1B4A40F2D9211B485CF082FD6F
:1041A0001D4B184A40F2DA2117485CF07BFD1B4B8F
:1041B000144A40F2FA2114485CF074FDD847019982
:1041C000FFF714FFB0F57A7F03D3012701E0012741
:1041D000A14685B17FB92A463146D8F85800D04764
:1041E000041EF4DBEADDD8470190AC42DFD82D1B7A
:1041F000A1442644EDE7484603B0BDE8F08F00BF78
:10420000387D0610148006104C7D0610447E061082
:10421000C47D0610707E06109C7E0610C47E0610BB
:104220002DE9F84F68B10E4693468046D0F868A055
:10423000BAF1000F0CD0046ED047814600273D46EE
:1042400014E0164B164A40F2223116485CF02AFD63
:10425000154B134A40F2233112485CF023FD2146EE
:104260004046FFF767FF844208D00127B5420ED2CF
:104270006FB9731BA342F2D21C46F0E70544D04746
:104280004946FFF7B3FE5845F0D30127EEE7B542A4
:1042900002D00420BDE8F88F0720FBE7387D061028
:1042A000208006104C7D0610C47D061010B584B029
:1042B00004AC04E90E0058B1C26D82B1039C026ED9
:1042C000944213D9069A2146FFF7AAFF04B010BD05
:1042D0000B4B0C4A40F25F310B485CF0E3FC0B4B9C
:1042E000084A4FF4587108485CF0DCFC2146FFF79F
:1042F00021FF844201D00420E8E70020E6E700BF68
:10430000387D0610308006104C7D06109C7E06100D
:1043100050280FD062280FD040280FD0702801D12C
:104320000320704708B5064B064A40F2C1210648F3
:104330005CF0B8FC012070470220704700207047F5
:10434000EC7E0610D47F06104C7D061070B5A0B12F
:104350000C4615460646B9B1EAB1C16D11B32369E1
:104360000BB1E3682BB32A463046FFF775FE854252
:104370002FDC226922BB002070BD184B184A40F286
:10438000795118485CF08EFC174B154A40F27A516F
:1043900014485CF087FC154B114A40F27B511148E0
:1043A0005CF080FC124B0E4A40F27C510D485CF0F0
:1043B00079FC104B0A4A40F27D510A485CF072FCCD
:1043C000E1683046FFF748FE2369834203DC0020A2
:1043D000D2E70320D0E70320CEE700BF387D0610E8
:1043E000C48006104C7D0610147F06102C7F06102A
:1043F0009C7E06103C7F06102DE9F04F83B068B11B
:104400000F469346984606467BB1D0F868A0BAF1AD
:10441000000F11D0D047814600251FE02E4B2F4AB8
:104420004FF4B7612E485CF03DFC2E4B2B4A40F216
:10443000B9512B485CF036FC2B4B284A40F2BA515C
:1044400027485CF02FFCD0474946FFF7CFFDB84224
:1044500034BF00200120072C0FD170B94246B16D46
:10446000306D01F0DEFA0446002FECD1012D94BF2F
:10447000002001200135ADB2EDE7ACB9D047494687
:10448000FFF7B4FD874206D93F1A98F80030202B79
:1044900003D0052409E00027F7E7009798E80E000D
:1044A0003046FFF703FF044654B12CB9BBF1000FAF
:1044B00002D00C9B1B786BB9204603B0BDE8F08F8F
:1044C000F36DC8F804300C9A0021404601F05DFA03
:1044D0000446EAE70524EFE7387D06104080061021
:1044E0004C7D0610887F0610C47D0610F0B585B09F
:1044F00000238DF80F3048B10D4606461046FFF7F1
:1045000077FD044648B9204605B0F0BD144B154A66
:1045100040F2B13114485CF0C5FBFFF7F9FE0746E5
:104520002A46214606F15C0001F0B0F908B10324E7
:10453000E9E70422F16D3046FFF78EFD042801D033
:104540000324E0E7012386F874300DF10F03009394
:1045500000233A462946304601F05DFD0446D2E785
:10456000387D0610EC7F06104C7D061030B583B008
:10457000002301938DF8033048B10546F9B10DF1E0
:10458000030201A901F099FD0146002413E0134B39
:10459000134A4FF4C66113485CF084FB9DF8032076
:1045A0002846FFF7A3FF04460DF1030201A92846A0
:1045B00001F083FD014669B1002CEFD00AE0282408
:1045C000224600215EF0F8FE2246002128195EF006
:1045D000F3FE0024204603B030BD00BF387D061036
:1045E000FC7F06104C7D0610F0B587B000238DF8D7
:1045F000173020B30C46054641B3C76E6FB3087839
:10460000FFF786FE0646002205A9204601F0BDF907
:1046100050B390B9BDF81430ADF808308DF81000E3
:104620000023039302AA21462846B8479DF8172085
:10463000BDF814102846FFF759FF07B0F0BD104B26
:10464000104A40F2814110485CF02CFB0F4B0D4AA0
:1046500040F282410C485CF025FB0D4B094A40F2C8
:10466000834109485CF01EFB0DF117030093012301
:104670003246BDF81410284601F0CDFCC9E700BF52
:10468000387D06105C8006104C7D0610887F061071
:10469000A07F0610F0B585B00023ADF80E30A8B1AC
:1046A0000C4615460646C1B1C76EEFB10B78B02B6C
:1046B00027D034D8702B04D021D8502B01D0622BB6
:1046C00019D121463046FFF78FFF26E0284B294AB3
:1046D0004FF4996128485CF0E5FA284B254A40F2EE
:1046E000C94125485CF0DEFA254B224A40F2CA4116
:1046F00021485CF0D7FA402BE3D005200DE0902B49
:104700000AD100220DF10E01204601F03EF9F0B170
:1047100006281AD000231BE0052005B0F0BDD02BE1
:104720000AD100220DF10E01204601F02EF90346B8
:1047300020B925B9012302E00520EEE7002338B9AE
:1047400035B1002286F87C2002E0012300E001233D
:10475000002BE2D0BDF80E30ADF800308DF8080027
:10476000002501956A4621463046B8472846D4E7D9
:10477000387D0610708006104C7D0610887F06106C
:10478000A07F0610F0B585B01D4600230393029369
:1047900060B10C461646074679B1ADB102AA03A92D
:1047A000204600F0FBFFB0B105B0F0BD0E4B0F4A44
:1047B0004FF4CB610E485CF075FA0E4B0B4A40F299
:1047C00059610B485CF06EFA0B4B084A40F25A6193
:1047D00007485CF067FA009507F15C03039A3146DD
:1047E000204600F0F6FFDFE7387D0610D080061087
:1047F0004C7D0610147F0610C07F061070B58CB07B
:1048000000238DF82F30ADF82C3030B30D4606461E
:1048100051B3C36E7BB306AA0BA9284601F09BF8DF
:10482000044678B3B4B90022BDF82C30ADF80C3092
:1048300006AB04938DF8144022B9F36E03AA2946FF
:10484000304698479DF82F20BDF82C103046FFF7D2
:104850004DFE044620460CB070BD184B184A40F27D
:104860000F4118485CF01EFA174B154A4FF482614D
:1048700014485CF017FA154B114A40F211411148E7
:104880005CF010FA0DF12F0300939DF8183001220F
:10489000BDF82C10304601F067FB60B1092801D04B
:1048A0000446BFE79DF81810012001F04AFB8DF87F
:1048B0002F000122B8E70446B4E700BF387D061098
:1048C000848006104C7D0610887F0610A07F06109D
:1048D00028B3F8B50C4616461D46074609B3069B95
:1048E0000BB312B31DB30B681BB34B681BB3802211
:1048F00000215EF061FD07F1500394E8070083E8B2
:104900000700BE66FD6607F15C03069A92E80300A5
:1049100083E803000123A7F86430002002E00120AF
:1049200070470120F8BD0120FCE70120FAE70120D3
:10493000F8E70120F6E70120F4E72DE9F04389B01C
:104940000D4690469946109E0024079406940394C1
:1049500004940594074648B1E1B1EEB106AB07AA4D
:104960004146284600F032FE044600E00124ACB186
:10497000ECB134B374B34CB9012387F866306B885B
:10498000A7F87630002387F87C30BB67204609B053
:10499000BDE8F0830124EAE70124E8E707F15C03BE
:1049A000079A4146284600F047FE0446E0E7069A8B
:1049B000F96D3846FFF750FB069B8342D9DD03248F
:1049C000D8E7009603AB2A7849463846FFF714FD2E
:1049D0000446CFE731783846FFF7C8FD0446CAE7FA
:1049E0002DE9F04184B005460E461746984600244E
:1049F00003940294FFF70DFB044628B164B1B4B1EF
:104A0000204604B0BDE8F08102AB03AA3946304627
:104A100000F038FE0446F1E705F15C030093039BC8
:104A200042463946304600F044FE0446E7E7029A23
:104A3000E96D2846FFF710FB029B8342E0DD03246B
:104A4000DEE770B584B005460C4616460023039396
:104A50008DF80B30FFF7EBFA68B108B922788AB904
:104A600020B9039A21462846FFF770FC08B923783D
:104A700093B904B070BD03AB324621462846FFF718
:104A800081FEEAE73146284601F046FA0928E7D1D7
:104A9000A378002BE5D1E3E70DF10B020092002291
:104AA0003146284601F060FAE3E730B583B00023D1
:104AB0000193054640B101A800F030FF04462CB137
:104AC00054B1204603B030BD0124F8E705F15C0085
:104AD00000F02BFF0446F3E7019AE96D2846FFF743
:104AE000BBFA019B834205DC2B6FAB67012385F882
:104AF0007C30E6E70324E4E770B5E8B10546836E51
:104B00000BB398470646B5F876404FF47A7303FB2B
:104B100004F41CB3296FFFF769FAA04220D995F875
:104B20007C30BBB1A96F3046FFF760FA41F28833A1
:104B3000984217D8002012E00B4B0C4A40F2E731A4
:104B40000B485CF0AFF80B4B084A4FF47A710848F9
:104B50005CF0A8F82846FFF7A8FF00E0002070BD31
:104B60000020FCE70A20FAE7387D06109C8006103A
:104B70004C7D0610C47D0610F0B587B008B30E4614
:104B800017460546C36D1BB303AA816D006D00F087
:104B900048FF0446072822D050B36CB9EB6D04934C
:104BA0009DF80C3003F0F003302B2AD03A4603A9CD
:104BB0002846FFF76FFD0446072C28D0204607B093
:104BC000F0BD144B144A40F20E5114485CF06AF8E0
:104BD000134B114A40F20F5110485CF063F81FB9B3
:104BE0000028E9D00446D8E72846FFF785FFF7E715
:104BF000009606AB13E90E002846FFF757FB044664
:104C0000CBE703A92846FFF7F9FD0446D4E70024C3
:104C1000D4E700BF387D0610AC8006104C7D06102E
:104C20009C7E06102DE9F04184B005460E461746DD
:104C30009846002403940294FFF7EBF9044628B148
:104C400064B1B4B1204604B0BDE8F08102AB03AA60
:104C50003946304600F05FFD0446F1E705F15C039C
:104C60000093039B42463946304600F06BFD0446F4
:104C7000E7E7029AE96D2846FFF7EEF9029B8342C7
:104C8000E0DD0324DEE730B583B000230193054661
:104C900060B101A800F025FE04464CB174B114B90E
:104CA000002385F86630204603B030BD0124F4E7C8
:104CB00005F15C0000F01CFE0446EFE7019AE96D87
:104CC0002846FFF7C9F9019B8342E8DD0324EAE7A0
:104CD0002DE9F0410F460646F0B1836E03B3C26D75
:104CE00012B398478046002586F874503C4600E091
:104CF0003C1A75B9012221463046FFF73DFF0546B3
:104D00000028F6D1B36E98474146FFF76FF9874206
:104D1000EED82846BDE8F0814FF000080125E5E710
:104D20004FF000080125E1E74FF000080125DDE71D
:104D3000034668B1B0F864004FF6FF72904203D0AA
:104D4000421CA3F8642070470122A3F86420704736
:104D500000207047B0B10346B1B1BAB100789028D5
:104D600001D001207047586890B110B49C68022CA3
:104D700010D9023008609B68023B136000205DF888
:104D8000044B704701207047012070470120704795
:104D9000012070470120F2E77F2807D9B0F5804F46
:104DA00006D3B0F5001F05D20320704701207047DD
:104DB00002207047042070472DE9F04182B0074679
:104DC0000E4600248DF80740A046012512E09DF80C
:104DD000073003F07F0305FB0344ED0108F10108F0
:104DE00001E04FF08054B4F1805F10D09DF907309E
:104DF000002B0CDAB5F5001FF3D801220DF10701E5
:104E00003046B8470128E2D04FF08054EBE7B4F1C8
:104E1000805F06D02046FFF7BFFF804501D04FF0EE
:104E20008054204602B0BDE8F08100F0F003602B12
:104E300022D006D9B02B28D014D9D02B1AD00020DC
:104E40007047402B1DD003D9502B09D0002070474C
:104E5000202B18D0302B01D0002070470120704744
:104E600001207047702B12D0902B01D0002070478A
:104E7000012070470120704710F0020F09D1002077
:104E800070470120704701207047012070470120C2
:104E900070470120704719B9824206D8084670470A
:104EA0000232824203D80020704705207047052057
:104EB000704738B5049D7DB11C4678B12B687BB135
:104EC00081B18AB12046FFF767FF204401306B684B
:104ED00083420BD3002000E0012038BD0120FCE715
:104EE0000120FAE70120F8E70120F6E70220F4E7C5
:104EF00008B560B90A4B0B4A40F2D9110A485BF079
:104F0000D1FE42F0800200F8012B7F2B06D901F080
:104F10007F020B46C9097F2BF5D9F2E708BD00BF18
:104F2000E480061050850610FC8006102DE9F04143
:104F300090469DF8182050B11F46864671B1B8F1D1
:104F4000000F12D0C3B10225002006461DE0214B00
:104F5000214A40F2F53121485BF0A4FE204B1E4A65
:104F600040F2F6311D485BF09DFE1E4B1A4A40F29E
:104F7000F7311A485BF096FE1B4B174A4FF47E71CF
:104F800016485BF08FFE01260130884211D200EBFB
:104F9000400C0EEB8C0CBCF8084063199D1C02B948
:104FA000DD1C002CEFD0DCF80430002BECD1012606
:104FB000EAE7B5F1805F09D24EB9C8F8005028463B
:104FC000FFF7EAFE013005443D6000E0012630466F
:104FD000BDE8F0817C81061020850610FC8006105B
:104FE00098810610B0810610CC8106102DE9F041A1
:104FF000E8B10F461646034601B332B30289901C4E
:10500000197801B1101D174C241AD3F81080A0454F
:1050100022D808EB00052846FFF7BEFE241AA0455B
:105020001DD83D60013028443060012015E00E4B52
:105030000E4A40F21E210E485BF034FE0D4B0B4A27
:1050400040F21F210A485BF02DFE0B4B074A4FF43C
:10505000087107485BF026FE0020BDE8F0810020C3
:10506000FBE700BFFEFFFF0F147F0610108606103F
:10507000FC800610B0810610CC81061008B581B105
:105080000B4610F0040F13D010F0020F19D10222BA
:105090000A7000F001025A70C0F3C000987000203E
:1050A00008BD094B094A40F24B3109485BF0FAFD53
:1050B00010F0020F02D001220A70EAE700220A7003
:1050C000E7E70520ECE700BF147F0610D085061047
:1050D000FC800610F8B5002830D00F46144606466E
:1050E000002932D0002A37D04568002D3BD0007807
:1050F000114600F00F00FFF7C1FF20B9032221780D
:10510000B068FFF7C8FE48B92B786A7842EA0322F4
:10511000228102322178B068FFF7BDFE50BB023514
:1051200065602389EA18217829B3E95C537843EA5A
:1051300001233B800232F3B905202AE0154B164AC1
:105140004FF49B6115485BF0ADFD154B124A40F2E0
:10515000D94112485BF0A6FD124B0F4A40F2DA41EA
:105160000E485BF09FFD104B0B4A40F2DB410B48B1
:105170005BF098FD002260B9B36821895B1A023B9D
:105180002361217809B1023B2361236903B900221D
:10519000E260F8BD887F0610E4850610FC800610EA
:1051A000E0810610147F0610F481061010B586B059
:1051B0008646EC46094C0FCCACE80F0094E803009F
:1051C0008CE80300BEF1050F01D806B010BD044BFA
:1051D000044A40F28B3104485BF064FDDC84061025
:1051E0001C820610A8850610FC80061010B538B188
:1051F00069B142688368022B10D00524204610BD97
:10520000154B164A40F2A13115485BF04BFD154B8A
:10521000124A40F2A23112485BF044FD137833F099
:10522000010001D00524E9E713F0010F05D00123A7
:105230000B7053781BB10524E0E700230B70547802
:10524000052C01D90524D9E72046FFF7AFFF002C34
:10525000D4D00624D2E700BF30820610BC850610E9
:10526000FC8006104482061008B521B184468E46A3
:10527000002318460AE00A4B0A4A40F241410A4814
:105280005BF010FD802A08D106200133634505D26A
:105290001EF80320022AF5D8F7E7052008BD00BF55
:1052A0005C82061080850610FC80061008B538B1B7
:1052B000034661B180685B6802280FD8052008BDED
:1052C0000C4B0D4A40F27A410C485BF0EBFC0C4B66
:1052D000094A40F27B4109485BF0E4FC93F800C0C6
:1052E0005A7842EA0C220A80991C0238FFF7BCFF68
:1052F000E5E700BF7482061094850610FC80061056
:105300008482061008B518B1836843B9002008BD2F
:10531000044B054A40F2565104485BF0C3FC05209B
:10532000F5E700BFA08206100C850610FC80061071
:1053300008B528B159B18268022A0FD0052008BDEE
:105340000C4B0D4A40F233510C485BF0ABFC0C4B5C
:10535000094A40F2345109485BF0A4FC43681A78CA
:105360005B7843EA02230B800BB10020E7E70520BE
:10537000E5E700BFB4820610F4840610FC80061036
:105380008482061038B558B11446120A027044706F
:10539000851C19B1224628465FF05AF8281938BDF5
:1053A000034B044A40F2FD1103485BF07BFC00BF55
:1053B000E480061040850610FC80061070B50028B9
:1053C00050D00E4611461D460446002B51D0186899
:1053D000002855D0102300F8013BFFF789FD042277
:1053E0003249FFF7CFFF04230370237803B1022370
:1053F000E2680AB143F0800362690AB143F04003F6
:10540000002E4AD043F00402317801293FD002290E
:1054100040D0737813B142F02002D2B24270638858
:105420001B0A8370A378C370228961680430FFF778
:10543000A9FF3EB132897168FFF7A4FF328AF16893
:10544000FFF7A0FFE16811B1228AFFF79BFF6169B6
:1054500011B1228BFFF796FF2B68C01A6B68984238
:105460001DD870BD124B134A40F26E5112485BF0CA
:1054700019FC124B0F4A40F26F510F485BF012FCBF
:105480000F4B0C4A4FF4AE610B485BF00BFC43F042
:105490000C02BEE743F01402BBE71A46BEE7094B15
:1054A000044A4FF4BB6104485BF0FCFB1483061014
:1054B000C482061068850610FC800610DC82061087
:1054C000F48206101C8306102DE9F0419DF8188027
:1054D000002836D017461E460546002B38D01868DF
:1054E00000283CD02B780BB1002A3FD0AA780AB113
:1054F000002B42D0012B47D0022B47D030236C78B1
:105500000CB143F001030AB143F0080300F8013B7A
:10551000FFF7EEFC2A896968FFF734FF04462B7811
:105520001BB13B0A0370477002342A6912B1B8F10B
:10553000000F2DD13368E41A73689C422FD8BDE860
:10554000F0811A4B1A4A40F272211A485BF0AAFB0A
:10555000194B174A40F2732116485BF0A3FB174B17
:10556000134A4FF41D7113485BF09CFB144B104A17
:1055700040F276210F485BF095FB124B0C4A4FF43A
:105580001E710C485BF08EFB3223B8E73423B6E77C
:10559000E96820465EF05CFF2B691C44CAE70A4BB1
:1055A000034A40F2C12103485BF07CFB147F0610E4
:1055B000F8850610FC800610DC820610F4820610C6
:1055C00064830610A48306101C83061040B370B5D4
:1055D00015461C4603462AB334B3068936B34068E1
:1055E00030B319B10869B0F5803F23D20C3621B130
:1055F0000A8909690A443244161DDA6812B11A8A06
:105600003244961C5A6912B11B8B33449E1C30469F
:10561000FFF7C2FB013030442E602060002002E022
:1056200001207047012070BD0120FCE70120FAE74E
:105630000120F8E70120F6E7E0B1F8B50E4615467F
:105640001C460746C3B11B68C3B109B14B68BBB167
:105650002846FFF7A1FB284401306368834201D24A
:1056600002200AE023462A4631463846FFF7A6FEC6
:10567000002002E0012070470120F8BD0120FCE776
:105680000120FAE778B184467AB183B109B90120E3
:10569000704700B583B0002000906046FFF746FCDD
:1056A00003B05DF804FB0120704701207047012022
:1056B00070472DE9F04383B004460D469046994665
:1056C0000A9F0097FFF7F5FB064618B1304603B076
:1056D000BDE8F0833868822300F8013B4946FFF7B4
:1056E00007FC4FEA1823037080F80180023000277E
:1056F0000EE007EB47034FEA830804EB83031A89A4
:105700005968FFF73FFE14F8083000F8013B0137F5
:10571000AF42EED3DAE778B184467AB183B109B902
:105720000120704700B583B0012000906046FFF76C
:10573000FDFB03B05DF804FB0120704701207047BA
:10574000012070472DE9F04383B006460D46904690
:1057500099460A9C0094FFF7ACFB074618B13846FF
:1057600003B0BDE8F0832068A22300F8013B49465E
:10577000FFF7BEFB4FEA1823037080F80180023068
:10578000002408E004EB440306EB83031A895968FC
:10579000FFF7F8FD0134AC42F4D3E0E778B108B587
:1057A000034671B17AB1406878B1188908B901200F
:1057B00008E01846FFF71AFC48B1002002E001207B
:1057C0007047012008BD0120FCE70120FAE7012015
:1057D000F8E72DE9F04383B004460F461646984695
:1057E00013B348B30A9B5BB3D8F8003063B3436884
:1057F00073B3038983B3037803B189B3236803F0D8
:10580000FF13B3F5803F2FD03046FFF7C5FA00EB0A
:1058100006092369A9EB030909F10109D8F8043045
:105820004B4531D3002502E04FF000090125FDB1C1
:10583000284603B0BDE8F0834FF000090125F6E7E4
:105840004FF000090125F2E74FF000090125EEE7CE
:105850004FF000090125EAE74FF000090125E6E7CE
:105860004FF000090125E2E74FF000090125DEE7CE
:105870000023009343463A4631462046FFF724FE74
:105880000A9BC3F80090D3E70225D1E7F8B103469D
:105890000068F0B110B45C68032C1CD9FAB162291D
:1058A0000AD005D8402907D0502905D0012013E09F
:1058B000702901D001200FE00170196802204870A2
:1058C0001968100A88701B68DA70002004E0012053
:1058D00070470120704702205DF8044B704701209B
:1058E000FAE718B1022202600020704701207047D9
:1058F000034668B102686AB14268012A0CD90020E7
:1059000058B91A68E02111701B6800225A7070475C
:105910000120F5E70120F3E70220704718B10222C9
:1059200002600020704701207047034668B102689A
:105930006AB14268012A0CD9002058B91A68C021FE
:1059400011701B6800225A7070470120F5E7012092
:10595000F3E70220704780B108B5034679B182B100
:10596000007800F0F000302801D0012008BD586810
:1059700048B11846FFF7AEFBF8E701207047012059
:10598000F4E70120F2E70120F0E7002847D008B54E
:10599000844669B19AB1DCF80430B3B19CF80030A8
:1059A000902B38D028D8202B30D014D2052008BD19
:1059B0000378202BEED0D02BECD00120F7E79CF819
:1059C0000030202BE7D10120F1E79CF80030D02BEC
:1059D000E4D00120EBE7622B08D003D9702B05D06F
:1059E0000520E4E7402B01D0502B03D16046FFF7A0
:1059F0009FFCDCE70520DAE7B02BF7D0D02B03D1F2
:105A00006046FFF77FFCD2E70520D0E711466046ED
:105A1000FFF7ECFBCBE76046FFF748FCC7E7012048
:105A2000704732B370B504460D4616460122314622
:105A30002846A0470346012807D00020012800D0AF
:105A4000ABB1012800D0042070BD3078FFF7EDF92C
:105A500008B90520F8E729462046FFF7ADF9B06000
:105A6000B0F1805F01D00020EEE70520ECE70720D1
:105A7000EAE700230120012800D023B1012801D04A
:105A80000420704770470720704707282AD8DFE8AE
:105A900000F0040F292929291F24012A01D0002000
:105AA0007047881EC0B201288CBF002001207047BB
:105AB000012B03D0022B06D000207047062914BF0B
:105AC000002001207047072914BF002001207047E3
:105AD000062914BF002001207047072914BF0020A9
:105AE00001207047002070470238072836D8DFE8C9
:105AF00000F00409291904240E2E0A2914BF0020DD
:105B000001207047082914BF002001207047052993
:105B100006D0082902D00021084670470121FBE782
:105B20000121F9E70A2906D0052902D000210846FB
:105B300070470121FBE70121F9E7042914BF002088
:105B400001207047092914BF00200120704709393E
:105B5000C9B201298CBF0020012070470020704786
:105B600002280BD003D9032803D000207047012856
:105B700008D8012914BF002001207047B1FA81F034
:105B8000400970470020704738B518B102460A2016
:105B9000002317E0134B144A40F2C51113485BF081
:105BA00081F80A280DD002EB800522F820409CF8ED
:105BB0000240AC709CF80340EC70002422F80E40C8
:105BC000013001338B420BD24FEA830E02EB830C80
:105BD00032F82340002CE4D10A28F2D11846F0E72D
:105BE00038BD00BF2C860610C88706103C860610FC
:105BF0002DE9F84372B105460F469946904683B1A8
:105C000001F18043013B30F823308BB97A1E3B46CB
:105C1000002614E0184B194A4FF4F97118485BF04C
:105C200041F8184B154A40F2F31115485BF03AF869
:105C3000FFF7AAFFEAE744451AD00126013A002AF5
:105C400007DB35F82240002CF5D1002EF6D11346A3
:105C5000F4E70220BB4209D205EB830225F823803A
:105C600082F802909DF82030D3700020BDE8F883C0
:105C70003B460920EEE700BFB8860610D88706101D
:105C80003C860610DC86061038B5049D6AB1844651
:105C9000964600202870884212D20CEB80043CF813
:105CA0002020724508D00130F5E7064B064A4FF434
:105CB000D67106485AF0F6FFA2781A70E3782B7076
:105CC00038BD00BFB8860610B88706103C8606109F
:105CD00008B520B153B1002320F8213008BD064B90
:105CE000064A40F22F2106485AF0DCFF00EB810CF7
:105CF0008CF80320F2E700BF2C860610948706106C
:105D00003C8606102DE9F04782B09DF828509DF89A
:105D10002C709DF8306090B1894690461C468246B2
:105D2000A2B1D5B12B46224631463846FFF7ADFE2B
:105D300058B3012C18D0B7421FD1002026E0154BD4
:105D4000154A4FF4397115485AF0ACFF144B124AFA
:105D500040F2E52111485AF0A5FF124B0E4A40F2DD
:105D6000E6210E485AF09EFF00962B4642460A2135
:105D70000AF12800FFF73CFF08E0002332464946BD
:105D80005046FFF7A5FF002000E0082002B0BDE864
:105D9000F08700BFEC860610A48706103C8606102C
:105DA000B8860610DC8606102DE9F04383B09DF816
:105DB000284090B10F4690461D4681460A2C15D0CA
:105DC000042C11D000231E4621462846FFF78CFEE6
:105DD00008B3AC420CD100201EE0114B114A40F236
:105DE000A72111485AF05EFF0123ECE70123EAE7FF
:105DF0003346224639464846FFF76AFF042C01D055
:105E0000002009E004230093022342460A21484669
:105E1000FFF7EEFE00E0082003B0BDE8F08300BF0E
:105E20002C860610848706103C86061010B5D0B16B
:105E30000446F9B12AB340F2D223194228D021F402
:105E4000347333F002032AD11368092B33D804EBDF
:105E5000830C9CF803E0012000FA0EF0884325D063
:105E600001331360F0E7154B154A40F247211548FE
:105E70005AF018FF144B124A4FF4127111485AF09D
:105E800011FF124B0E4A40F249210E485AF00AFF08
:105E90000F4B0B4A40F253210A485AF003FF0D4BB7
:105EA000074A4FF4157107485AF0FCFEBCF8000091
:105EB0000133136000E0002010BD00BFEC86061027
:105EC000788706103C86061004870610188706108F
:105ED0002887061050870610022A14BF00230123CA
:105EE000032803D8DFE800F0040A0D1000200CE0BE
:105EF000012A14BF002301230A2006E041B908202B
:105F000003E039B9092000E00A2003B900207047F6
:105F10000420FAE70520F8E710B582B004461046E1
:105F20005AB149B15CB10123009313460A460A21D4
:105F30002046FFF75DFE00E0012002B010BD012009
:105F4000FBE7012906D0022907D009B100207047DC
:105F50000A20704720B90620704718B907207047FB
:105F600002207047032070472DE9F04387B00E46AA
:105F700015461C4600238DF817308DF816308146E3
:105F800010B30E9B43B32CB94FF00A0883F800807E
:105F900020461CE021B31AB14FF00A08002016E099
:105FA0000DF1170300930DF116030A460A21FFF7BE
:105FB0006BFE80460A2817D09DF81630A34201D008
:105FC000012004E0284602E04FF00A08012004B155
:105FD00060B107B0BDE8F0834FF00A080120F6E792
:105FE0004FF00A080120F2E70120F0E72146284699
:105FF000FFF7A7FF074602909DF817300193009422
:106000002B46324641464846FFF77CFE0028E0D149
:106010000E9B1F70DDE72DE9F04184B004460F466A
:1060200015461E464FF000088DF80F8019461046A1
:10603000FFF796FD8DF80E809CB10A9BD3B1F7B1A6
:10604000032D21D800B928340DF10F0300930DF171
:106050000E033A460A212046FFF716FE8046052029
:1060600002E001204FF00A08B8F1090F11D904B07D
:10607000BDE8F0810A9C01204FF00A08F4E70120F6
:1060800000244FF00A08EFE7012000244FF00A082F
:10609000EAE79DF80E2031462846FFF71DFF05462A
:1060A00000909DF80F303A4641462046FFF77CFEAF
:1060B0000028DCD10A9B1D70D9E760B110B51446E9
:1060C00059B162B10A464FF40471FFF7AFFE38B11F
:1060D0000423237004E000207047002000E000202B
:1060E00010BD30B108B531B10A46C221FFF79EFE9E
:1060F00008BD002070470020FAE708B50B680BB117
:1061000048689847002008BD08B549F001FB08BD64
:1061100008B54AF0AFFA08BD2DE9F04188B09846BD
:1061200000238DF81F30002800F0C8800D46164669
:106130000446002900F0C48002930393049305935E
:106140000693036080F83030C36143608360C360AE
:1061500003614361836102AA042128684AF0BCF903
:106160000746A8B187B194F83030002B40F0A080EA
:10617000E06918B14AF012FC0023E361206818B10D
:106180004AF0E2F900232360384608B0BDE8F08108
:10619000AB88A38002AF0FCFA060E1602261636192
:1061A0003868A061002E60D0306910B17169002993
:1061B00037D1F06930B1316A21B1726A12B1B36A74
:1061C000002B47D1234603220121022049F062FB24
:1061D00007460028C6D1E3694BB1042200920D2284
:1061E0000321206849F0DAFB07460028BAD10123D1
:1061F00000930DF11F0310220321206849F0CEFB0C
:1062000007460028AED1B368002B38D0F268013AB7
:1062100000920E220321206849F0C0FB074670B3AC
:10622000A0E701394AF042FB074600289AD1012332
:1062300084F83030337E1BB902238DF81F30B8E765
:10624000012B03D001238DF81F30B2E700238DF816
:106250001F30AEE704F11C070097013B01394AF0FB
:1062600041FB07460028ADD07CE7234601221146BA
:10627000022049F00FFB074600287FF473AF039B11
:10628000E36004232372AB88A380B8F1000F05D02C
:10629000D8F800302362D8F8043063620E9B002BDC
:1062A0003FF460AF1B68A3620E9B5B68E36259E733
:1062B0004AF0F2FA002384F8303059E7014F63E7DF
:1062C000004F61E702002A0810B586B003910292E0
:1062D000002844D00446014651F8040B182249F026
:1062E000E1FE034610B1184606B010BD042300932A
:1062F00002AB00220121206849F050FB0346002830
:10630000F1D10423009303AB01221146206849F028
:1063100045FB03460028E6D1226A7AB1114B04936B
:1063200004F1200305930823009304AB0922012103
:10633000206849F033FB03460028D4D1A26A002A22
:10634000D1D0084B049304F128030593082200924E
:1063500004AB0121206849F021FB0346C3E7024B4F
:10636000C1E700BFFB60001002002A0830B108B589
:10637000006828B1002149F047FF08BD0148704777
:106380000020FAE702002A08D8B110B50446C06917
:1063900020B14AF003FB60B9E06100E0002094F80E
:1063A00030303BB9236823B118464AF0CDF80023BA
:1063B000236010BD4AF070FA0028FAD184F830004A
:1063C000F0E70148704700BF02002A0800B585B019
:1063D0004FF0FF330393A0B1B1B103AB009300239F
:1063E00000684AF005F828B1094A904206D04FF0FB
:1063F000FF330393039805B05DF804FB0023039378
:10640000F8E74FF0FF30F6E74FF0FF30F3E700BF5B
:106410000B002A0800B585B04FF0FF330393A0B1FD
:10642000B1B103AB00930023006849F073FF28B1BA
:10643000094A904206D04FF0FF330393039805B00A
:106440005DF804FB00230393F8E74FF0FF30F6E715
:106450004FF0FF30F3E700BF0B002A0800B583B010
:106460000023019301A8FDF7E1FC18B9019803B0DE
