:020000041000EA
:10000000002000081B0100100D0000007D01001001
:1000100000000000000000000000000000000000E0
:100020000000000000000000000000007901001046
:1000300000000000000000007901001079010010AC
:100040007901001079010010790100107901001088
:100050007901001079010010790100107901001078
:100060007901001079010010790100107901001068
:100070007901001079010010790100107901001058
:100080000448054B10B5834203D0044B002B00D02D
:10009000984710BD780300087803000800000000AE
:1000A00006480749091A8B10C90FC91810B549101D
:1000B00003D0044B002B00D0984710BD78030008F4
:1000C000780300080000000010B5074C2378002BCF
:1000D00009D1FFF7D5FF054B002B02D0044800E003
:1000E00000BF0123237010BDB00300080000000012
:1000F00094150010054B10B5002B03D0044905489A
:1001000000E000BFFFF7CCFF10BDC04600000000BC
:10011000B4030008941500107047FFF7FDFF72B696
:100120000F4C104DAC4209DA21686268A368043BA9
:1001300002DBC858D050FAE70C34F3E70A490B4AFF
:100140000020521A02DD043A8850FCDC08480949B4
:100150000860BFF34F8F00F06FF800F01DF8FEE766
:10016000A0150010B8150010B0030008C80500085D
:100170000000000808ED00E0FEE7FEE700B50420FF
:100180007146084202D0EFF3098002E0EFF30880E5
:10019000043000F0BBFDFEE710B562B6034800F086
:1001A000C3F8002000F0BAFEFBE7C04600200010B4
:1001B00010B5002000F090FA10BD704770B5002017
:1001C00000F0EEFC041E28D0144B186000F064FB15
:1001D000411C200000F080FF114B0400186000F06B
:1001E0004DFB411C200000F077FF04000D4B013C4B
:1001F00018600D49200000F06FFFFA210B4D01300F
:1002000028708900200000F067FF094D0130286048
:10021000002000F0C5FC074B186070BD8800000886
:100220008C0000088000000840420F009400000885
:10023000900000088400000810B5204800F0ACF8D9
:10024000B022E02130201E4CD200A35889005B0070
:100250005B08A35063588343635080235B04A3501F
:10026000184B194AE250A02204339201E250FF22B7
:10027000164BE25000F014FFC02201215200A35897
:100280008B43A350FFF799FFFFF798FF104B032014
:100290001A681300BA33198807234B43126A802166
:1002A0009B180022DA605A600A4A00F05FFA0A4896
:1002B00000F022F9094800F05BF910BDD4140010D9
:1002C0000000264084050000010002008C050000AB
:1002D0004C05000878030008CC030008A0140010A7
:1002E0009023034A5B01D058032318407047C0464F
:1002F0000000204010B5902400F047F8074B64013F
:100300001959074A1140074A0A431A5110225968DD
:100310001142FCD000F03DF810BDC0460000204066
:10032000FCFF00000100FA05F8B590260E4C76019E
:10033000070000F02AF8A3590500DB439B0701D111
:10034000FFF7D8FF80239B00E750A259074B1A40C4
:10035000074B1343A351102362681A42FCD02800B4
:1003600000F017F8F8BDC04600002040FCFF000078
:100370000300FA05000000000230800803D00130BD
:100380000238FCD1C046C0467047EFF3108072B609
:10039000704780F310887047014B18607047C04663
:1003A0004C050008044B1B681A00BA3212881B6AFD
:1003B0005043C0187047C0464C050008A02300B544
:1003C0001B06984226D015D8802825D00AD8102898
:1003D00024D0402824D000280BD0154809E0A420C0
:1003E000C00306E08022134B520090421CD098427A
:1003F000F3D100BD104B984218D0104BC018042800
:10040000EBD800F05FFEECEA0F0305000C48F0E7C4
:100410000C48EEE70020ECE70B48EAE70B48E8E77A
:100420000B48E6E70B48E4E71800E2E7A020D7E72F
:10043000FF00520006005200090000A0FFFFFF0F5E
:10044000020052000300520005005200010050005B
:10045000020050000100520010B50020FFF7A2FF7B
:100460000A4B1C682300BC331B68C0180368002BB0
:100470000ADB074B1868FFF7A1FF012263689A6047
:100480009A68002AFCD110BD0248FCE74C05000820
:100490005005000802005000064B1B68BC331B6867
:1004A000C3181B68002B03DA89B241600020704733
:1004B0000148FCE74C05000801008A000368002B96
:1004C00004DA89B2C2608160002070470048FCE70E
:1004D00001008A00064B1B68BC331B68C3181B68ED
:1004E000002B03DAC36800200B6070470148FCE76B
:1004F0004C05000801008A00024B1A68002A00D14E
:100500001860704764050008F0B52C24154E44436C
:1005100030681F000019FF241E0A26402740124C95
:100520001B0C256807602C6A46608360BA352D88ED
:100530006F433F190761370080377F01E7190B4D83
:1005400076014761A4191F043B436419236000230B
:100550008361059BC2610162002B01D01B888381EE
:10056000F0BDC046640500084C05000808100000F6
:10057000F0B50400236987B0026841680393A3685B
:1005800004AD1732C0682B806A80039BA26A059174
:100590000095E16A266A676AFFF7B6FF00213B0013
:1005A0000A0030000091FFF7AFFF2800216B00F038
:1005B00077FB0022AB5E002B06DB1F2213401E3AA6
:1005C0009A401300014A136007B0F0BD00E100E05B
:1005D000F0B585B003931B4B16001C682C235843C1
:1005E0004B4320180769E418002F27D0A569002D78
:1005F00026D13B68002B23DA134B1B6834331B785E
:100600000193436801996068029300F0EBFD0122B9
:100610008A40336812049BB2134333600123FE60A7
:10062000A361039B01996362029800F0DBFD012343
:100630008B409BB2BB60280005B0F0BD034DFAE7CC
:10064000034DF8E7640500084C05000804028A0021
:1006500007028A0073B5002642690400D568019636
:100660002B0CB34221D01B0413601368194B006993
:100670001B68BC331B68C3181B68B34215DA01A999
:10068000FFF728FFB0420CD10198E26903681E0C05
:10069000DBB29A4205D9226A9B009B58002B00D0FE
:1006A000984731002069FFF7F7FEADB2002D09D061
:1006B00063691D6000251B68636AAB4205D09847DB
:1006C0006562A56163691B6873BDA36A002BF8D0DE
:1006D0009847F6E74C0500082C2310B54343034A1E
:1006E0001068C018FFF7B6FF10BDC04664050008CB
:1006F0001A4B70B51A680C00130033331B78834211
:100700002AD9002928D00D681F212B000B400D424B
:1007100022D11100BA310988126A48431900104DDC
:100720008018286022685209934210D30021FFF7F5
:10073000B3FE002122002868FFF7C0FE011E04D18D
:100740002868FFF7A9FE002800D0064870BD62683F
:100750009E00B1500133E5E70348F7E74C05000878
:100760006805000801018A0003018A000B0010B52A
:10077000002A0DD1002914D10B4A0C4C11680A0033
:10078000BA321288096A424352182260180010BD1A
:10079000002906D006490B604A60FFF7A9FF030055
:1007A000F4E7044BF2E7C0464C0500086805000872
:1007B0008803000803018A00F7B51B4F04003B685B
:1007C0000E00002B2BD0DB681A68824229D9002545
:1007D0005B680193A94202D1FFF7D7FD0500386895
:1007E0000368002B19DA1F23012223409A40640971
:1007F000019BA4001C1921680A420CD0914321607E
:1008000000240021FFF748FE002E02D12800FFF748
:10081000C0FD2000FEBD054CF3E7054CF4E7034C9A
:10082000F7E7044CF5E7C0466805000802018800B8
:100830000301880004018A000C4B1B68002B11D0B7
:10084000DB681A6882420FD959681F234209184091
:100850001E3B8340920050581840431E9841044B61
:10086000C01870470348FCE70348FAE7680500082A
:10087000000188000201880004018A00054B1B6802
:100880001A0088321B6812689B181868000AC0B2E8
:100890007047C0464C050008044B1B681A0088329C
:1008A0001B6812689B181868000E70474C050008FA
:1008B000034BE0308000C0588006800F7047C04670
:1008C00000002640024B18694007C00F7047C04621
:1008D00000002740A6220549D2008B580220DB43A6
:1008E0009B0702D00123885818407047000026401B
:1008F00010B5FFF7EFFF0023022801D1014B1B6861
:10090000180010BD70050008084A83009B18D0220B
:100910009200985807221040042806D1C022920065
:100920009B581F22FC30134018437047000026409C
:1009300010B5FFF7E9FF88235B0098421CD00BD865
:10094000012813D0022814D0431E9841104B404276
:100950001840104BC01810BD1223FF33984210D01E
:100960001423FF33984210D00020F4E70A4B186894
:10097000F1E7FFF7BDFFEEE7084A094BD058C00F7B
:1009800001E0FFF79FFFC003E5E7044A054BF5E7E9
:1009900000EE85FF00127A006C050008000026407A
:1009A0000C0500003C050000B023154ADB00D358BD
:1009B00010B59903DB01DB0F890BC371114B01608B
:1009C000D3580F24D904DB01DB0D0381B123DB00F5
:1009D000D358C90C81801900214081721909214026
:1009E000C172D9029B009B0F8373074BC90CD3586C
:1009F00081815A05DB01520FDB0D8271038210BD2C
:100A000000002640840500008C0500008030034B68
:100A1000FF308000C058C00F7047C046000026401D
:100A20000F4B421E1B683F331B78934216D9803010
:100A30007F220C4BFF308000C3581F201A400A70E1
:100A40001A0A02404A701A0C02408A701A01C24007
:100A500000209B009B0FCA700B7170470248FCE797
:100A60004C0500080000264001004A00F0B589B09E
:100A700003AD2800FFF798FFB0230026164ADB00DD
:100A8000D358B34224DAAB7B022B21D0AC88B442DA
:100A90001ED03000ED79039FFFF74AFF220033009C
:100AA00031000190681C00F0C3FB0C00050033000E
:100AB0003A003100019800F0BBFBE6076A083243B8
:100AC0006308801859412A00230000F091FB0600BA
:100AD000300009B0F0BDC04600002640F7B5234BFA
:100AE00006001B683F331B78002B08D000283BD042
:100AF000834204D36946FFF793FF041E01D000260A
:100B000032E03000FFF782FF2300002805D06B465B
:100B10001C79023C23005A1E93416A461778547888
:100B20009578002BEBD0002CE9D0002DE7D03000D9
:100B3000FFF7FEFE002306002A002000190000F047
:100B400077FB00230C0005003A003000190000F08C
:100B50006FFBE6076A0832436308801859412A0090
:100B6000230000F045FB06003000FEBD4C050008E8
:100B700010B5041E04D1FFF779FF002806D008E065
:100B8000064B1B683F331B78834203D22000FFF7DC
:100B9000CFFE10BDFFF7A2FFEFE7C0464C050008EF
:100BA00070B50500FFF784FEE035074BAD0004008B
:100BB000E8580F231840FFF7DBFF0123A3405B0831
:100BC0001818E04070BDC0460000264030B5FF2533
:100BD00003242A000440E400A24089012940D243B2
:100BE000A14083B200280ADBC0240B4B80088000A0
:100BF000C018A400035913400B43035130BD0F200C
:100C00000340083B05489B089B001B18D86902401D
:100C10000A43DA61F2E7C04600E100E000ED00E0DF
:100C2000144B30B51B6807241A002C3212781F2A87
:100C300015D882081500A5432C1E0FD1033420407F
:100C4000A04081401B68920020339B180A00FF21BE
:100C500081401C68624011406140196030BD1A68D3
:100C6000802320401B06034380208001091889004F
:100C70008B50F3E74C050008064B10B59A68064CFC
:100C800010308300A24202D19858995010BD034AF7
:100C9000D058FBE700ED00E0000000080000001065
:100CA000F7B504000E00002801D1144C17E0002312
:100CB000C55E134B4188134F0193002D11DB2800B3
:100CC000FFF7AEFF61682800FFF780FFBB68019A5D
:100CD0000024934203D131002800FFF7CDFF20000C
:100CE000FEBD08B26168FFF771FFBB68019A9342CD
:100CF000DBD131002800FFF7BFFFD6E70100560027
:100D00000000000800ED00E0FEE7000002680A4B6A
:100D100010B51A6042685A6082689A60C268DA60E8
:100D200002691A6142695A6182699A61C269DA612B
:100D3000FFF7EAFF10BDC04690030008B0235B0533
:100D40005A782120002A01D05878C0B27047B023C9
:100D50005B059A89002A02D0988980B2704780206A
:100D60004000FBE7254B73B586000D00F4580429BD
:100D700001D0012925D100200EE0A3682B420AD121
:100D8000E36829001A685B6868460193009223684B
:100D900098471B4B1C606469002C0AD0194B984281
:100DA000EBD1012DE9D1164A174B126815489A511B
:100DB00076BD012DFCD1134B9842F4D0124B9C51BF
:100DC000F6E7022914D026006469002CFBD100202C
:100DD000002EEDD0B3682B4208D1F36829001A68C1
:100DE0005B68684601930092336898473669EFE77D
:100DF000034B1B68181EDBD01E69E8E7B40500082A
:100E0000B0050008FF0042009C0500081A4B1B6853
:100E1000190088311A6809685118096801621900B7
:100E20008C3109685218126842621A0046321278F0
:100E3000002A1FD09A68E0321268D2061AD5F22230
:100E4000DB68D2019A580260F022D2019A584260BF
:100E50000A4A9A5882600A4A9A58C260094A9A58BD
:100E60000261094A9A584261084A9A588261084ABE
:100E70009B58C3617047C0464C05000804780000C9
:100E8000087800000C78000010780000147800004A
:100E9000187800001A4B1B681900883109681A6815
:100EA0005218016A116019008C3109681A685218C9
:100EB000416A11601A0046321278002A1ED09A68E0
:100EC000E0321268D20619D5F0224168DB68D201FF
:100ED000995081680B4A9950C1680B4A9950016931
:100EE0000A4A995041690A4A99508169094A9950B8
:100EF000C169094A99500168E83299507047C04663
:100F00004C05000804780000087800000C78000008
:100F1000107800001478000018780000F7B505007C
:100F2000FFF70CFF564F01907B68002B00D06FE05D
:100F3000FFF72BFA7B680090002B00D07CE0514B30
:100F400007271C682300BA331B885F43236AFB18FA
:100F50001A68002AFCDADB68DA001ED51B0F4A4843
:100F60001E07FFF753FF22008832126823684749A3
:100F70009B181A6801980A40212862D1902000012C
:100F800002431A6022008C32126823689B181A6888
:100F90000A40104318603C4B3343802292051343B0
:100FA000226A0024BF18FB607C607B68FFF7CFFEDD
:100FB0008023344F5B00984246D1280000F068FA45
:100FC0003F6807223B00BA331E883B6A5643F3183A
:100FD0001A68002AFCDADD68EB0003D52801000955
:100FE000FFF758FF00222A4B00981D403B6AF31878
:100FF000DD605A60FFF7CDF9002C10D1204B5B6803
:10100000002B03D008210120FFF7ACFE2000FEBD1D
:1010100001210800FFF7A6FE041E00D188E7184B47
:101020005B68002B03D002210120FFF79BFE194BC8
:101030009C42EBD0184CE9E704210120FFF792FE17
:101040007DE7802040009BE73B681A00BC32196AAC
:10105000126852181168002910DBBA331B889B18DC
:101060001B68002B0ADB04230C4A11690B43136134
:10107000012D01D030BFA3E720BFA1E7054C9FE7BA
:10108000B40500084C05000874050008FF00FFFFC8
:10109000FFFFFFDF05004200FF00420000ED00E01F
:1010A000C0228020064952008B58C0059B009B0837
:1010B00003438B50802388581B0603438B50704793
:1010C0000000264002B4714649084900095649000B
:1010D0008E4402BC7047C046002243088B4274D342
:1010E00003098B425FD3030A8B4244D3030B8B4229
:1010F00028D3030C8B420DD3FF22090212BA030C32
:101100008B4202D31212090265D0030B8B4219D312
:1011100000E0090AC30B8B4201D3CB03C01A524132
:10112000830B8B4201D38B03C01A5241430B8B427A
:1011300001D34B03C01A5241030B8B4201D30B0363
:10114000C01A5241C30A8B4201D3CB02C01A52418A
:10115000830A8B4201D38B02C01A5241430A8B424D
:1011600001D34B02C01A5241030A8B4201D30B0236
:10117000C01A5241CDD2C3098B4201D3CB01C01A50
:10118000524183098B4201D38B01C01A524143095A
:101190008B4201D34B01C01A524103098B4201D348
:1011A0000B01C01A5241C3088B4201D3CB00C01AB5
:1011B000524183088B4201D38B00C01A524143082D
:1011C0008B4201D34B00C01A5241411A00D2014652
:1011D000524110467047FFE701B5002000F006F8C5
:1011E00002BDC0460029F7D076E770477047C04679
:1011F000002B11D1002A0FD1002900D1002802D0E4
:101200000021C943080007B4024802A14018029017
:1012100003BDC046D9FFFFFF03B4684601B502987D
:1012200000F034F8019B9E4602B00CBC7047C046EB
:10123000F0B5CE469946030C9C46130447461B0C5A
:101240001D000E0061460404240C80B50700100C3C
:101250004B436543414360432C0CC01820188C4617
:10126000834203D980235B029846C44449467943AC
:101270005643030C2D042D0C8919634400044019B6
:10128000C918C0BCB946B046F0BDC046F0B5574617
:101290004E464546DE46E0B504000D0092469946AE
:1012A00083B08B4230D82DD04946504600F0D8F854
:1012B00029000600200000F0D3F8331A9846203B9E
:1012C00034D49B4653465A46934042461F005346E9
:1012D00093401E00AF423BD8AF4200D179E05B465D
:1012E000A41BBD41002B00DA76E00022002300920F
:1012F000019301235A4693400193012342469340B0
:10130000009329E08242CFD900220023009201936A
:101310000C9B002B01D01C605D600098019903B00C
:10132000F0BCBB46B246A946A046F0BD42469B462D
:1013300020239B1A5246DA40414613004A468A400F
:10134000170042461F43534693401E00AF42C3D985
:1013500000220023009201934346002BD8D0FB07C4
:1013600072081A4346467B080EE0AB4201D1A24206
:101370000CD8A41A9D41012024196D410021013E81
:1013800024184D41002E06D0AB42EED9013E24195F
:101390006D41002EF8D1009801995B460019694112
:1013A000002B24DB2B005A464446D3402A00E2405F
:1013B0001C005B461500002B2ADB26009E403300F4
:1013C00026004746BE403200801A994100900191A4
:1013D0009EE7A342BCD882E74246202300219B1A05
:1013E0000022009101920122DA40019285E74246F3
:1013F00020239B1A2A0046469A402300F340444685
:1014000013432A00E2401C005B461500002BD4DA8F
:1014100042462F002023260097409B1ADE403B00C7
:101420003343CDE71C2101231B04984201D3000C58
:1014300010391B0A984201D3000A08391B09984247
:1014400001D30009043902A2105C40187047C0465D
:10145000040302020101010100000000000000007D
:1014600010B5002903D1FFF7DDFF203002E00800AE
:10147000FFF7D8FF10BDC046F8B5C046F8BC08BCA1
:101480009E467047F8B5C046F8BC08BC9E467047FB
:1014900001B40248844601BC604700BF65020008F1
:1014A0000300000001000000010000000000000037
:1014B00005036000040000000100000000000000BF
:1014C0000100000006046000080000002C05000870
:1014D000B101001000002040000024400000004046
:1014E00000000000000023400000304000003140B8
:1014F00000009F40000022400000104000009D407E
:101500002020202020101010101D1D8017007500B5
:10151000FF03060206003604102000007FC0000012
:1015200000040000000000000019324B647D000040
:10153000000000804000080B100000000000FF01C8
:101540002002001F00800004FF0810180010001483
:101550000018001C4044484C5000000008100000D7
:101560000800000004000000041000000012000049
:10157000042100000021000000160000401140027C
:10158000C41300138013A01340138813A813200062
:101590001C00000000000000F4FCFF7F01000000C0
:1015A000000000100000000880000000C0150010BE
:1015B00080000008F8020000B003000818020000D4
:1015C00000093D0000093D0000127A0000093D00BD
:1015D000A00F000004000000F5000010C90000107A
:1015E00080B230B5C400002820D0114B1868030029
:1015F000BA331A8807235343026A9A1811680029DC
:10160000FCDA3E210B4A062511600B4A0B4911609A
:10161000A3210B4AC90055500A495450006A545836
:101620001B18002058605358002BFCDA30BDC04610
:101630004C05000804012640080126401E1F00003A
:10164000000026401C05000010B54378FF2B11D187
:1016500000F00AF90400032000F026F90121C36814
:101660005B681A680A431A601A680A42FCD12000B3
:1016700000F0E2F810BDF7B507000020019100F07E
:1016800013F93F4C050023681A005033BC3216682A
:101690001B788619002B5CD000F0EEF80090032830
:1016A00018D000F0E1F80400364A374BD158002931
:1016B000FCDAD358002B37DB344D009B032B05D1CC
:1016C0000121002000F0E8F80028F9D1200000F006
:1016D000B3F80AE0062000F0E7F82368BC331B6883
:1016E000C0180368002B02DA284D2800FEBD002038
:1016F00000F09AF8264B9842F6D00023254A1900AC
:101700000120126800F0A0F8041EEDD1002000F0C6
:101710008BF81F4A204B904203D09C42E4D0013406
:10172000F4E79C42BDD1DFE7012128001B4A00F00D
:1017300093F80028C0D10198FFF752FF002F06D080
:101740003368002BFCDB00F09FF80500B5E7144D73
:10175000B3E700F089F801210400104A280000F0E6
:101760007BF8002808D1002F08D03368002BFCDB61
:1017700000F08AF80500A9E7044DA7E7084DA5E7A2
:101780004C050008000026401C0500000500520022
:101790000101880060050008F049020050050008BA
:1017A00001005000184BF7B51B6818495A6804230C
:1017B0000C6923430B61012824D030BF1300FC3394
:1017C0001B69002B1DD1A324114B12481249E400C0
:1017D00007681E590D680195104D056006251D51BD
:1017E0003E240C600E4C3E351D511D59002DFCDA77
:1017F0000C4CFC321461A322D20007609E50019B66
:101800000B60F7BD20BFD9E74C05000800ED00E0F4
:101810000000264008012640040126401E1F00004B
:101820001C050000AAAAAAAA01B40248844601BC69
:10183000604700BF3908001001B40248844601BC6B
:10184000604700BF9303001001B40248844601BC06
:10185000604700BFD105001001B40248844601BCB6
:10186000604700BFBD04001001B40248844601BCBB
:10187000604700BF8B03001001B40248844601BCDE
:10188000604700BFE102001001B40248844601BC79
:10189000604700BF5904001001B40248844601BCEF
:1018A000604700BFB907001001B40248844601BC7C
:1018B000604700BFA503001000000000000000000A
:1018C0000000000000000000000000000000000018
:1020000000F80F08712300100D000000E5230010F8
:10201000E5230010E5230010E52300100000000078
:1020200000000000000000000000000021A50010DA
:10203000E123001000000000C1A50010C9A4001099
:10204000E1230010E1230010E1230010E123001040
:10205000E1230010E1230010E1230010E123001030
:10206000E1230010E1230010E1230010E123001020
:10207000E1230010E1230010E1230010E123001010
:1022E0000348044B834202D0034B03B118477047A5
:1022F000102C0008102C0008000000000548064BB8
:102300001B1AD90F01EBA301491002D0034B03B1F3
:1023100018477047102C0008102C0008000000001F
:1023200010B5064C237843B9FFF7DAFF044B13B11D
:102330000448AFF300800123237010BD002D000876
:1023400000000000941B101008B5054B1BB1054997
:102350000548AFF30080BDE80840FFF7CFBF00BFDE
:1023600000000000042D0008941B101070477047F7
:10237000FFF7FCFF72B6144C144DAC4209DA216829
:102380006268A368043BA2BFC858D050FAE70C3477
:10239000F3E70F490F4A00209142BCBF41F8040BFC
:1023A000FAE70D480D490860BFF34F8F00F084F83D
:1023B00000F068F807F092F877F05EFF01F054F94A
:1023C00077F07EFFFEE70000A01B1010B81B101076
:1023D000002D0008A81F01080020000808ED00E0FB
:1023E000FEE7FEE700B504207146084202D0EFF395
:1023F000098002E0EFF30880043050F0E5FDFEE7CD
:1024000008B501204AF046FF08BD704710B500200E
:1024100050F086FC00B910BD0446124B18604FF016
:10242000DDFB0130B4FBF0F00F4B18604FF0EEFB1A
:102430000130B4FBF0F40D4B1C60013C0C4BA3FBD2
:1024400004239B0C01330B4A13700B4BA3FB043486
:10245000A4090134094B1C60002050F061FC084BBA
:102460001860D8E70423000808230008FC220008AD
:1024700083DE1B4310230008D34D62100C23000899
:102480000023000808B5094848F0A4F8FFF7BDFF8D
:10249000FFF7BCFF0022114603204AF057FF044813
:1024A0004AF09AFD03484AF0F9FD08BD904609102C
:1024B0001C2D000834D10710EFF3108172B6074AC3
:1024C000D2F8883043F47003C2F88830BFF34F8FDE
:1024D000BFF36F8F81F31088704700BF00ED00E0FD
:1024E00008B500F013F900F00FF800F005F900F05E
:1024F0006BF800F07DF808BD08B500F049F800F071
:102500006FF800F09DF808BD08B5002101204FF0DC
:10251000F1F90922002101204FF05EF8002101208D
:102520004FF0A6F90F2101204FF0E4F900220F210E
:1025300001204FF051F80F2101204FF099F90021AF
:1025400008464FF0D7F9FF22002108464FF044F823
:10255000002108464FF08CF9012100204FF0CAF904
:102560001F22012100204FF037F8012100204FF0F9
:102570007FF9072100204FF0BDF900220721104606
:102580004FF02AF8072100204FF072F908BD000033
:1025900008B5084842F07AFF074842F077FF07483D
:1025A00042F074FF064842F071FF064842F06EFFA9
:1025B00008BD00BF98D107109CD1071090D107101B
:1025C000A0D1071094D1071008B5002211462F2082
:1025D0004FF012F90022012103204FF00DF908BD40
:1025E00008B5024842F052FF08BD00BFB8D107103D
:1025F00010B50D4C0D4A002120464AF0F7FB0C4A5D
:10260000012120464AF0F2FB0A4A042120464AF002
:10261000EDFB094A062120464AF0E8FB074A07215C
:1026200020464AF0E3FB10BD00033140E8D107101B
:1026300020D20710C8D2071090D2071058D2071026
:1026400008B51B4842F022FF1A4842F01FFF1A4803
:1026500042F01CFF194842F019FF194842F016FFDA
:10266000184842F013FF184842F010FF174842F094
:102670000DFF174842F00AFF164842F007FF1648C0
:1026800042F004FF154842F001FF154842F0FEFEFB
:10269000144842F0FBFE144842F0F8FE134842F0A2
:1026A000F5FE134842F0F2FE124842F0EFFE08BD7C
:1026B00000D3071004D30710E4D107101CD2071071
:1026C00054D20710FCD20710C4D207108CD20710C6
:1026D000BCD10710C0D10710C4D10710C8D1071052
:1026E000CCD10710D0D10710D4D10710D8D1071002
:1026F000DCD10710E0D10710024B33229A601A6137
:10270000704700BF00203040FEE7000030B583B0C6
:102710000722002132204FF06FF89621002050F060
:10272000A5FC50F035FCC0B9784BD3F8004F04F04D
:102730003F0450F01DFC30B1012050F00FFC744BF1
:102740009B6C002B26DB714BC3F8004F4FF054FB02
:102750004FF040FB01204FF063FB012051F060F986
:1027600051F006F951F0E0F951F0CAF94FF086FC4A
:10277000002108464FF0CEFA00204FF039FA012030
:102780004FF01EFA00204FF031F9624B1B6893F8AE
:10279000434006E00620FFF7B7FF20464FF056FF04
:1027A000013C002CF9D1002101204FF0B3FB0020A7
:1027B0004FF09EFA002800F08E80002108464FF06E
:1027C000A9FB002108464FF073FA534D00240094F2
:1027D00023462246214628464AF008FA009423461A
:1027E0002246012128464AF001FA4C484FF0CCFA23
:1027F00000287CD101204FF0CBF900204FF0F8F9F0
:1028000000204FF0DDF900204FF0F0F8002101200A
:102810004FF080FB002108464FF07CFB0021022096
:102820004FF078FB002103204FF074FB00210420BF
:102830004FF070FB002105204FF06CFB38484FF043
:1028400037FC002856D137484FF08EFE002854D16F
:10285000002108464FF02CFA002108464FF05AFAA2
:10286000314901204FF018FF002849D142F2107180
:10287000012050F039F8002845D100204FF020F910
:102880004FF0A8FA01204FF0CBFA6421002050F05D
:10289000EDFBFFF7BBFD254842F0F8FD00B101BE9E
:1028A000234842F0F3FD00B101BE224842F0EEFDA4
:1028B00000B101BE204842F0E9FD00B101BE1F4851
:1028C00042F0E4FD00B101BE1D4842F0DFFD00B161
:1028D00001BE03B030BD4FF04BFB40F211139842E4
:1028E0007FF46BAF012100204FF0E2F965E705208E
:1028F000FFF70AFF0420FFF707FF0420FFF704FF9C
:102900000320FFF701FF0320FFF7FEFE00F0274042
:1029100000002740E01101080000314040420F0054
:1029200008D30710400D030034D307101CD3071041
:1029300020D3071024D3071028D307102CD3071057
:1029400030D3071008B5044850F012FD08B100203C
:1029500008BD0248FCE700BF14230008000002067F
:1029600010B542F091FD044638B154B1FFF7B8FDFF
:10297000FFF7C2FD5CB1204610BD45F099FD04464D
:10298000F3E740F6E441002045F076FEEEE7FFF77E
:10299000D9FF0446EFE7000010B5054C054A06498B
:1029A00020464CF021F8236843F00043236010BD1B
:1029B00000006340A42E0008A4D1071003680BB9DF
:1029C00001207047002070472DE9F04383B0814615
:1029D000884617461E469DF82850224B00936423D4
:1029E0000022014620484CF0BBF8F8B128B11F4B3B
:1029F000984202D0013B984208D11A4B00936423BD
:102A00000122494618484CF011F948B303B0BDE81B
:102A1000F083144B642218F8041013484CF0DAF9D0
:102A200001340028E2D1A742F3D8DFE70446F8E7F3
:102A3000691E0C4B009364233219A14214BF00217C
:102A4000012109484CF07AF9013408B9A542EFD8C0
:102A50000028DBD1034A642103484CF043F9D5E751
:102A60000446F2E7A42E0008000063400520AA00F7
:102A700070B582B00E4615460E4B009364230022BB
:102A800001460D484CF06CF890B10A4A64210A489E
:102A90004CF028F902B070BD064B6422315D064847
:102AA0004CF098F901340028EFD1A542F4D8ECE7B6
:102AB0000446F8E7A42E0008000063400000000070
:102AC00010B584B0044641238DF8083002230093EA
:102AD00003AB012202A96820FFF776FF9DF80C30B6
:102AE0001B021BB29DF80D00184373F017FB002268
:102AF000094B73F0A7FC06A3D3E9002373F0C2F9D6
:102B000073F026FE206004B010BD00BFAFF300805C
:102B1000A4703D0AD74342400040754000B587B0DD
:102B200040F26B13ADF80C306B238DF808300122A6
:102B3000009204AB02A96820FFF746FF05909DF8BC
:102B4000103013F0400F05D105A8FFF737FF07B08D
:102B50005DF804FB022203A96820FFF789FF0590B6
:102B600019238DF80C3007228DF80D208DF80830D0
:102B7000022203A96820FFF77BFF0590E4E700002D
:102B80002DE9F04387B006460D4690461F463B238D
:102B90008DF808300623009304AB012202A96820B7
:102BA000FFF712FF03909DF810C04FEA0C2C0FFAAC
:102BB0008CFC9DF811009DF812904FEA09290FFA3C
:102BC00089F99DF8133049EA03099DF8144024025D
:102BD00024B29DF815301C434CEA000073F09EFAB5
:102BE00000221D4B73F004FB73F0B2FD30604846C9
:102BF00073F094FA0022184B73F0FAFA73F0A8FD00
:102C00002860204673F08AFA0022134B73F0F0FA22
:102C100073F09EFD07EE900AC8F8000096ED007A6A
:102C200027EE077AD5ED006A66EEA66A37EE267AB9
:102C300067EEA77A77EE277A17EE900A73F080FA9C
:102C400073F00EF873F084FD386003A8FFF7B6FE4A
:102C500007B0BDE8F08300BF0000103F0000000097
:102C60002DE9F04387B080460F4616469946432328
:102C70008DF808300623009303AB012202A96820D7
:102C8000FFF7A2FE05909DF80CC04FEA0C2C0FFA3E
:102C90008CFC9DF80D009DF80E502D022DB29DF874
:102CA0000F301D439DF81040240224B29DF81130CE
:102CB0001C434CEA000073F031FA42A3D3E900232D
:102CC00073F0C0FB73F044FDC8F80000284673F0B1
:102CD00025FA3CA3D3E9002373F0B4FB73F038FD6D
:102CE0003860204673F01AFA36A3D3E9002373F054
:102CF000A9FB73F02DFD3060D8ED007AB1EE047AB7
:102D0000F4EEC77AF1EE10FA09D5B9EE047AF4EED2
:102D1000C77AF1EE10FA02DD0023C8F80030D7EDD3
:102D2000007AB1EE047AF4EEC77AF1EE10FA08D523
:102D3000B9EE047AF4EEC77AF1EE10FA01DD002361
:102D40003B60D6ED007AB1EE047AF4EEC77AF1EE8C
:102D500010FA08D5B9EE047AF4EEC77AF1EE10FA5B
:102D600001DD00233360D8ED007A134B93ED007A38
:102D700077EE877AC3ED007AD7ED006A0F4A92EDBD
:102D8000007A37EE267A82ED007AD6ED006A0C4B97
:102D900093ED007A37EE267A83ED007AC9ED007A5A
:102DA00011680E9A11601A680F9B1A6005A8FFF748
:102DB00005FE07B0BDE8F083F02E0008F42E0008F1
:102DC000F82E0008000000000060604000B585B0EB
:102DD000C378027941790291019200938378427815
:102DE0000178034876F0A0F805B05DF804FB00BF59
:102DF0003CD30710082816D8DFE800F005170709AC
:102E00000B0D0F1113000A4870470A4870470A4813
:102E100070470A4870470A4870470A4870470A488E
:102E200070470A4870470A4870470A48704700BF11
:102E30005CD3071090D30710ACD30710CCD3071086
:102E4000ECD3071008D4071024D4071048D4071077
:102E500068D4071070D30710222817D8222824D846
:102E6000DFE800F012252323232323231B2323231E
:102E7000232323232323231D23231F23232323232C
:102E800023232323232321000C4870473E2810D0FE
:102E9000B0F5807F0FD10A4870470A4870470A484A
:102EA00070470A4870470A4870470A4870470A48FE
:102EB00070470A4870470748704700BF3CD5071065
:102EC00028D50710A0D40710B4D40710D4D4071005
:102ED00010D5071078D4071088D40710F4D4071041
:102EE000FE2800F0A58019D8112812D811280ED874
:102EF000DFE800F00BA25E60626466686A6C6E7068
:102F0000727476787A7C51487047514870475148BE
:102F10007047FC2840F092804F487047FF2800F02F
:102F20008F80C0F08F8048F29873984200F28C80B6
:102F300048F28073984239D3A0F5074080381828AA
:102F400074D801A353F820F0072F0010353000107B
:102F50002D300010F12F0010F52F0010F92F001068
:102F60002D300010FD2F0010013000100530001032
:102F7000093000100D300010113000101530001015
:102F8000193000101D3000102D30001021300010BD
:102F90002D3000102D3000102D3000102D3000107D
:102FA0002D300010253000102930001029487047BE
:102FB0002A4870472A4870472A4870472A4870476D
:102FC0002A4870472A4870472A4870472A4870475D
:102FD0002A4870472A4870472A4870472A4870474D
:102FE0002A4870472A4870472A4870472A4870473D
:102FF0002A4870472A4870472A4870472A4870472D
:103000002A4870472A4870472A4870472A4870471C
:103010002A4870472A4870472A4870472A4870470C
:103020002A4870472A4870472A487047094870471D
:103030002948704729487047294870470548704714
:1030400028487047034870470248704780D70710E8
:10305000A4D9071050D5071028D9071080D507101C
:10306000A0D50710C0D50710DCD5071000D6071073
:1030700020D6071040D6071064D6071084D6071054
:10308000A8D60710C0D60710E0D6071000D7071043
:103090001CD707103CD7071060D70710BCD7071004
:1030A000DCD70710F8D7071024D8071038D8071036
:1030B00054D807106CD8071084D8071098D8071078
:1030C000B4D80710D4D80710F4D8071010D90710B7
:1030D0004CD9071068D9071010D80710A0D70710CF
:1030E00060D5071088D9071000B583B00021019181
:1030F00001AA094B186809F011FC019B4BB14FF074
:10310000E0234FF08052C3F8042DBFF34F8FBFF37D
:103110006F8F03B05DF804FB102F000800B583B07B
:10312000274875F067FF274875F064FF264875F05B
:1031300061FF012302220021042041F0FFFE00284C
:1031400038D12249042041F065FF012307220221E2
:10315000042041F085FF1E49022069F0F3FC1D4860
:1031600069F092FDFFF7BCFE01461B4875F0DCFEDE
:1031700000221A4B19881A4869F060FDFFF7B0FE6B
:103180000146184875F0D0FE0021019101AA164BA6
:10319000186809F0C3FB019B4BB14FF0E0234FF0DF
:1031A0008052C3F8042DBFF34F8FBFF36F8F03B06E
:1031B0005DF804FB0D4875F01DFF01BEC1E700BFBF
:1031C000DCD9071010DA07103CDA071030230008AA
:1031D000E0220008C53400108CDA071032D1071045
:1031E00000D10710BCDA0710102F000870DA0710A2
:1031F00010B584B00C4600230293ADF80C301828AB
:1032000017D0202826D010B1002004B010BD0B88A4
:103210005BB902A869F0AEFC134875F085FE02A800
:10322000FFF7D4FDFFF77AFFEEE7104875F0E2FEF6
:10323000EAE70878FFF7DEFD01460D4875F074FEF9
:1032400023781BB90B4875F0D5FEDDE70A4875F009
:10325000D1FED9E78B8900934B890A890978074801
:1032600075F062FED0E700BFE8DA071004DB071054
:1032700018DB071038DB071050DB071068DB07107E
:1032800010B586B000230093019302930393049337
:1032900005938378022B05D0042B1CD000242046F4
:1032A00006B010BD184B1A88ADF814205B88ADF835
:1032B000163042F62B23ADF804306A460421134B36
:1032C000188863F027FD04460028E8D0014610481E
:1032D00075F02AFEE3E70C4B1A88ADF814205B88E2
:1032E000ADF8163042F62B23ADF804306A460521BE
:1032F000064B188863F00EFD04460028CFD0014627
:10330000044875F011FECAE7002F0008FC2E0008E3
:10331000D8DB071010DC071030B587B0002300930E
:103320000193029303930493059300284AD0044623
:1033300083686BB3254875F0F7FD2068FFF746FDFD
:10334000E188234875F0F0FDE088224B1880224B7D
:1033500000221A700123ADF814304FF6FF73ADF858
:10336000163002218DF8001041F60503ADF8043047
:103370006A4663F0CFFC044630B1164B1A8801460A
:10338000164875F0D1FD1AE0154875F033FE16E0C9
:10339000144875F0C9FD2068FFF718FDE588A0897D
:1033A000FFF75AFD024629460F4875F0BDFD00247F
:1033B000084B1C800D4B9C72074B01221A70204653
:1033C00007B030BD48F28774F9E700BF40DC071052
:1033D00054DC0710FC2E0008402300086CDC0710AA
:1033E000A8DC0710C4DC0710D8DC0710002F000889
:1033F00008B58378042B13D0052B1FD0022B01D0E6
:10340000002008BD028941F605039A42F8D1018BDC
:10341000174B1980428B5A80164875F085FDEFE7EF
:10342000028A42F62B239A42EAD10189104B9980F5
:10343000C288DA80104875F077FDE1E7028942F62C
:1034400002139A42DCD1018B094B198101229A7235
:103450000A4875F069FD0A4875F0CCFD094B1B68F8
:1034600098690022072100F5D06049F01FFCC7E7EA
:10347000002F0008FCDC071034DD07108CDD07107E
:10348000B4DD0710E011010810B586B001AB83E888
:103490000700144613788DF8143053788DF81530E2
:1034A00000231A4605A90548006807F06DFA6278FE
:1034B0002178034875F038FD06B010BD142F0008C0
:1034C000E4DD071010B507283AD8DFE800F0041350
:1034D000090E393939340846FFF71EFF044630E03B
:1034E0000846FFF785FF04462BE00846FFF7C8FEB5
:1034F000044626E08B78052B03D00A2B15D0002438
:103500001FE00A89104B1B899A4208D18C8834B974
:103510000E4B1B78ABB90E4875F06CFD11E0898835
:103520000C4875F001FD00240BE0083107C9FFF7D6
:10353000ABFF002405E0086807F072F9002400E002
:103540000024204610BD00BF002F00080C2F0008EB
:10355000F4DD07100CDE071030B585B005460023FA
:1035600002930393022007F04BF9D8B1044605708B
:10357000002343708DF80E300C4A1289ADF80820F4
:103580000222ADF80C20ADF80A3000230093234648
:1035900002AA12210648008863F029FC642008F082
:1035A000ADFAF2E7002005B030BD00BF002F0008E3
:1035B000FC2E000808B54FF0FF320121002009F071
:1035C00093F81D4804F0DCFE1C491D4804F0B2FECF
:1035D00018B91C4875F00EFD0AE01B4875F00AFD8D
:1035E00001BE05E0194B9B7A13B1194B1B88ABB98F
:1035F0004FF0FF320121002009F076F8154B1B78BF
:10360000002BEFD000221146032069F089FA014611
:103610000028EDD0104875F087FCE9E70F4B1878CB
:1036200080F001001870FFF797FF01460028DFD0F7
:103630000B4875F079FCDBE768D10710D4D0071090
:10364000F131001030DE07105CDE0710002F00089B
:10365000FC2E00084023000888DE07100C2F00080D
:10366000B8DE07107047000000B583B02C4B06226F
:103670001A60FFF775F900B101BE62B64FF4E1338D
:103680000093FF231A462821292050F075FD0123BD
:10369000062219466F2041F051FC00220221012030
:1036A00007F0C8FD1F4B186000230193022200920F
:1036B0004FF400621C491D4807F0E4FF012820D1A7
:1036C0001B4B01930623009300234FF4806219499A
:1036D000194807F0D7FF012818D1184B019306238A
:1036E000009300234FF480721549164807F0CAFF73
:1036F000012810D107F0FEFF01BE002003B05DF8E5
:1037000004FB114875F076FC01BED9E70F4875F04F
:1037100071FC01BEE1E70E4875F06CFC01BEE9E703
:103720001C2F0008142F0008F0DE0710353E001093
:10373000102F000824DF0710B5350010182F0008DF
:1037400058DF0710BD39001004DF071034DF071001
:103750006CDF07102DE9F04385B0DFF8B890002446
:10376000039402940194012500952346FF224921E8
:10377000484642F0A9FCDFF8A0800394029401942B
:1037800000952346FF224C21404642F09DFC1F4FEE
:1037900003940294019400952346FF224A2138465F
:1037A00042F092FC1A4E0394029401940095234631
:1037B000FF224F21304642F087FC002442F2107273
:1037C0002146484642F042FD42F2107221464046F0
:1037D00042F03CFD42F210722146384642F036FD7E
:1037E00042F210722146304642F030FD484642F027
:1037F00075FD404642F072FD384642F06FFD30469E
:1038000042F06CFD05B0BDE8F08300BF582F000802
:10381000C82F0008202F0008902F000838B5EF2986
:1038200028D80F2940D9B82804D9A1F11003DBB258
:10383000DF2B53D9B42803D81039C9B2DF297BD97B
:10384000002442F210722146544842F0FFFC42F23A
:1038500010722146524842F0F9FC42F210722146A1
:10386000504842F0F3FC42F2107221464E4842F0BA
:10387000EDFC18E0002442F210722146494842F063
:10388000E5FC42F210722146454842F0DFFC42F26C
:1038900010724649414842F0D9FC42F21072434945
:1038A000414842F0D3FC38BD002442F21072214658
:1038B0003A4842F0CBFC42F2107221463A4842F0BC
:1038C000C5FC42F210723949364842F0BFFC42F260
:1038D00010723649324842F0B9FCE4E77F3864237D
:1038E00003FB00F1002925DBCC112146304875F09F
:1038F0001BFB002542F2107229462A4842F0A6FC22
:1039000042F210722946284842F0A0FC07EE904A85
:10391000F8EEE77A17EE904A42F2107217EE901A1C
:103920001E4842F093FC42F2107221461C4842F0BD
:103930008DFCB8E77F31D7E7C0F17E00642303FB3D
:1039400000F01C4B83FB00230344C417C4EBA314F7
:103950002146194875F0E8FA002542F2107229460E
:103960000E4842F073FC42F2107229460C4842F0B5
:103970006DFC07EE904AF8EEE77A17EE904A42F2B5
:10398000107217EE901A074842F060FC42F2107273
:103990002146054842F05AFC85E700BF202F000869
:1039A000902F0008582F0008C82F00080000F04191
:1039B0008CDF071083200882A4DF071000B583B0D6
:1039C000FFF7C8FE4FF0FF3201A9054B186807F05A
:1039D000AFF99DF805109DF80400FFF71FFFF1E710
:1039E000142F000810B582B03EF078FC00282ED1CC
:1039F0001F4A136843F0040313604FF4007006F08D
:103A0000FFFE1C4B186048B3194A136843F00803C3
:103A10001360194B0193194B0093194B194A126803
:103A20004FF400713FF032FA0446E8B9104A1368C7
:103A300043F010031360002213490F4B18683FF046
:103A4000A5F9044638B9114875F0D4FA03E00446E4
:103A50000F4875F0CFFA204602B010BD0D4875F042
:103A6000C9FA4FF0FF34F6E70B4875F0C3FAF2E7F6
:103A70000C300008043000080030000874F3071010
:103A800044230008AC2300089D3A0010C8F3071037
:103A90004CF3071084F30710A8F3071084B000B5A7
:103AA00083B005A880E80E009DF81430D3B1012B37
:103AB00021D1134A136823F020031360114875F0D5
:103AC00099FA02238DF8073000234FF0FF320DF1F1
:103AD00007010D48006806F057FF03B05DF804EBDE
:103AE00004B07047064A136843F04003136007A808
:103AF00000F0F4FBF1E7054875F07CFAEDE700BF54
:103B00000C300008F4F307100830000824F4071004
:103B100030B5A5B053F0EAFE18B10025284625B00F
:103B200030BD7822002106A875F0FEFB2A4A06ABBC
:103B300007CA03C31A80294B03CBCDF83900CDF84F
:103B40003D101A889B78ADF841208DF84330244B06
:103B50001F9306A9234875F0E7F900242546632C36
:103B600032D801A906A853F03FFC054668B1C4F15C
:103B7000630341F2883201461B4875F0D5F941F2E2
:103B8000883007F0BBFF0134E9E706A9174875F054
:103B9000CBF9174A136843F0020313609DF8043011
:103BA000042B09D0062BB9D102A813F031F9014634
:103BB000104875F0B9F9B1E702A811F049FA0146C9
:103BC0000D4875F0B1F9A9E70C4875F013FA082112
:103BD0000B4875F0A9F9A1E750F407105CF4071041
:103BE0000400400068F40710ECF4071084F4071098
:103BF0000C300008D0F40710B4F407103CF507109F
:103C00006CF5071010B5044603F0A4FA0346064A03
:103C10001821204675F0F6F9002801DB002010BDC0
:103C20004FF0FF30FBE700BFA4F5071070B588B078
:103C3000364B93E803000290ADF80C100023CDF84A
:103C40000E30CDF81230CDF81630CDF81A30ADF870
:103C50001E302F4B2F4A9A601A610E229A819A8247
:103C600002A8FFF7CFFF054688B9294E02AC3460A1
:103C7000204676F0B3FB81B2B180274B1A680092E0
:103C80009B882246254875F04FF92C4617E02448BA
:103C900075F0B0F92FE01E49224B18683EF078FB12
:103CA000054600B3C4F195034FF4FA6201461E487D
:103CB00075F03AF94FF4FA6007F020FF0134952CC3
:103CC0001CD853F013FE0028E5D1184875F092F97E
:103CD000174A136823F002031360FFF719FF054624
:103CE0000028D8D007E0134875F084F9104A13680B
:103CF00043F020031360284608B070BD0E4875F0ED
:103D000079F905210D4875F00FF9F4E780FA0710ED
:103D10004C230008B0F5071044230008C0F5071035
:103D2000F0F5071000300008A8F6071034F6071069
:103D30000C30000888F6071000F707102CF7071062
:103D400008B52F4B1B6813F0200F19D12C4B1B68A3
:103D500013F0100F21D12A4B1B6813F0080F29D143
:103D6000274B1B6813F0040F29D1254B1B6813F058
:103D7000020F2FD1224B1B6813F0010F35D108BD64
:103D8000204B18683EF000FF18B91F4875F032F953
:103D9000DCE71E4875F02EF9D8E71A4B18683EF09C
:103DA0003FFF18B91A4875F025F9D4E7194875F09E
:103DB00021F9D0E7184B186806F032FDD0E73EF045
:103DC00099FF18B9154875F015F9CEE7144875F044
:103DD00011F9CAE753F0AEFA18B9124875F00AF9AA
:103DE000C8E7114875F006F9C4E753F0EDFE18B9BD
:103DF0000E4875F0FFF8C2E70D4875F0FBF8BEE716
:103E00000C3000080030000860F7071088F7071032
:103E1000B4F70710E0F707100430000808F807109F
:103E200024F807104CF807106CF8071094F80710E6
:103E3000B8F8071000B591B000228DF808200121D4
:103E4000032007F0F7F94D4B186002A853F076F8FD
:103E500008BB4B4A136843F001031360494875F0EF
:103E6000C9F8FFF755FEC8B9FFF7BCFDB0B9FFF7B9
:103E7000DDFE98B9444B01930223009300234FF4D5
:103E800080624249424807F0FDFB01281ED04148AC
:103E900075F0B0F802E0404875F0ACF83F4875F0B6
:103EA000A9F8394B186808B108F060FA3C4B18685B
:103EB00008B108F05BFAFFF743FF3A4875F09AF84B
:103EC000002008F053FA11B05DF804FB4FF4FA60DB
:103ED00007F014FE324B01930223009300234FF4AA
:103EE00080623149314807F0CDFB012803D03048CA
:103EF00075F080F8D2E72F48FFF7B4FB10E02E48AA
:103F000075F078F8FFF792FE0028C7D100238DF8EE
:103F10000C304FF0FF3203A92848006806F034FD4A
:103F20004FF0FF320DF13F01144B186806F000FF0F
:103F30000128F5D19DF83F30022BF1D101238DF8F6
:103F40000C3000234FF0FF3203A91C48006806F034
:103F50001BFD1B4B18683EF017FE53F0C7FC0028F2
:103F6000CDD1074A136823F002031360154875F09A
:103F700041F8FFF7CDFD0028C1D08FE708300008D9
:103F80000C30000810F907105030000838F90710FD
:103F90008D42001048F90710DCF8071024FA0710CA
:103FA0001030000854FA071070F90710B1400010E3
:103FB00080F90710A4F9071000FA07101430000860
:103FC00000300008DCF9071000B58FB000230D9316
:103FD00002228DF804200DAA01A90948006806F004
:103FE000B9FD0D9B4BB14FF0E0234FF08052C3F869
:103FF000042DBFF34F8FBFF36F8F0FB05DF804FB3D
:104000001430000830B583B0FEF7C6FC0022FF2153
:104010001C4844F073FE034610B33BB36BBB194C12
:1040200004F1080500221849284644F055FC0122F5
:10403000009203232946204644F08EFC204644F09B
:1040400087FE124B5968124874F06EFF00210091F0
:1040500002230A460F48006808F09CFB03B030BDFD
:104060000D49084844F0A4FE0346D6E742F2107119
:10407000044844F0AFFD0346D0E7084874F0BAFFA7
:10408000ECE700BF18300008C93F0010B02300085B
:1040900098FA0710102F000838FC0710D4FA071000
:1040A00008B5024844F06CFE08BD00BF1830000897
:1040B00030B5E5B0FFF7A6FF00223021032007F05E
:1040C000B9F8464B186001E0FFF7EAFF4FF0FF3206
:1040D00058A9424B186806F02BFE0128F6D19DF82E
:1040E0006031012BF0D0022B04D0002BEED1FFF772
:1040F00089FFEBE7FEF712FD5CAB5BAA5AA959A852
:10410000FEF73EFD63A8FEF7DBFC62AB019361ABFB
:10411000009360AB5FAA5EA95DA8FEF7A1FD17AD95
:10412000639872F00DF8CDE91401629872F008F806
:10413000CDE91201619872F003F8CDE910016098A1
:1041400071F0FEFFCDE90E015F9871F0F9FFCDE946
:104150000C015E9871F0F4FFCDE90A015D9871F0F1
:10416000EFFFCDE908015C9871F0EAFFCDE90601A7
:104170005B9871F0E5FFCDE904015A9871F0E0FF1A
:10418000CDE90201599871F0DBFFCDE90001144A35
:104190004FF48071284674F035FF124CE5602846D4
:1041A00076F01CF9206121460F4B18683EF0F0F9BB
:1041B000014618B90D48FFF755FA87E70C4874F027
:1041C000B3FE01238DF85F3100234FF0FF320DF273
:1041D0005F110848006806F0D7FBEBE714300008D1
:1041E000FCFA0710B023000800300008FCFB0710A1
:1041F000C4FB07100830000830B583B00024254602
:1042000004E04FF47A7007F079FC0134022C0BD8EB
:1042100002220F490F4B18683EF0BAFA05460028F3
:10422000EFD10D4874F0E6FE0DB903B030BD0322A6
:1042300029460A4874F078FE00238DF807304FF0C5
:10424000FF320DF107010648006806F09DFBECE720
:10425000C42300080030000848FC071070FC071059
:104260000830000808B502220549064B18683EF0E0
:10427000B3FB00B908BD0146034874F055FEF9E7E9
:1042800094FD071000300008B0FC071000B583B0A3
:104290000123022219466F2040F050FEFFF7ACFFC9
:1042A00000220221012006F0C5FF0B4B186001E03F
:1042B000FFF7A2FF4FF0FF3201A9074B186806F085
:1042C00037FD0128F6D19DF80430002BF0D0012BEA
:1042D000F0D1FFF7C7FFEDE75430000810B584B008
:1042E0000446C26803690192009390F90030426865
:1042F0000189114874F018FE63684721187875F039
:10430000F7FF58B90D49E06875F0F2FF30B90023A6
:104310000B4A13600B4A13600B4A136002238DF89B
:104320000C3000234FF0FF3203A90848006806F064
:104330002BFB04B010BD00BFE8FC071064FD0710A4
:10434000F02E0008F42E0008F82E00085430000863
:104350000230800803D001300238FCD100BF00BF1A
:104360007047EFF3108072B6704780F31088704783
:10437000B0F1FF3F22D008B338B5C50E43011B1A78
:1043800065F10005AD0045EA93759B001B1845F1EA
:104390000005ED0045EA5375DC004FF47A72002306
:1043A0002046294672F074FA6FF47A73A34240F201
:1043B000E733AB4101D26FF0010038BD704708B55B
:1043C00044F058F9002008BD034B0360034B0B6019
:1043D00080231360704700BF7036000870300008FB
:1043E000034B0360034B0B604FF480731360704703
:1043F0002C3700087032000870B582B005460023E3
:104400000193244B1B686BB1224B1B6843B1FFF730
:10441000A8FF044607F040FE70B92046FFF7A5FF4D
:1044200002B070BD1C4841F0EFFB18B9194B1A4A95
:104430001A60E9E701BEE7E74FF47A7605FB06F676
:10444000164DA5FB0635AD09FFF7B9FF85420CD81F
:1044500013480028E1D1019BAB4200D901BE01986D
:10446000FFF786FF07F0A2F9D7E7012301AA291A6F
:104470000848006844F088F80A4B9842E9D1B6F53C
:104480007A7FCAD3002301AA29460248006844F073
:104490007BF8DEE7583000085C300008D34D62102E
:1044A00000000E06051A020408B508F030FD036886
:1044B0000BB14068984708BD2DE9F04784B00C9DCA
:1044C000002843D00F4690461C468146B5F5967F9E
:1044D0003ED313B113F0070F3ED184B3002606F18B
:1044E000C80006F08DF98246002837D025F0070570
:1044F000AD083CB3564403220021012006F09AFE89
:10450000C6F8BC0000B3184BC6F8C030C6F8C4A04B
:1045100016F0070F00D001BE029601949DF83430CA
:1045200000930E9B2A464146384607F0CDFEC9F857
:104530000000864214D0A8B101BE002009E025F099
:104540000706CCE70446D5E701BEDCE7074800E0F4
:10455000064804B0BDE8F0870548FAE70548F8E7E3
:104560000020F6E70020F4E701EFCDAB05000E06D2
:1045700006000E0601000E0610B507F0B1FD044658
:10458000D0F8C020074B9A4204D001BE204607F065
:1045900081FBFBE700231A461946D0F8BC0006F061
:1045A000F3F9F3E701EFCDABE0B110B504460068D5
:1045B00007F0DCFE246807F039FFD4F8C0200A4B6E
:1045C0009A4203D007F0F4F9002010BD0023C4F88C
:1045D000C030D4F8BC0006F059FFD4F8C40006F08F
:1045E0001FF9EFE70148704701EFCDAB05000E065C
:1045F000A8B110B504460368D3F8C010094A914227
:1046000003D000200023236010BD4FF0FF31D3F80A
:10461000BC0006F03CFC2046FFF7C6FFF2E702486C
:10462000704700BF01EFCDAB05000E0680B110B59D
:104630000446017131B1042006F04FFE206028B11C
:10464000002010BD012006F048FEF7E70148F8E71A
:104650000148704701000E0605000E0698B110B51E
:1046600004460846FFF784FE014623792BB12068F3
:1046700006F0DEFC28B1002010BD206806F007FC23
:10468000F8E70248F8E70248704700BF00000E064E
:1046900005000E0688B108B503792BB1006806F055
:1046A00038FA40B1002008BD00231A4619460068B8
:1046B00006F06AF9F5E70248F5E70248704700BFDF
:1046C00002000E0605000E0660B330B583B00C463E
:1046D000054649B300230193EFF305839BB1002303
:1046E00001AA006806F036FA012815D1019B9BB19A
:1046F0004FF0E0234FF08052C3F8042DBFF34F8FEB
:10470000BFF36F8F08E01046FFF732FE024600232A
:104710002146286806F038F910B9044803B030BDC6
:104720000020FBE7024870470148F7E702000E0649
:1047300005000E0650B330B583B00C46054639B3BC
:1047400000230193EFF3058393B101AA006806F0FB
:10475000CFFD012814D1019B93B14FF0E0234FF01E
:104760008052C3F8042DBFF34F8FBFF36F8F07E064
:104770001046FFF7FDFD02462146286806F0D8FAEC
:1047800010B9044803B030BD0020FBE70248704771
:104790000148F7E702000E0605000E0628B108B52D
:1047A000006806F073FE002008BD0148704700BF96
:1047B00005000E0660B110B50B46114604461846BA
:1047C00006F068FD206008B1002010BD0148FCE73C
:1047D0000148704701000E0605000E0630B583B093
:1047E0000023019330B30546EFF3058303B119BBF2
:1047F0000846FFF7BDFD0146EFF305849CB101AA11
:104800000021286806F074FDC0B1019BC3B14FF0D0
:10481000E0234FF08052C3F8042DBFF34F8FBFF356
:104820006F8F002403E0286806F031FB50B120466A
:1048300003B030BD044CFAE7034CF8E7034CF6E74D
:104840000024F4E7014CF2E705000E0600000E0616
:1048500000B583B00023019310B3EFF3058393B148
:1048600001A9006806F0F7F9012812D1019B83B174
:104870004FF0E0234FF08052C3F8042DBFF34F8F69
:10488000BFF36F8F05E000231A461946006806F053
:104890007BF818B1002003B05DF804FB0148FAE78B
:1048A0000148F8E702000E0605000E0628B108B51B
:1048B000006806F0EBFD002008BD0148704700BF0E
:1048C00005000E0668B110B50B46114604460022DD
:1048D000184606F0AFFC206008B1002010BD024869
:1048E000FCE70248704700BF01000E0605000E06F7
:1048F00078B110B50C4671B1EFF305822AB10068AA
:1049000006F064FD2060002010BD006806F0B1FBD9
:10491000F8E7024870470148F6E700BF05000E06B9
:1049200028B108B5006806F0B1FD002008BD0148B7
:10493000704700BF05000E0628B32DE9F04182B094
:104940000F4614461D468046FAB1082072F0A0F9C1
:104950000646E0B10460456077B901220D4B009333
:10496000334601210C4808F065FAC8F8000028B168
:10497000002002B0BDE8F0810022EFE7304672F07F
:104980008FF90648F5E7064870470548F1E7034800
:10499000EFE700BFA94400104812091001000E06FD
:1049A00005000E06002853D030B585B004460846F1
:1049B000FFF7DEFC0246EFF3058383B30023039386
:1049C000009303AB0921206808F050FA01282ED18A
:1049D000039B4BB14FF0E0234FF08052C3F8042DFE
:1049E000BFF34F8FBFF36F8F00250395246807F047
:1049F0002BFD0246009503AB0621204608F036FA4F
:104A0000012814D1039B93B14FF0E0234FF0805263
:104A1000C3F8042DBFF34F8FBFF36F8F07E0002360
:104A200000930421206808F021FA012803D068B11E
:104A3000002005B030BD246807F000FD02460023C9
:104A400000930121204608F011FAF0E70148F0E751
:104A50000148704702000E0605000E0648B300B577
:104A600085B0EFF30583B3B100220392009203AB4C
:104A70000821006808F0FAF9012813D1039B8BB1D3
:104A80004FF0E0234FF08052C3F8042DBFF34F8F57
:104A9000BFF36F8F06E000220092134603210068E7
:104AA00008F0E4F918B1002005B05DF804FB0248F5
:104AB000FAE70248704700BF02000E0605000E0626
:104AC00058B110B50C4651B1006808F005FA00382D
:104AD00018BF01202070002010BD02487047014817
:104AE000FAE700BF05000E06B0B130B583B0054649
:104AF000006808F00CFA04460022009213460521D3
:104B0000286808F0B3F910B9044803B030BD204656
:104B100072F0C6F80020F8E70148704702000E0660
:104B200005000E0630B110B5044607F087FC206082
:104B3000002010BD0048704705000E0608B5FFF7BD
:104B400017FC06F0DBFF002008BD10B582B004465C
:104B50004FF0FF3269462046FFF7ECFD0028F7D101
:104B6000009B13B101989847F2E7FFF705FD02B0EB
:104B700010BD000070B584B004460E4601B100B906
:104B800001BEB36813B1736803B901BE002323608B
:104B90006360A360E360316901B9102108222046F7
:104BA000FFF790FE054680B90123237304F1080046
:104BB000F2686AB173683178029401910093B36826
:104BC0000749FFF779FC054620B9284604B070BDB7
:104BD000044AEFE7002323732046FFF7A1FEF4E722
:104BE0004B4B0010A0FD071070B582B00446FFF7D4
:104BF000B8FB0546237BCBB3012B13D00026237BC8
:104C0000042B24D1237B93B32846FFF7AEFB204629
:104C1000FFF786FE064668BBFFF7A3FB05460023A9
:104C2000237324E003232373FFF79FFB00220092EA
:104C3000019269462046FFF747FD06460028DED070
:104C4000FFF78FFB01232373FFF78FFB12E028464A
:104C5000FFF78BFB04F10800FFF7CAFC064648B9D2
:104C6000FFF77FFB054604232373CBE70026284686
:104C7000FFF77BFB304602B070BD000070B582B01C
:104C80000D461646044618B325B3FFF76AFB237B8F
:104C9000013BDBB2012B1FD8636801336360022341
:104CA0002373FFF762FB00950196002269462046B8
:104CB000FFF70AFD0546FFF754FB6368013B63609D
:104CC0000BB901232373FFF750FB284602B070BDD8
:104CD00001BED9E701BED8E7FFF747FB004DF4E777
:104CE00020000E06401A70470238032803D8DFE878
:104CF00000F00A0406080020704750207047622028
:104D00007047702070474020704720B129B132B100
:104D10003BB10020704701207047012070470120FF
:104D200070470120704748B151B10B7803B14AB1C7
:104D30000B694BB1CB684BB1002070470120704725
:104D40000120704701207047002070470120704704
:104D50002DE9F04768B10F4615460646836E7BB1D4
:104D6000426DA2B1D1B1984780464FF00009CA46C2
:104D700030E0274B274A40F25E21274871F04CFF74
:104D8000264B244A40F25F21234871F045FF244B13
:104D9000204A4FF41871204871F03EFF214B1D4A04
:104DA00040F261211C4871F037FF1F4B194A40F255
:104DB0007E21194871F030FFB36E98474146FFF7E6
:104DC00091FFB0F5FA7F05D34FF0010902E04FF0F3
:104DD0000109A2469DB1B9F1000F10D1736D2A46A9
:104DE0003946B06D9847041EF1DBE5DDB36E984798
:104DF0008046AC42D9D82D1BA2442744EAE7BAF139
:104E0000000F01DDC6F870805046BDE8F08700BF96
:104E1000ACFD0710C4000810C0FD071038FE0710D5
:104E200054FE071080FE071090FE07102DE9F04F8A
:104E300083B0A8B10D468046036E8B4217D3D0F8DD
:104E400068B0BBF1000F19D0D0F850A0BAF1000F34
:104E50001BD0C66D06B3D84701900027B94634E091
:104E6000254B264A40F2D621254871F0D5FE254B28
:104E7000224A40F2D721224871F0CEFE224B1F4A2F
:104E80004FF436711E4871F0C7FE204B1B4A40F2AA
:104E9000D9211B4871F0C0FE1D4B184A40F2DA219F
:104EA000174871F0B9FE1B4B144A40F2FA2114481E
:104EB00071F0B2FED8470199FFF714FFB0F57A7F81
:104EC00003D3012701E00127A14685B17FB92A4616
:104ED0003146D8F85800D047041EF4DBEADDD84745
:104EE0000190AC42DFD82D1BA1442644EDE7484693
:104EF00003B0BDE8F08F00BFACFD071088000810BC
:104F0000C0FD0710B8FE071038FE0710E4FE0710BA
:104F100010FF071038FF07102DE9F84F68B10E4653
:104F200093468046D0F868A0BAF1000F0CD0046E0A
:104F3000D047814600273D4614E0164B164A40F202
:104F40002231164871F068FE154B134A40F22331A6
:104F5000124871F061FE21464046FFF767FF844228
:104F600008D00127B5420ED26FB9731BA342F2D20B
:104F70001C46F0E70544D0474946FFF7B3FE5845C5
:104F8000F0D30127EEE7B54202D00420BDE8F88F48
:104F90000720FBE7ACFD071094000810C0FD0710C8
:104FA00038FE071010B584B004AC04E90E0058B107
:104FB000C26D82B1039C026E944213D9069A2146B7
:104FC000FFF7AAFF04B010BD0B4B0C4A40F25F3153
:104FD0000B4871F021FE0B4B084A4FF458710848FA
:104FE00071F01AFE2146FFF721FF844201D0042010
:104FF000E8E70020E6E700BFACFD0710A4000810BA
:10500000C0FD071010FF071050280FD062280FD0E6
:1050100040280FD0702801D10320704708B5064BF7
:10502000064A40F2C121064871F0F6FD01207047A2
:10503000022070470020704760FF071048000810EA
:10504000C0FD071070B5A0B10C4615460646B9B1B3
:10505000EAB1C16D11B323690BB1E3682BB32A46E2
:105060003046FFF775FE85422FDC226922BB002007
:1050700070BD184B184A40F27951184871F0CCFDB8
:10508000174B154A40F27A51144871F0C5FD154B83
:10509000114A40F27B51114871F0BEFD124B0E4A8D
:1050A00040F27C510D4871F0B7FD104B0A4A40F2B6
:1050B0007D510A4871F0B0FDE1683046FFF748FEC7
:1050C0002369834203DC0020D2E70320D0E70320DA
:1050D000CEE700BFACFD071038010810C0FD071077
:1050E00088FF0710A0FF071010FF0710B0FF071080
:1050F0002DE9F04F83B068B10F46934698460646B7
:105100007BB1D0F868A0BAF1000F11D0D04781462A
:1051100000251FE02E4B2F4A4FF4B7612E4871F047
:105120007BFD2E4B2B4A40F2B9512B4871F074FD98
:105130002B4B284A40F2BA51274871F06DFDD047F9
:105140004946FFF7CFFDB84234BF00200120072CAD
:105150000FD170B94246B16D306D01F0DEFA0446F0
:10516000002FECD1012D94BF002001200135ADB2FC
:10517000EDE7ACB9D0474946FFF7B4FD874206D901
:105180003F1A98F80030202B03D0052409E00027AF
:10519000F7E7009798E80E003046FFF703FF044654
:1051A00054B12CB9BBF1000F02D00C9B1B786BB92A
:1051B000204603B0BDE8F08FF36DC8F804300C9AB8
:1051C0000021404601F05DFA0446EAE70524EFE7D6
:1051D000ACFD0710B4000810C0FD0710FCFF07105D
:1051E00038FE0710F0B585B000238DF80F3048B1B8
:1051F0000D4606461046FFF777FD044648B920469F
:1052000005B0F0BD144B154A40F2B131144871F0AD
:1052100003FDFFF7F9FE07462A46214606F15C002A
:1052200001F0B0F908B10324E9E70422F16D30463A
:10523000FFF78EFD042801D00324E0E7012386F860
:1052400074300DF10F03009300233A46294630468F
:1052500001F05DFD0446D2E7ACFD071060000810C8
:10526000C0FD071030B583B0002301938DF80330E3
:1052700048B10546F9B10DF1030201A901F099FD0C
:105280000146002413E0134B134A4FF4C661134840
:1052900071F0C2FC9DF803202846FFF7A3FF0446E7
:1052A0000DF1030201A9284601F083FD014669B111
:1052B000002CEFD00AE028242246002174F034F8B4
:1052C00022460021281974F02FF80024204603B04C
:1052D00030BD00BFACFD071070000810C0FD071006
:1052E000F0B587B000238DF8173020B30C46054683
:1052F00041B3C76E6FB30878FFF786FE06460022FB
:1053000005A9204601F0BDF950B390B9BDF814309D
:10531000ADF808308DF810000023039302AA21464F
:105320002846B8479DF81720BDF814102846FFF707
:1053300059FF07B0F0BD104B104A40F281411048B0
:1053400071F06AFC0F4B0D4A40F282410C4871F03B
:1053500063FC0D4B094A40F28341094871F05CFC43
:105360000DF11703009301233246BDF814102846AF
:1053700001F0CDFCC9E700BFACFD0710D00008105C
:10538000C0FD0710FCFF071014000810F0B585B031
:105390000023ADF80E30A8B10C4615460646C1B143
:1053A000C76EEFB10B78B02B27D034D8702B04D058
:1053B00021D8502B01D0622B19D121463046FFF75E
:1053C0008FFF26E0284B294A4FF49961284871F055
:1053D00023FC284B254A40F2C941254871F01CFCAA
:1053E000254B224A40F2CA41214871F015FC402B5E
:1053F000E3D005200DE0902B0AD100220DF10E0123
:10540000204601F03EF9F0B106281AD000231BE037
:10541000052005B0F0BDD02B0AD100220DF10E0100
:10542000204601F02EF9034620B925B9012302E0F8
:105430000520EEE7002338B935B1002286F87C203C
:1054400002E0012300E00123002BE2D0BDF80E3082
:10545000ADF800308DF80800002501956A46214618
:105460003046B8472846D4E7ACFD0710E4000810E2
:10547000C0FD0710FCFF071014000810F0B585B040
:105480001D4600230393029360B10C46164607465F
:1054900079B1ADB102AA03A9204600F0FBFFB0B17B
:1054A00005B0F0BD0E4B0F4A4FF4CB610E4871F0C2
:1054B000B3FB0E4B0B4A40F259610B4871F0ACFB49
:1054C0000B4B084A40F25A61074871F0A5FB009562
:1054D00007F15C03039A3146204600F0F6FFDFE750
:1054E000ACFD071044010810C0FD071088FF07102D
:1054F0003400081070B58CB000238DF82F30ADF853
:105500002C3030B30D46064651B3C36E7BB306AAAA
:105510000BA9284601F09BF8044678B3B4B90022E1
:10552000BDF82C30ADF80C3006AB04938DF8144068
:1055300022B9F36E03AA2946304698479DF82F20DA
:10554000BDF82C103046FFF74DFE044620460CB047
:1055500070BD184B184A40F20F41184871F05CFBBF
:10556000174B154A4FF48261144871F055FB154BE7
:10557000114A40F21141114871F04EFB0DF12F0319
:1055800000939DF818300122BDF82C10304601F030
:1055900067FB60B1092801D00446BFE79DF81810E9
:1055A000012001F04AFB8DF82F000122B8E70446E4
:1055B000B4E700BFACFD0710F8000810C0FD0710ED
:1055C000FCFF07101400081028B3F8B50C46164667
:1055D0001D46074609B3069B0BB312B31DB30B68F8
:1055E0001BB34B681BB38022002173F09DFE07F1B3
:1055F000500394E8070083E80700BE66FD6607F1E4
:105600005C03069A92E8030083E803000123A7F8ED
:105610006430002002E0012070470120F8BD012025
:10562000FCE70120FAE70120F8E70120F6E7012076
:10563000F4E72DE9F04389B00D4690469946109E57
:10564000002407940694039404940594074648B1F3
:10565000E1B1EEB106AB07AA4146284600F032FEA2
:10566000044600E00124ACB1ECB134B374B34CB9DE
:10567000012387F866306B88A7F87630002387F817
:105680007C30BB67204609B0BDE8F0830124EAE71F
:105690000124E8E707F15C03079A4146284600F039
:1056A00047FE0446E0E7069AF96D3846FFF750FBDF
:1056B000069B8342D9DD0324D8E7009603AB2A7802
:1056C00049463846FFF714FD0446CFE7317838469F
:1056D000FFF7C8FD0446CAE72DE9F04184B005464E
:1056E0000E4617469846002403940294FFF70DFBDC
:1056F000044628B164B1B4B1204604B0BDE8F081DD
:1057000002AB03AA3946304600F038FE0446F1E702
:1057100005F15C030093039B42463946304600F096
:1057200044FE0446E7E7029AE96D2846FFF710FBBE
:10573000029B8342E0DD0324DEE770B584B00546BA
:105740000C461646002303938DF80B30FFF7EBFA57
:1057500068B108B922788AB920B9039A2146284647
:10576000FFF770FC08B9237893B904B070BD03ABA0
:10577000324621462846FFF781FEEAE731462846B1
:1057800001F046FA0928E7D1A378002BE5D1E3E739
:105790000DF10B02009200223146284601F060FA1A
:1057A000E3E730B583B000230193054640B101A87B
:1057B00000F030FF04462CB154B1204603B030BD98
:1057C0000124F8E705F15C0000F02BFF0446F3E745
:1057D000019AE96D2846FFF7BBFA019B834205DC7D
:1057E0002B6FAB67012385F87C30E6E70324E4E701
:1057F00070B5E8B10546836E0BB398470646B5F819
:1058000076404FF47A7303FB04F41CB3296FFFF75F
:1058100069FAA04220D995F87C30BBB1A96F304617
:10582000FFF760FA41F28833984217D8002012E05F
:105830000B4B0C4A40F2E7310B4871F0EDF90B4B82
:10584000084A4FF47A71084871F0E6F92846FFF7E4
:10585000A8FF00E0002070BD0020FCE70A20FAE766
:10586000ACFD071010010810C0FD071038FE07102E
:10587000F0B587B008B30E4617460546C36D1BB397
:1058800003AA816D006D00F048FF0446072822D06E
:1058900050B36CB9EB6D04939DF80C3003F0F0033A
:1058A000302B2AD03A4603A92846FFF76FFD04465D
:1058B000072C28D0204607B0F0BD144B144A40F204
:1058C0000E51144871F0A8F9134B114A40F20F51D0
:1058D000104871F0A1F91FB90028E9D00446D8E7B3
:1058E0002846FFF785FFF7E7009606AB13E90E00A1
:1058F0002846FFF757FB0446CBE703A92846FFF7E6
:10590000F9FD0446D4E70024D4E700BFACFD07103E
:1059100020010810C0FD071010FF07102DE9F0410D
:1059200084B005460E461746984600240394029418
:10593000FFF7EBF9044628B164B1B4B1204604B0D6
:10594000BDE8F08102AB03AA3946304600F05FFDA6
:105950000446F1E705F15C030093039B4246394698
:10596000304600F06BFD0446E7E7029AE96D2846F1
:10597000FFF7EEF9029B8342E0DD0324DEE730B55A
:1059800083B000230193054660B101A800F025FE15
:1059900004464CB174B114B9002385F86630204632
:1059A00003B030BD0124F4E705F15C0000F01CFEFB
:1059B0000446EFE7019AE96D2846FFF7C9F9019B14
:1059C0008342E8DD0324EAE72DE9F0410F4606466D
:1059D000F0B1836E03B3C26D12B3984780460025C1
:1059E00086F874503C4600E03C1A75B90122214605
:1059F0003046FFF73DFF05460028F6D1B36E9847C5
:105A00004146FFF76FF98742EED82846BDE8F0819E
:105A10004FF000080125E5E74FF000080125E1E718
:105A20004FF000080125DDE7034668B1B0F86400D7
:105A30004FF6FF72904203D0421CA3F864207047D7
:105A40000122A3F86420704700207047B0B10346DC
:105A5000B1B1BAB10078902801D0012070475868E0
:105A600090B110B49C68022C10D9023008609B6879
:105A7000023B136000205DF8044B70470120704723
:105A80000120704701207047012070470120F2E794
:105A90007F2807D9B0F5804F06D3B0F5001F05D297
:105AA0000320704701207047022070470420704790
:105AB0002DE9F04182B007460E4600248DF80740DC
:105AC000A046012512E09DF8073003F07F0305FB97
:105AD0000344ED0108F1010801E04FF08054B4F1F6
:105AE000805F10D09DF90730002B0CDAB5F5001F50
:105AF000F3D801220DF107013046B8470128E2D062
:105B00004FF08054EBE7B4F1805F06D02046FFF7FA
:105B1000BFFF804501D04FF08054204602B0BDE861
:105B2000F08100F0F003602B22D006D9B02B28D0F2
:105B300014D9D02B1AD000207047402B1DD003D988
:105B4000502B09D000207047202B18D0302B01D0CB
:105B5000002070470120704701207047702B12D041
:105B6000902B01D000207047012070470120704722
:105B700010F0020F09D1002070470120704701206A
:105B8000704701207047012070470120704719B904
:105B9000824206D8084670470232824203D800206B
:105BA0007047052070470520704738B5049D7DB1CA
:105BB0001C4678B12B687BB181B18AB12046FFF7D2
:105BC00067FF204401306B6883420BD3002000E064
:105BD000012038BD0120FCE70120FAE70120F8E7A9
:105BE0000120F6E70220F4E708B560B90A4B0B4A3A
:105BF00040F2D9110A4871F00FF842F0800200F823
:105C0000012B7F2B06D901F07F020B46C9097F2BA0
:105C1000F5D9F2E708BD00BF58010810C405081007
:105C2000700108102DE9F04190469DF8182050B100
:105C30001F46864671B1B8F1000F12D0C3B10225DC
:105C4000002006461DE0214B214A40F2F531214853
:105C500070F0E2FF204B1E4A40F2F6311D4870F012
:105C6000DBFF1E4B1A4A40F2F7311A4870F0D4FF9E
:105C70001B4B174A4FF47E71164870F0CDFF01267A
:105C80000130884211D200EB400C0EEB8C0CBCF8BA
:105C9000084063199D1C02B9DD1C002CEFD0DCF814
:105CA0000430002BECD10126EAE7B5F1805F09D280
:105CB0004EB9C8F800502846FFF7EAFE0130054407
:105CC0003D6000E001263046BDE8F081F00108109B
:105CD00094050810700108100C0208102402081026
:105CE000400208102DE9F041E8B10F461646034680
:105CF00001B332B30289901C197801B1101D174C01
:105D0000241AD3F81080A04522D808EB00052846B5
:105D1000FFF7BEFE241AA0451DD83D60013028447F
:105D20003060012015E00E4B0E4A40F21E210E4855
:105D300070F072FF0D4B0B4A40F21F210A4870F0C1
:105D40006BFF0B4B074A4FF40871074870F064FF74
:105D50000020BDE8F0810020FBE700BFFEFFFF0F41
:105D600088FF07108406081070010810240208102C
:105D70004002081008B581B10B4610F0040F13D093
:105D800010F0020F19D102220A7000F001025A70BD
:105D9000C0F3C0009870002008BD094B094A40F2CA
:105DA0004B31094870F038FF10F0020F02D0012289
:105DB0000A70EAE700220A70E7E70520ECE700BF77
:105DC00088FF07104406081070010810F8B5002875
:105DD00030D00F4614460646002932D0002A37D06C
:105DE0004568002D3BD00078114600F00F00FFF70A
:105DF000C1FF20B903222178B068FFF7C8FE48B977
:105E00002B786A7842EA0322228102322178B06834
:105E1000FFF7BDFE50BB023565602389EA18217883
:105E200029B3E95C537843EA01233B800232F3B99A
:105E300005202AE0154B164A4FF49B61154870F077
:105E4000EBFE154B124A40F2D941124870F0E4FEC5
:105E5000124B0F4A40F2DA410E4870F0DDFE104B53
:105E60000B4A40F2DB410B4870F0D6FE002260B9CD
:105E7000B36821895B1A023B2361217809B1023B97
:105E80002361236903B90022E260F8BDFCFF07101B
:105E900058060810700108105402081088FF0710F7
:105EA0006802081010B586B08646EC46094C0FCC47
:105EB000ACE80F0094E803008CE80300BEF1050F86
:105EC00001D806B010BD044B044A40F28B3104489F
:105ED00070F0A2FE50050810900208101C06081071
:105EE0007001081010B538B169B142688368022B9F
:105EF00010D00524204610BD154B164A40F2A131A2
:105F0000154870F089FE154B124A40F2A231124832
:105F100070F082FE137833F0010001D00524E9E728
:105F200013F0010F05D001230B7053781BB105242A
:105F3000E0E700230B705478052C01D90524D9E73C
:105F40002046FFF7AFFF002CD4D00624D2E700BFD5
:105F5000A40208103006081070010810B8020810DA
:105F600008B521B184468E46002318460AE00A4B44
:105F70000A4A40F241410A4870F04EFE802A08D198
:105F800006200133634505D21EF80320022AF5D806
:105F9000F7E7052008BD00BFD0020810F40508107F
:105FA0007001081008B538B1034661B180685B68BC
:105FB00002280FD8052008BD0C4B0D4A40F27A414B
:105FC0000C4870F029FE0C4B094A40F27B4109480D
:105FD00070F022FE93F800C05A7842EA0C220A8040
:105FE000991C0238FFF7BCFFE5E700BFE802081084
:105FF0000806081070010810F802081008B518B15A
:10600000836843B9002008BD044B054A40F256514D
:10601000044870F001FE0520F5E700BF14030810E6
:10602000800508107001081008B528B159B18268C0
:10603000022A0FD0052008BD0C4B0D4A40F2335107
:106040000C4870F0E9FD0C4B094A40F23451094804
:1060500070F0E2FD43681A785B7843EA02230B8014
:106060000BB10020E7E70520E5E700BF2803081093
:106070006805081070010810F802081038B558B10A
:106080001446120A02704470851C19B12246284633
:1060900074F096F9281938BD034B044A40F2FD11FB
:1060A000034870F0B9FD00BF58010810B40508108E
:1060B0007001081070B5002850D00E4611461D46DC
:1060C0000446002B51D01868002855D0102300F842
:1060D000013BFFF789FD04223249FFF7CFFF04237C
:1060E0000370237803B10223E2680AB143F080030E
:1060F00062690AB143F04003002E4AD043F0040223
:10610000317801293FD0022940D0737813B142F091
:106110002002D2B2427063881B0A8370A378C370D6
:10612000228961680430FFF7A9FF3EB132897168A6
:10613000FFF7A4FF328AF168FFF7A0FFE16811B111
:10614000228AFFF79BFF616911B1228BFFF796FF4F
:106150002B68C01A6B6898421DD870BD124B134A49
:1061600040F26E51124870F057FD124B0F4A40F248
:106170006F510F4870F050FD0F4B0C4A4FF4AE6159
:106180000B4870F049FD43F00C02BEE743F01402E7
:10619000BBE71A46BEE7094B044A4FF4BB6104480B
:1061A00070F03AFD8803081038030810DC05081069
:1061B00070010810500308106803081090030810BD
:1061C0002DE9F0419DF81880002836D017461E466C
:1061D0000546002B38D0186800283CD02B780BB12E
:1061E000002A3FD0AA780AB1002B42D0012B47D019
:1061F000022B47D030236C780CB143F001030AB175
:1062000043F0080300F8013BFFF7EEFC2A896968B8
:10621000FFF734FF04462B781BB13B0A037047702D
:1062200002342A6912B1B8F1000F2DD13368E41A93
:1062300073689C422FD8BDE8F0811A4B1A4A40F28D
:1062400072211A4870F0E8FC194B174A40F273218A
:10625000164870F0E1FC174B134A4FF41D711348B8
:1062600070F0DAFC144B104A40F276210F4870F0BF
:10627000D3FC124B0C4A4FF41E710C4870F0CCFC4E
:106280003223B8E73423B6E7E968204674F098F87B
:106290002B691C44CAE70A4B034A40F2C121034858
:1062A00070F0BAFC88FF07106C0608107001081027
:1062B0005003081068030810D803081018040810C9
:1062C0009003081040B370B515461C4603462AB328
:1062D00034B3068936B3406830B319B10869B0F5F4
:1062E000803F23D20C3621B10A8909690A4432441D
:1062F000161DDA6812B11A8A3244961C5A6912B114
:106300001B8B33449E1C3046FFF7C2FB01303044E8
:106310002E602060002002E001207047012070BD47
:106320000120FCE70120FAE70120F8E70120F6E769
:10633000E0B1F8B50E4615461C460746C3B11B68CA
:10634000C3B109B14B68BBB12846FFF7A1FB284494
:1063500001306368834201D202200AE023462A46C4
:1063600031463846FFF7A6FE002002E001207047C4
:106370000120F8BD0120FCE70120FAE778B184464E
:106380007AB183B109B90120704700B583B000200C
:1063900000906046FFF746FC03B05DF804FB012067
:1063A000704701207047012070472DE9F04383B00A
:1063B00004460D46904699460A9F0097FFF7F5FB65
:1063C000064618B1304603B0BDE8F0833868822332
:1063D00000F8013B4946FFF707FC4FEA182303701A
:1063E00080F80180023000270EE007EB47034FEAF8
:1063F000830804EB83031A895968FFF73FFE14F8FA
:10640000083000F8013B0137AF42EED3DAE778B14C
:1064100084467AB183B109B90120704700B583B0D1
:10642000012000906046FFF7FDFB03B05DF804FB20
:106430000120704701207047012070472DE9F0438B
:1064400083B006460D46904699460A9C0094FFF795
:10645000ACFB074618B1384603B0BDE8F0832068AE
:10646000A22300F8013B4946FFF7BEFB4FEA182381
