:020000041000EA
:10000000002000081B0100100D0000007D01001001
:1000100000000000000000000000000000000000E0
:100020000000000000000000000000007901001046
:1000300000000000000000007901001079010010AC
:100040007901001079010010790100107901001088
:100050007901001079010010790100107901001078
:100060007901001079010010790100107901001068
:100070007901001079010010790100107901001058
:100080000448054B10B5834203D0044B002B00D02D
:10009000984710BD780300087803000800000000AE
:1000A00006480749091A8B10C90FC91810B549101D
:1000B00003D0044B002B00D0984710BD78030008F4
:1000C000780300080000000010B5074C2378002BCF
:1000D00009D1FFF7D5FF054B002B02D0044800E003
:1000E00000BF0123237010BDB00300080000000012
:1000F00094150010054B10B5002B03D0044905489A
:1001000000E000BFFFF7CCFF10BDC04600000000BC
:10011000B4030008941500107047FFF7FDFF72B696
:100120000F4C104DAC4209DA21686268A368043BA9
:1001300002DBC858D050FAE70C34F3E70A490B4AFF
:100140000020521A02DD043A8850FCDC08480949B4
:100150000860BFF34F8F00F06FF800F01DF8FEE766
:10016000A0150010B8150010B0030008C80500085D
:100170000000000808ED00E0FEE7FEE700B50420FF
:100180007146084202D0EFF3098002E0EFF30880E5
:10019000043000F0BBFDFEE710B562B6034800F086
:1001A000C3F8002000F0BAFEFBE7C04600200010B4
:1001B00010B5002000F090FA10BD704770B5002017
:1001C00000F0EEFC041E28D0144B186000F064FB15
:1001D000411C200000F080FF114B0400186000F06B
:1001E0004DFB411C200000F077FF04000D4B013C4B
:1001F00018600D49200000F06FFFFA210B4D01300F
:1002000028708900200000F067FF094D0130286048
:10021000002000F0C5FC074B186070BD8800000886
:100220008C0000088000000840420F009400000885
:10023000900000088400000810B5204800F0ACF8D9
:10024000B022E02130201E4CD200A35889005B0070
:100250005B08A35063588343635080235B04A3501F
:10026000184B194AE250A02204339201E250FF22B7
:10027000164BE25000F014FFC02201215200A35897
:100280008B43A350FFF799FFFFF798FF104B032014
:100290001A681300BA33198807234B43126A802166
:1002A0009B180022DA605A600A4A00F05FFA0A4896
:1002B00000F022F9094800F05BF910BDD4140010D9
:1002C0000000264084050000010002008C050000AB
:1002D0004C05000878030008CC030008A0140010A7
:1002E0009023034A5B01D058032318407047C0464F
:1002F0000000204010B5902400F047F8074B64013F
:100300001959074A1140074A0A431A5110225968DD
:100310001142FCD000F03DF810BDC0460000204066
:10032000FCFF00000100FA05F8B590260E4C76019E
:10033000070000F02AF8A3590500DB439B0701D111
:10034000FFF7D8FF80239B00E750A259074B1A40C4
:10035000074B1343A351102362681A42FCD02800B4
:1003600000F017F8F8BDC04600002040FCFF000078
:100370000300FA05000000000230800803D00130BD
:100380000238FCD1C046C0467047EFF3108072B609
:10039000704780F310887047014B18607047C04663
:1003A0004C050008044B1B681A00BA3212881B6AFD
:1003B0005043C0187047C0464C050008A02300B544
:1003C0001B06984226D015D8802825D00AD8102898
:1003D00024D0402824D000280BD0154809E0A420C0
:1003E000C00306E08022134B520090421CD098427A
:1003F000F3D100BD104B984218D0104BC018042800
:10040000EBD800F05FFEECEA0F0305000C48F0E7C4
:100410000C48EEE70020ECE70B48EAE70B48E8E77A
:100420000B48E6E70B48E4E71800E2E7A020D7E72F
:10043000FF00520006005200090000A0FFFFFF0F5E
:10044000020052000300520005005200010050005B
:10045000020050000100520010B50020FFF7A2FF7B
:100460000A4B1C682300BC331B68C0180368002BB0
:100470000ADB074B1868FFF7A1FF012263689A6047
:100480009A68002AFCD110BD0248FCE74C05000820
:100490005005000802005000064B1B68BC331B6867
:1004A000C3181B68002B03DA89B241600020704733
:1004B0000148FCE74C05000801008A000368002B96
:1004C00004DA89B2C2608160002070470048FCE70E
:1004D00001008A00064B1B68BC331B68C3181B68ED
:1004E000002B03DAC36800200B6070470148FCE76B
:1004F0004C05000801008A00024B1A68002A00D14E
:100500001860704764050008F0B52C24154E44436C
:1005100030681F000019FF241E0A26402740124C95
:100520001B0C256807602C6A46608360BA352D88ED
:100530006F433F190761370080377F01E7190B4D83
:1005400076014761A4191F043B436419236000230B
:100550008361059BC2610162002B01D01B888381EE
:10056000F0BDC046640500084C05000808100000F6
:10057000F0B50400236987B0026841680393A3685B
:1005800004AD1732C0682B806A80039BA26A059174
:100590000095E16A266A676AFFF7B6FF00213B0013
:1005A0000A0030000091FFF7AFFF2800216B00F038
:1005B00077FB0022AB5E002B06DB1F2213401E3AA6
:1005C0009A401300014A136007B0F0BD00E100E05B
:1005D000F0B585B003931B4B16001C682C235843C1
:1005E0004B4320180769E418002F27D0A569002D78
:1005F00026D13B68002B23DA134B1B6834331B785E
:100600000193436801996068029300F0EBFD0122B9
:100610008A40336812049BB2134333600123FE60A7
:10062000A361039B01996362029800F0DBFD012343
:100630008B409BB2BB60280005B0F0BD034DFAE7CC
:10064000034DF8E7640500084C05000804028A0021
:1006500007028A0073B5002642690400D568019636
:100660002B0CB34221D01B0413601368194B006993
:100670001B68BC331B68C3181B68B34215DA01A999
:10068000FFF728FFB0420CD10198E26903681E0C05
:10069000DBB29A4205D9226A9B009B58002B00D0FE
:1006A000984731002069FFF7F7FEADB2002D09D061
:1006B00063691D6000251B68636AAB4205D09847DB
:1006C0006562A56163691B6873BDA36A002BF8D0DE
:1006D0009847F6E74C0500082C2310B54343034A1E
:1006E0001068C018FFF7B6FF10BDC04664050008CB
:1006F0001A4B70B51A680C00130033331B78834211
:100700002AD9002928D00D681F212B000B400D424B
:1007100022D11100BA310988126A48431900104DDC
:100720008018286022685209934210D30021FFF7F5
:10073000B3FE002122002868FFF7C0FE011E04D18D
:100740002868FFF7A9FE002800D0064870BD62683F
:100750009E00B1500133E5E70348F7E74C05000878
:100760006805000801018A0003018A000B0010B52A
:10077000002A0DD1002914D10B4A0C4C11680A0033
:10078000BA321288096A424352182260180010BD1A
:10079000002906D006490B604A60FFF7A9FF030055
:1007A000F4E7044BF2E7C0464C0500086805000872
:1007B0008803000803018A00F7B51B4F04003B685B
:1007C0000E00002B2BD0DB681A68824229D9002545
:1007D0005B680193A94202D1FFF7D7FD0500386895
:1007E0000368002B19DA1F23012223409A40640971
:1007F000019BA4001C1921680A420CD0914321607E
:1008000000240021FFF748FE002E02D12800FFF748
:10081000C0FD2000FEBD054CF3E7054CF4E7034C9A
:10082000F7E7044CF5E7C0466805000802018800B8
:100830000301880004018A000C4B1B68002B11D0B7
:10084000DB681A6882420FD959681F234209184091
:100850001E3B8340920050581840431E9841044B61
:10086000C01870470348FCE70348FAE7680500082A
:10087000000188000201880004018A00054B1B6802
:100880001A0088321B6812689B181868000AC0B2E8
:100890007047C0464C050008044B1B681A0088329C
:1008A0001B6812689B181868000E70474C050008FA
:1008B000034BE0308000C0588006800F7047C04670
:1008C00000002640024B18694007C00F7047C04621
:1008D00000002740A6220549D2008B580220DB43A6
:1008E0009B0702D00123885818407047000026401B
:1008F00010B5FFF7EFFF0023022801D1014B1B6861
:10090000180010BD70050008084A83009B18D0220B
:100910009200985807221040042806D1C022920065
:100920009B581F22FC30134018437047000026409C
:1009300010B5FFF7E9FF88235B0098421CD00BD865
:10094000012813D0022814D0431E9841104B404276
:100950001840104BC01810BD1223FF33984210D01E
:100960001423FF33984210D00020F4E70A4B186894
:10097000F1E7FFF7BDFFEEE7084A094BD058C00F7B
:1009800001E0FFF79FFFC003E5E7044A054BF5E7E9
:1009900000EE85FF00127A006C050008000026407A
:1009A0000C0500003C050000B023154ADB00D358BD
:1009B00010B59903DB01DB0F890BC371114B01608B
:1009C000D3580F24D904DB01DB0D0381B123DB00F5
:1009D000D358C90C81801900214081721909214026
:1009E000C172D9029B009B0F8373074BC90CD3586C
:1009F00081815A05DB01520FDB0D8271038210BD2C
:100A000000002640840500008C0500008030034B68
:100A1000FF308000C058C00F7047C046000026401D
:100A20000F4B421E1B683F331B78934216D9803010
:100A30007F220C4BFF308000C3581F201A400A70E1
:100A40001A0A02404A701A0C02408A701A01C24007
:100A500000209B009B0FCA700B7170470248FCE797
:100A60004C0500080000264001004A00F0B589B09E
:100A700003AD2800FFF798FFB0230026164ADB00DD
:100A8000D358B34224DAAB7B022B21D0AC88B442DA
:100A90001ED03000ED79039FFFF74AFF220033009C
:100AA00031000190681C00F0C3FB0C00050033000E
:100AB0003A003100019800F0BBFBE6076A083243B8
:100AC0006308801859412A00230000F091FB0600BA
:100AD000300009B0F0BDC04600002640F7B5234BFA
:100AE00006001B683F331B78002B08D000283BD042
:100AF000834204D36946FFF793FF041E01D000260A
:100B000032E03000FFF782FF2300002805D06B465B
:100B10001C79023C23005A1E93416A461778547888
:100B20009578002BEBD0002CE9D0002DE7D03000D9
:100B3000FFF7FEFE002306002A002000190000F047
:100B400077FB00230C0005003A003000190000F08C
:100B50006FFBE6076A0832436308801859412A0090
:100B6000230000F045FB06003000FEBD4C050008E8
:100B700010B5041E04D1FFF779FF002806D008E065
:100B8000064B1B683F331B78834203D22000FFF7DC
:100B9000CFFE10BDFFF7A2FFEFE7C0464C050008EF
:100BA00070B50500FFF784FEE035074BAD0004008B
:100BB000E8580F231840FFF7DBFF0123A3405B0831
:100BC0001818E04070BDC0460000264030B5FF2533
:100BD00003242A000440E400A24089012940D243B2
:100BE000A14083B200280ADBC0240B4B80088000A0
:100BF000C018A400035913400B43035130BD0F200C
:100C00000340083B05489B089B001B18D86902401D
:100C10000A43DA61F2E7C04600E100E000ED00E0DF
:100C2000144B30B51B6807241A002C3212781F2A87
:100C300015D882081500A5432C1E0FD1033420407F
:100C4000A04081401B68920020339B180A00FF21BE
:100C500081401C68624011406140196030BD1A68D3
:100C6000802320401B06034380208001091889004F
:100C70008B50F3E74C050008064B10B59A68064CFC
:100C800010308300A24202D19858995010BD034AF7
:100C9000D058FBE700ED00E0000000080000001065
:100CA000F7B504000E00002801D1144C17E0002312
:100CB000C55E134B4188134F0193002D11DB2800B3
:100CC000FFF7AEFF61682800FFF780FFBB68019A5D
:100CD0000024934203D131002800FFF7CDFF20000C
:100CE000FEBD08B26168FFF771FFBB68019A9342CD
:100CF000DBD131002800FFF7BFFFD6E70100560027
:100D00000000000800ED00E0FEE7000002680A4B6A
:100D100010B51A6042685A6082689A60C268DA60E8
:100D200002691A6142695A6182699A61C269DA612B
:100D3000FFF7EAFF10BDC04690030008B0235B0533
:100D40005A782120002A01D05878C0B27047B023C9
:100D50005B059A89002A02D0988980B2704780206A
:100D60004000FBE7254B73B586000D00F4580429BD
:100D700001D0012925D100200EE0A3682B420AD121
:100D8000E36829001A685B6868460193009223684B
:100D900098471B4B1C606469002C0AD0194B984281
:100DA000EBD1012DE9D1164A174B126815489A511B
:100DB00076BD012DFCD1134B9842F4D0124B9C51BF
:100DC000F6E7022914D026006469002CFBD100202C
:100DD000002EEDD0B3682B4208D1F36829001A68C1
:100DE0005B68684601930092336898473669EFE77D
:100DF000034B1B68181EDBD01E69E8E7B40500082A
:100E0000B0050008FF0042009C0500081A4B1B6853
:100E1000190088311A6809685118096801621900B7
:100E20008C3109685218126842621A0046321278F0
:100E3000002A1FD09A68E0321268D2061AD5F22230
:100E4000DB68D2019A580260F022D2019A584260BF
:100E50000A4A9A5882600A4A9A58C260094A9A58BD
:100E60000261094A9A584261084A9A588261084ABE
:100E70009B58C3617047C0464C05000804780000C9
:100E8000087800000C78000010780000147800004A
:100E9000187800001A4B1B681900883109681A6815
:100EA0005218016A116019008C3109681A685218C9
:100EB000416A11601A0046321278002A1ED09A68E0
:100EC000E0321268D20619D5F0224168DB68D201FF
:100ED000995081680B4A9950C1680B4A9950016931
:100EE0000A4A995041690A4A99508169094A9950B8
:100EF000C169094A99500168E83299507047C04663
:100F00004C05000804780000087800000C78000008
:100F1000107800001478000018780000F7B505007C
:100F2000FFF70CFF564F01907B68002B00D06FE05D
:100F3000FFF72BFA7B680090002B00D07CE0514B30
:100F400007271C682300BA331B885F43236AFB18FA
:100F50001A68002AFCDADB68DA001ED51B0F4A4843
:100F60001E07FFF753FF22008832126823684749A3
:100F70009B181A6801980A40212862D1902000012C
:100F800002431A6022008C32126823689B181A6888
:100F90000A40104318603C4B3343802292051343B0
:100FA000226A0024BF18FB607C607B68FFF7CFFEDD
:100FB0008023344F5B00984246D1280000F068FA45
:100FC0003F6807223B00BA331E883B6A5643F3183A
:100FD0001A68002AFCDADD68EB0003D52801000955
:100FE000FFF758FF00222A4B00981D403B6AF31878
:100FF000DD605A60FFF7CDF9002C10D1204B5B6803
:10100000002B03D008210120FFF7ACFE2000FEBD1D
:1010100001210800FFF7A6FE041E00D188E7184B47
:101020005B68002B03D002210120FFF79BFE194BC8
:101030009C42EBD0184CE9E704210120FFF792FE17
:101040007DE7802040009BE73B681A00BC32196AAC
:10105000126852181168002910DBBA331B889B18DC
:101060001B68002B0ADB04230C4A11690B43136134
:10107000012D01D030BFA3E720BFA1E7054C9FE7BA
:10108000B40500084C05000874050008FF00FFFFC8
:10109000FFFFFFDF05004200FF00420000ED00E01F
:1010A000C0228020064952008B58C0059B009B0837
:1010B00003438B50802388581B0603438B50704793
:1010C0000000264002B4714649084900095649000B
:1010D0008E4402BC7047C046002243088B4274D342
:1010E00003098B425FD3030A8B4244D3030B8B4229
:1010F00028D3030C8B420DD3FF22090212BA030C32
:101100008B4202D31212090265D0030B8B4219D312
:1011100000E0090AC30B8B4201D3CB03C01A524132
:10112000830B8B4201D38B03C01A5241430B8B427A
:1011300001D34B03C01A5241030B8B4201D30B0363
:10114000C01A5241C30A8B4201D3CB02C01A52418A
:10115000830A8B4201D38B02C01A5241430A8B424D
:1011600001D34B02C01A5241030A8B4201D30B0236
:10117000C01A5241CDD2C3098B4201D3CB01C01A50
:10118000524183098B4201D38B01C01A524143095A
:101190008B4201D34B01C01A524103098B4201D348
:1011A0000B01C01A5241C3088B4201D3CB00C01AB5
:1011B000524183088B4201D38B00C01A524143082D
:1011C0008B4201D34B00C01A5241411A00D2014652
:1011D000524110467047FFE701B5002000F006F8C5
:1011E00002BDC0460029F7D076E770477047C04679
:1011F000002B11D1002A0FD1002900D1002802D0E4
:101200000021C943080007B4024802A14018029017
:1012100003BDC046D9FFFFFF03B4684601B502987D
:1012200000F034F8019B9E4602B00CBC7047C046EB
:10123000F0B5CE469946030C9C46130447461B0C5A
:101240001D000E0061460404240C80B50700100C3C
:101250004B436543414360432C0CC01820188C4617
:10126000834203D980235B029846C44449467943AC
:101270005643030C2D042D0C8919634400044019B6
:10128000C918C0BCB946B046F0BDC046F0B5574617
:101290004E464546DE46E0B504000D0092469946AE
:1012A00083B08B4230D82DD04946504600F0D8F854
:1012B00029000600200000F0D3F8331A9846203B9E
:1012C00034D49B4653465A46934042461F005346E9
:1012D00093401E00AF423BD8AF4200D179E05B465D
:1012E000A41BBD41002B00DA76E00022002300920F
:1012F000019301235A4693400193012342469340B0
:10130000009329E08242CFD900220023009201936A
:101310000C9B002B01D01C605D600098019903B00C
:10132000F0BCBB46B246A946A046F0BD42469B462D
:1013300020239B1A5246DA40414613004A468A400F
:10134000170042461F43534693401E00AF42C3D985
:1013500000220023009201934346002BD8D0FB07C4
:1013600072081A4346467B080EE0AB4201D1A24206
:101370000CD8A41A9D41012024196D410021013E81
:1013800024184D41002E06D0AB42EED9013E24195F
:101390006D41002EF8D1009801995B460019694112
:1013A000002B24DB2B005A464446D3402A00E2405F
:1013B0001C005B461500002B2ADB26009E403300F4
:1013C00026004746BE403200801A994100900191A4
:1013D0009EE7A342BCD882E74246202300219B1A05
:1013E0000022009101920122DA40019285E74246F3
:1013F00020239B1A2A0046469A402300F340444685
:1014000013432A00E2401C005B461500002BD4DA8F
:1014100042462F002023260097409B1ADE403B00C7
:101420003343CDE71C2101231B04984201D3000C58
:1014300010391B0A984201D3000A08391B09984247
:1014400001D30009043902A2105C40187047C0465D
:10145000040302020101010100000000000000007D
:1014600010B5002903D1FFF7DDFF203002E00800AE
:10147000FFF7D8FF10BDC046F8B5C046F8BC08BCA1
:101480009E467047F8B5C046F8BC08BC9E467047FB
:1014900001B40248844601BC604700BF65020008F1
:1014A0000300000001000000010000000000000037
:1014B00005036000040000000100000000000000BF
:1014C0000100000006046000080000002C05000870
:1014D000B101001000002040000024400000004046
:1014E00000000000000023400000304000003140B8
:1014F00000009F40000022400000104000009D407E
:101500002020202020101010101D1D8017007500B5
:10151000FF03060206003604102000007FC0000012
:1015200000040000000000000019324B647D000040
:10153000000000804000080B100000000000FF01C8
:101540002002001F00800004FF0810180010001483
:101550000018001C4044484C5000000008100000D7
:101560000800000004000000041000000012000049
:10157000042100000021000000160000401140027C
:10158000C41300138013A01340138813A813200062
:101590001C00000000000000F4FCFF7F01000000C0
:1015A000000000100000000880000000C0150010BE
:1015B00080000008F8020000B003000818020000D4
:1015C00000093D0000093D0000127A0000093D00BD
:1015D000A00F000004000000F5000010C90000107A
:1015E00080B230B5C400002820D0114B1868030029
:1015F000BA331A8807235343026A9A1811680029DC
:10160000FCDA3E210B4A062511600B4A0B4911609A
:10161000A3210B4AC90055500A495450006A545836
:101620001B18002058605358002BFCDA30BDC04610
:101630004C05000804012640080126401E1F00003A
:10164000000026401C05000010B54378FF2B11D187
:1016500000F00AF90400032000F026F90121C36814
:101660005B681A680A431A601A680A42FCD12000B3
:1016700000F0E2F810BDF7B507000020019100F07E
:1016800013F93F4C050023681A005033BC3216682A
:101690001B788619002B5CD000F0EEF80090032830
:1016A00018D000F0E1F80400364A374BD158002931
:1016B000FCDAD358002B37DB344D009B032B05D1CC
:1016C0000121002000F0E8F80028F9D1200000F006
:1016D000B3F80AE0062000F0E7F82368BC331B6883
:1016E000C0180368002B02DA284D2800FEBD002038
:1016F00000F09AF8264B9842F6D00023254A1900AC
:101700000120126800F0A0F8041EEDD1002000F0C6
:101710008BF81F4A204B904203D09C42E4D0013406
:10172000F4E79C42BDD1DFE7012128001B4A00F00D
:1017300093F80028C0D10198FFF752FF002F06D080
:101740003368002BFCDB00F09FF80500B5E7144D73
:10175000B3E700F089F801210400104A280000F0E6
:101760007BF8002808D1002F08D03368002BFCDB61
:1017700000F08AF80500A9E7044DA7E7084DA5E7A2
:101780004C050008000026401C0500000500520022
:101790000101880060050008F049020050050008BA
:1017A00001005000184BF7B51B6818495A6804230C
:1017B0000C6923430B61012824D030BF1300FC3394
:1017C0001B69002B1DD1A324114B12481249E400C0
:1017D00007681E590D680195104D056006251D51BD
:1017E0003E240C600E4C3E351D511D59002DFCDA77
:1017F0000C4CFC321461A322D20007609E50019B66
:101800000B60F7BD20BFD9E74C05000800ED00E0F4
:101810000000264008012640040126401E1F00004B
:101820001C050000AAAAAAAA01B40248844601BC69
:10183000604700BF3908001001B40248844601BC6B
:10184000604700BF9303001001B40248844601BC06
:10185000604700BFD105001001B40248844601BCB6
:10186000604700BFBD04001001B40248844601BCBB
:10187000604700BF8B03001001B40248844601BCDE
:10188000604700BFE102001001B40248844601BC79
:10189000604700BF5904001001B40248844601BCEF
:1018A000604700BFB907001001B40248844601BC7C
:1018B000604700BFA503001000000000000000000A
:1018C0000000000000000000000000000000000018
:1020000000F80F08712300100D000000E5230010F8
:10201000E5230010E5230010E52300100000000078
:10202000000000000000000000000000F1A000100F
:10203000E12300100000000091A100108DA000100D
:10204000E1230010E1230010E1230010E123001040
:10205000E1230010E1230010E1230010E123001030
:10206000E1230010E1230010E1230010E123001020
:10207000E1230010E1230010E1230010E123001010
:1022E0000348044B834202D0034B03B118477047A5
:1022F000F82B0008F82B0008000000000548064BEA
:102300001B1AD90F01EBA301491002D0034B03B1F3
:1023100018477047F82B0008F82B00080000000051
:1023200010B5064C237843B9FFF7DAFF044B13B11D
:102330000448AFF300800123237010BDE82C00088F
:10234000000000002C12101008B5054B1BB1054908
:102350000548AFF30080BDE80840FFF7CFBF00BFDE
:1023600000000000EC2C00082C1210107047704781
:10237000FFF7FCFF72B6144C144DAC4209DA216829
:102380006268A368043BA2BFC858D050FAE70C3477
:10239000F3E70F490F4A00209142BCBF41F8040BFC
:1023A000FAE70D480D490860BFF34F8F00F084F83D
:1023B00000F068F806F074FE77F04AFB01F054F97B
:1023C00077F06AFBFEE70000381210105012101070
:1023D000E82C0008901F01080020000808ED00E02C
:1023E000FEE7FEE700B504207146084202D0EFF395
:1023F000098002E0EFF30880043050F0D1F9FEE7E5
:1024000008B501204AF032FB08BD704710B5002026
:1024100050F072F800B910BD0446124B18604EF02F
:10242000C9FF0130B4FBF0F00F4B18604EF0DAFF3B
:102430000130B4FBF0F40D4B1C60013C0C4BA3FBD2
:1024400004239B0C01330B4A13700B4BA3FB043486
:10245000A4090134094B1C60002050F04DF8084BD2
:102460001860D8E70423000808230008FC220008AD
:1024700083DE1B4310230008D34D62100C23000899
:102480000023000808B5094847F090FCFFF7BDFF9E
:10249000FFF7BCFF0022114603204AF043FB04482B
:1024A0004AF086F903484AF0E5F908BD2C3D0910C9
:1024B000042D000804C90710EFF3108172B6074A13
:1024C000D2F8883043F47003C2F88830BFF34F8FDE
:1024D000BFF36F8F81F31088704700BF00ED00E0FD
:1024E00008B500F013F900F00FF800F005F900F05E
:1024F0006BF800F07DF808BD08B500F049F800F071
:102500006FF800F09DF808BD08B5002101204EF0DD
:10251000DDFD0922002101204EF04AFC00210120AE
:102520004EF092FD0F2101204EF0D0FD00220F2130
:1025300001204EF03DFC0F2101204EF085FD0021D1
:1025400008464EF0C3FDFF22002108464EF030FC45
:10255000002108464EF078FD012100204EF0B6FD26
:102560001F22012100204EF023FC012100204EF00B
:102570006BFD072100204EF0A9FD00220721104627
:102580004EF016FC072100204EF05EFD08BD000055
:1025900008B5084842F066FB074842F063FB07486D
:1025A00042F060FB064842F05DFB064842F05AFBF1
:1025B00008BD00BF68C907106CC9071060C90710C3
:1025C00070C9071064C9071008B5002211462F20F2
:1025D0004EF0FEFC0022012103204EF0F9FC08BD64
:1025E00008B5024842F03EFB08BD00BF88C907108D
:1025F00010B50D4C0D4A0021204649F0E3FF0C4A6E
:102600000121204649F0DEFF0A4A0421204649F014
:10261000D9FF094A0621204649F0D4FF074A07217D
:10262000204649F0CFFF10BD00033140B8C9071064
:10263000F0C9071098CA071060CA071028CA071007
:1026400008B51B4842F00EFB1A4842F00BFB1A4833
:1026500042F008FB194842F005FB194842F002FB22
:10266000184842F0FFFA184842F0FCFA174842F0C6
:10267000F9FA174842F0F6FA164842F0F3FA16480B
:1026800042F0F0FA154842F0EDFA154842F0EAFA45
:10269000144842F0E7FA144842F0E4FA134842F0D2
:1026A000E1FA134842F0DEFA124842F0DBFA08BDC4
:1026B000D0CA0710D4CA0710B4C90710ECC9071054
:1026C00024CA0710CCCA071094CA07105CCA0710A6
:1026D0008CC9071090C9071094C9071098C9071032
:1026E0009CC90710A0C90710A4C90710A8C90710E2
:1026F000ACC90710B0C90710024B33229A601A61A7
:10270000704700BF00203040FEE7000030B583B0C6
:102710000722002132204EF05BFC9621002050F071
:1027200091F850F021F8C0B9784BD3F8004F04F07D
:102730003F0450F009F830B101204FF0FBFF744B1B
:102740009B6C002B26DB714BC3F8004F4EF040FF13
:102750004EF02CFF01204EF04FFF012050F04CFDB9
:1027600050F0F2FC50F0CCFD50F0B6FD4FF072F896
:10277000002108464EF0BAFE00204EF025FE012052
:102780004EF00AFE00204EF01DFD624B1B6893F8D0
:10279000434006E00620FFF7B7FF20464FF042FB1C
:1027A000013C002CF9D1002101204EF09FFF0020B8
:1027B0004EF08AFE002800F08E80002108464EF080
:1027C00095FF002108464EF05FFE534D0024009413
:1027D000234622462146284649F0F4FD009423462C
:1027E00022460121284649F0EDFD4C484EF0B8FE46
:1027F00000287CD101204EF0B7FD00204EF0E4FD12
:1028000000204EF0C9FD00204EF0DCFC002101202C
:102810004EF06CFF002108464EF068FF00210220B8
:102820004EF064FF002103204EF060FF00210420E1
:102830004EF05CFF002105204EF058FF38484FF065
:1028400023F8002856D137484FF07AFA002854D19F
:10285000002108464EF018FE002108464EF046FEC4
:10286000314901204FF004FB002849D142F2107198
:1028700001204FF025FC002845D100204EF00CFD32
:102880004EF094FE01204EF0B7FE642100204FF080
:10289000D9FFFFF7BBFD254842F0E4F900B101BEC6
:1028A000234842F0DFF900B101BE224842F0DAF9D4
:1028B00000B101BE204842F0D5F900B101BE1F4869
:1028C00042F0D0F900B101BE1D4842F0CBF900B191
:1028D00001BE03B030BD4EF037FF40F211139842F5
:1028E0007FF46BAF012100204EF0CEFD65E705209F
:1028F000FFF70AFF0420FFF707FF0420FFF704FF9C
:102900000320FFF701FF0320FFF7FEFE00F0274042
:1029100000002740C81101080000314040420F006C
:10292000D8CA0710400D030004CB0710ECCA0710EB
:10293000F0CA0710F4CA0710F8CA0710FCCA07103B
:1029400000CB071008B5044850F0FEF808B100208D
:1029500008BD0248FCE700BF14230008000002067F
:1029600010B542F07DF9044638B154B1FFF7B8FD17
:10297000FFF7C2FD5CB1204610BD45F085F9044665
:10298000F3E740F6E441002045F062FAEEE7FFF796
:10299000D9FF0446EFE7000010B5054C054A06498B
:1029A00020464BF00DFC236843F00043236010BD2C
:1029B000000063408C2E000874C9071003680BB92F
:1029C00001207047002070472DE9F04383B0814615
:1029D000884617461E469DF82850224B00936423D4
:1029E0000022014620484BF0A7FCF8B128B11F4B4C
:1029F000984202D0013B984208D11A4B00936423BD
:102A00000122494618484BF0FDFC48B303B0BDE82D
:102A1000F083144B642218F8041013484BF0C6FDE1
:102A200001340028E2D1A742F3D8DFE70446F8E7F3
:102A3000691E0C4B009364233219A14214BF00217C
:102A4000012109484BF066FD013408B9A542EFD8D1
:102A50000028DBD1034A642103484BF02FFDD5E762
:102A60000446F2E78C2E0008000063400520AA000F
:102A700070B582B00E4615460E4B009364230022BB
:102A800001460D484BF058FC90B10A4A64210A48AF
:102A90004BF014FD02B070BD064B6422315D064858
:102AA0004BF084FD01340028EFD1A542F4D8ECE7C7
:102AB0000446F8E78C2E0008000063400000000088
:102AC00010B584B0044641238DF8083002230093EA
:102AD00003AB012202A96820FFF776FF9DF80C30B6
:102AE0001B021BB29DF80D00184372F003FF002279
:102AF000094B73F093F806A3D3E9002372F0AEFDFF
:102B000073F012FA206004B010BD00BFAFF3008074
:102B1000A4703D0AD74342400040754000B587B0DD
:102B200040F26B13ADF80C306B238DF808300122A6
:102B3000009204AB02A96820FFF746FF05909DF8BC
:102B4000103013F0400F05D105A8FFF737FF07B08D
:102B50005DF804FB022203A96820FFF789FF0590B6
:102B600019238DF80C3007228DF80D208DF80830D0
:102B7000022203A96820FFF77BFF0590E4E700002D
:102B80002DE9F04387B006460D4690461F463B238D
:102B90008DF808300623009304AB012202A96820B7
:102BA000FFF712FF03909DF810C04FEA0C2C0FFAAC
:102BB0008CFC9DF811009DF812904FEA09290FFA3C
:102BC00089F99DF8133049EA03099DF8144024025D
:102BD00024B29DF815301C434CEA000072F08AFEC6
:102BE00000221D4B72F0F0FE73F09EF930604846F3
:102BF00072F080FE0022184B72F0E6FE73F094F93A
:102C00002860204672F076FE0022134B72F0DCFE44
:102C100073F08AF907EE900AC8F8000096ED007A82
:102C200027EE077AD5ED006A66EEA66A37EE267AB9
:102C300067EEA77A77EE277A17EE900A72F06CFEAD
:102C400072F0FAFB73F070F9386003A8FFF7B6FE74
:102C500007B0BDE8F08300BF0000103F0000000097
:102C60002DE9F04387B080460F4616469946432328
:102C70008DF808300623009303AB012202A96820D7
:102C8000FFF7A2FE05909DF80CC04FEA0C2C0FFA3E
:102C90008CFC9DF80D009DF80E502D022DB29DF874
:102CA0000F301D439DF81040240224B29DF81130CE
:102CB0001C434CEA000072F01DFE42A3D3E900233E
:102CC00072F0ACFF73F030F9C8F80000284672F0DB
:102CD00011FE3CA3D3E9002372F0A0FF73F024F9A6
:102CE0003860204672F006FE36A3D3E9002372F066
:102CF00095FF73F019F93060D8ED007AB1EE047ADF
:102D0000F4EEC77AF1EE10FA09D5B9EE047AF4EED2
:102D1000C77AF1EE10FA02DD0023C8F80030D7EDD3
:102D2000007AB1EE047AF4EEC77AF1EE10FA08D523
:102D3000B9EE047AF4EEC77AF1EE10FA01DD002361
:102D40003B60D6ED007AB1EE047AF4EEC77AF1EE8C
:102D500010FA08D5B9EE047AF4EEC77AF1EE10FA5B
:102D600001DD00233360D8ED007A134B93ED007A38
:102D700077EE877AC3ED007AD7ED006A0F4A92EDBD
:102D8000007A37EE267A82ED007AD6ED006A0C4B97
:102D900093ED007A37EE267A83ED007AC9ED007A5A
:102DA00011680E9A11601A680F9B1A6005A8FFF748
:102DB00005FE07B0BDE8F083D82E0008DC2E000821
:102DC000E02E0008000000000060604000B585B003
:102DD000C378027941790291019200938378427815
:102DE0000178034875F08CFC05B05DF804FB00BF6A
:102DF0000CCB0710082816D8DFE800F005170709E4
:102E00000B0D0F1113000A4870470A4870470A4813
:102E100070470A4870470A4870470A4870470A488E
:102E200070470A4870470A4870470A48704700BF11
:102E30002CCB071060CB07107CCB07109CCB071066
:102E4000BCCB0710D8CB0710F4CB071018CC071059
:102E500038CC071040CB0710222817D8222824D8B6
:102E6000DFE800F012252323232323231B2323231E
:102E7000232323232323231D23231F23232323232C
:102E800023232323232321000C4870473E2810D0FE
:102E9000B0F5807F0FD10A4870470A4870470A484A
:102EA00070470A4870470A4870470A4870470A48FE
:102EB00070470A4870470748704700BF0CCD07109D
:102EC000F8CC071070CC071084CC0710A4CC0710E6
:102ED000E0CC071048CC071058CC0710C4CC071022
:102EE000FE2800F0A58019D8112812D811280ED874
:102EF000DFE800F00BA25E60626466686A6C6E7068
:102F0000727476787A7C51487047514870475148BE
:102F10007047FC2840F092804F487047FF2800F02F
:102F20008F80C0F08F8048F29873984200F28C80B6
:102F300048F28073984239D3A0F5074080381828AA
:102F400074D801A353F820F0072F0010353000107B
:102F50002D300010F12F0010F52F0010F92F001068
:102F60002D300010FD2F0010013000100530001032
:102F7000093000100D300010113000101530001015
:102F8000193000101D3000102D30001021300010BD
:102F90002D3000102D3000102D3000102D3000107D
:102FA0002D300010253000102930001029487047BE
:102FB0002A4870472A4870472A4870472A4870476D
:102FC0002A4870472A4870472A4870472A4870475D
:102FD0002A4870472A4870472A4870472A4870474D
:102FE0002A4870472A4870472A4870472A4870473D
:102FF0002A4870472A4870472A4870472A4870472D
:103000002A4870472A4870472A4870472A4870471C
:103010002A4870472A4870472A4870472A4870470C
:103020002A4870472A4870472A487047094870471D
:103030002948704729487047294870470548704714
:1030400028487047034870470248704750CF071020
:1030500074D1071020CD0710F8D0071050CD0710FD
:1030600070CD071090CD0710ACCD0710D0CD071054
:10307000F0CD071010CE071034CE071054CE071035
:1030800078CE071090CE0710B0CE0710D0CE071024
:10309000ECCE07100CCF071030CF07108CCF0710E5
:1030A000ACCF0710C8CF0710F4CF071008D0071017
:1030B00024D007103CD0071054D0071068D0071058
:1030C00084D00710A4D00710C4D00710E0D0071098
:1030D0001CD1071038D10710E0CF071070CF0710B0
:1030E00030CD071058D1071000B583B000210191F1
:1030F00001AA094B186809F0F9F9019B4BB14FF08F
:10310000E0234FF08052C3F8042DBFF34F8FBFF37D
:103110006F8F03B05DF804FBF82E000800B583B094
:10312000274875F053FB274875F050FB264875F08B
:103130004DFB012302220021042041F0EBFA00287C
:1031400038D12249042041F051FB012307220221FA
:10315000042041F071FB1E49022069F0DFF81D4890
:1031600069F07EF9FFF7BCFE01461B4875F0C8FA0E
:1031700000221A4B19881A4869F04CF9FFF7B0FE83
:103180000146184875F0BCFA0021019101AA164BBE
:10319000186809F0ABF9019B4BB14FF0E0234FF0F9
:1031A0008052C3F8042DBFF34F8FBFF36F8F03B06E
:1031B0005DF804FB0D4875F009FB01BEC1E700BFD7
:1031C000ACD10710E0D107100CD207103023000853
:1031D000E0220008C53400105CD2071002C90710B5
:1031E000D0C807108CD20710F82E000840D2071064
:1031F00010B584B00C4600230293ADF80C301828AB
:1032000017D0202826D010B1002004B010BD0B88A4
:103210005BB902A869F09AF8134875F071FA02A830
:10322000FFF7D4FDFFF77AFFEEE7104875F0CEFA0E
:10323000EAE70878FFF7DEFD01460D4875F060FA11
:1032400023781BB90B4875F0C1FADDE70A4875F021
:10325000BDFAD9E78B8900934B890A890978074819
:1032600075F04EFAD0E700BFB8D20710D4D20710DD
:10327000E8D2071008D3071020D3071038D307105F
:1032800010B586B000230093019302930393049337
:1032900005938378022B05D0042B1CD000242046F4
:1032A00006B010BD184B1A88ADF814205B88ADF835
:1032B000163042F62B23ADF804306A460421134B36
:1032C000188863F013F904460028E8D00146104836
:1032D00075F016FAE3E70C4B1A88ADF814205B88FA
:1032E000ADF8163042F62B23ADF804306A460521BE
:1032F000064B188863F0FAF804460028CFD0014640
:10330000044875F0FDF9CAE7E82E0008E42E00082D
:10331000A8D30710E0D3071030B587B0002300937F
:103320000193029303930493059300284AD0044623
:1033300083686BB3254875F0E3F92068FFF746FD15
:10334000E188234875F0DCF9E088224B1880224B95
:1033500000221A700123ADF814304FF6FF73ADF858
:10336000163002218DF8001041F60503ADF8043047
:103370006A4663F0BBF8044630B1164B1A88014622
:10338000164875F0BDF91AE0154875F01FFA16E0F9
:10339000144875F0B5F92068FFF718FDE588A08995
:1033A000FFF75AFD024629460F4875F0A9F9002497
:1033B000084B1C800D4B9C72074B01221A70204653
:1033C00007B030BD48F28774F9E700BF10D407108A
:1033D00024D40710E42E0008402300083CD4071032
:1033E00078D4071094D40710A8D40710E82E00084A
:1033F00008B58378042B13D0052B1FD0022B01D0E6
:10340000002008BD028941F605039A42F8D1018BDC
:10341000174B1980428B5A80164875F071F9EFE707
:10342000028A42F62B239A42EAD10189104B9980F5
:10343000C288DA80104875F063F9E1E7028942F644
:1034400002139A42DCD1018B094B198101229A7235
:103450000A4875F055F90A4875F0B8F9094B1B6828
:1034600098690022072100F5D06049F00BF8C7E702
:10347000E82E0008CCD4071004D507105CD507103F
:1034800084D50710C811010810B586B001AB83E8D8
:103490000700144613788DF8143053788DF81530E2
:1034A00000231A4605A90548006807F055F8627818
:1034B0002178034875F024F906B010BDFC2E0008F1
:1034C000B4D5071010B507283AD8DFE800F0041388
:1034D000090E393939340846FFF71EFF044630E03B
:1034E0000846FFF785FF04462BE00846FFF7C8FEB5
:1034F000044626E08B78052B03D00A2B15D0002438
:103500001FE00A89104B1B899A4208D18C8834B974
:103510000E4B1B78ABB90E4875F058F911E089884D
:103520000C4875F0EDF800240BE0083107C9FFF7EF
:10353000ABFF002405E0086806F05AFF002400E015
:103540000024204610BD00BFE82E0008F42E00081D
:10355000C4D50710DCD5071030B585B0054600236B
:1035600002930393022006F033FFD8B1044605709E
:10357000002343708DF80E300C4A1289ADF80820F4
:103580000222ADF80C20ADF80A3000230093234648
:1035900002AA12210648008863F015F8642008F09A
:1035A00095F8F2E7002005B030BD00BFE82E000816
:1035B000E42E000808B54FF0FF320121002008F08A
:1035C0007BFE1D4804F0BEFC1C491D4804F094FC21
:1035D00018B91C4875F0FAF80AE01B4875F0F6F8BF
:1035E00001BE05E0194B9B7A13B1194B1B88ABB98F
:1035F0004FF0FF320121002008F05EFE154B1B78D2
:10360000002BEFD000221146032068F075FE014622
:103610000028EDD0104875F073F8E9E70F4B1878E3
:1036200080F001001870FFF797FF01460028DFD0F7
:103630000B4875F065F8DBE738C90710A4C8071018
:10364000F131001000D607102CD60710E82E000824
:10365000E42E00084023000858D60710F42E000876
:1036600088D607107047000000B583B02C4B0622A7
:103670001A60FFF775F900B101BE62B64FF4E1338D
:103680000093FF231A462821292050F061F90123D5
:10369000062219466F2041F03DF800220221012048
:1036A00007F0B0FB1F4B1860002301930222009229
:1036B0004FF400621C491D4807F0CCFD012820D1C1
:1036C0001B4B01930623009300234FF4806219499A
:1036D000194807F0BFFD012818D1184B01930623A4
:1036E000009300234FF480721549164807F0B2FD8D
:1036F000012810D107F0E6FD01BE002003B05DF8FF
:1037000004FB114875F062F801BED9E70F4875F067
:103710005DF801BEE1E70E4875F058F801BEE9E733
:10372000042F0008FC2E0008C0D60710353E0010FC
:10373000F82E0008F4D60710B5350010002F000849
:1037400028D70710BD390010D4D6071004D70710AA
:103750003CD707102DE9F04385B0DFF8B89000247E
:10376000039402940194012500952346FF224921E8
:10377000484642F095F8DFF8A08003940294019443
:1037800000952346FF224C21404642F089F81F4F06
:1037900003940294019400952346FF224A2138465F
:1037A00042F07EF81A4E0394029401940095234649
:1037B000FF224F21304642F073F8002442F210728B
:1037C0002146484642F02EF942F210722146404608
:1037D00042F028F942F210722146384642F022F9AE
:1037E00042F210722146304642F01CF9484642F03F
:1037F00061F9404642F05EF9384642F05BF93046E6
:1038000042F058F905B0BDE8F08300BF402F000832
:10381000B02F0008082F0008782F000838B5EF29CE
:1038200028D80F2940D9B82804D9A1F11003DBB258
:10383000DF2B53D9B42803D81039C9B2DF297BD97B
:10384000002442F210722146544842F0EBF842F252
:1038500010722146524842F0E5F842F210722146B9
:10386000504842F0DFF842F2107221464E4842F0D2
:10387000D9F818E0002442F210722146494842F07B
:10388000D1F842F210722146454842F0CBF842F29C
:1038900010724649414842F0C5F842F2107243495D
:1038A000414842F0BFF838BD002442F21072214670
:1038B0003A4842F0B7F842F2107221463A4842F0D4
:1038C000B1F842F210723949364842F0ABF842F290
:1038D00010723649324842F0A5F8E4E77F38642395
:1038E00003FB00F1002925DBCC112146304874F0A0
:1038F00007FF002542F2107229462A4842F092F84A
:1039000042F210722946284842F08CF807EE904A9D
:10391000F8EEE77A17EE904A42F2107217EE901A1C
:103920001E4842F07FF842F2107221461C4842F0D5
:1039300079F8B8E77F31D7E7C0F17E00642303FB55
:1039400000F01C4B83FB00230344C417C4EBA314F7
:103950002146194874F0D4FE002542F2107229461F
:103960000E4842F05FF842F2107229460C4842F0CD
:1039700059F807EE904AF8EEE77A17EE904A42F2CD
:10398000107217EE901A074842F04CF842F210728B
:103990002146054842F046F885E700BF082F000899
:1039A000782F0008402F0008B02F00080000F041D9
:1039B0005CD707108320088274D7071000B583B046
:1039C000FFF7C8FE4FF0FF3201A9054B186806F05B
:1039D00097FF9DF805109DF80400FFF71FFFF1E722
:1039E000FC2E000810B582B03EF060FA00282ED1FF
:1039F0001F4A136843F0040313604FF4007006F08D
:103A0000E7FC1C4B186048B3194A136843F00803DD
:103A10001360194B0193194B0093194B194A126803
:103A20004FF400713EF01EFE0446E8B9104A1368D8
:103A300043F010031360002213490F4B18683EF047
:103A400091FD044638B9114874F0C0FE03E0044605
:103A50000F4874F0BBFE204602B010BD0D4874F054
:103A6000B5FE4FF0FF34F6E70B4874F0AFFEF2E717
:103A7000F42F0008EC2F0008E82F000844EB071093
:103A800044230008AC2300089D3A001098EB07106F
:103A90001CEB071054EB071078EB071084B000B54F
:103AA00083B005A880E80E009DF81430D3B1012B37
:103AB00021D1134A136823F020031360114874F0D6
:103AC00085FE02238DF8073000234FF0FF320DF101
:103AD00007010D48006806F03FFD03B05DF804EBF8
:103AE00004B07047064A136843F04003136007A808
:103AF00000F068FBF1E7054874F068FEEDE700BFF1
:103B0000F42F0008C4EB0710F02F0008F4EB0710A7
:103B100030B5A5B053F0D6FA18B10025284625B027
:103B200030BD7822002106A874F0EAFF2A4A06ABCD
:103B300007CA03C31A80294B03CBCDF83900CDF84F
:103B40003D101A889B78ADF841208DF84330244B06
:103B50001F9306A9234874F0D3FD00242546632C47
:103B600032D801A906A853F02BF8054668B1C4F174
:103B7000630341F2883201461B4874F0C1FD41F2F3
:103B8000883007F0A3FD0134E9E706A9174874F06F
:103B9000B7FD174A136843F0020313609DF8043021
:103BA000042B09D0062BB9D102A812F019FF014647
:103BB000104874F0A5FDB1E702A811F031F80146F4
:103BC0000D4874F09DFDA9E70C4874F0FFFD082135
:103BD0000B4874F095FDA1E720EC07102CEC0710C2
:103BE0000400400038EC0710BCEC071054EC071040
:103BF000F42F0008A0EC071084EC07100CED071060
:103C00003CED071010B5044603F086F80346064A5B
:103C10001821204674F0E2FD002801DB002010BDD1
:103C20004FF0FF30FBE700BF74ED071070B588B0B0
:103C3000364B93E803000290ADF80C100023CDF84A
:103C40000E30CDF81230CDF81630CDF81A30ADF870
:103C50001E302F4B2F4A9A601A610E229A819A8247
:103C600002A8FFF7CFFF054688B9294E02AC3460A1
:103C7000204675F09BFF81B2B180274B1A680092F5
:103C80009B882246254874F03BFD2C4617E02448CB
:103C900074F09CFD2FE01E49224B18683EF060F93D
:103CA000054600B3C4F195034FF4FA6201461E487D
:103CB00074F026FD4FF4FA6007F008FD0134952CEE
:103CC0001CD853F0FFF90028E5D1184874F07EFDA8
:103CD000174A136823F002031360FFF719FF054624
:103CE0000028D8D007E0134874F070FD104A13681C
:103CF00043F020031360284608B070BD0E4874F0EE
:103D000065FD05210D4874F0FBFCF4E718F207107F
:103D10004C23000880ED07104423000890ED0710A5
:103D2000C0ED0710E82F000878EE071004EE07102A
:103D3000F42F000858EE0710D0EE0710FCEE071025
:103D400008B52F4B1B6813F0200F19D12C4B1B68A3
:103D500013F0100F21D12A4B1B6813F0080F29D143
:103D6000274B1B6813F0040F29D1254B1B6813F058
:103D7000020F2FD1224B1B6813F0010F35D108BD64
:103D8000204B18683EF0ECFA18B91F4874F01EFD7D
:103D9000DCE71E4874F01AFDD8E71A4B18683EF0AD
:103DA0002BFB18B91A4874F011FDD4E7194874F0C8
:103DB0000DFDD0E7184B186806F01AFBD0E73EF06F
:103DC00085FB18B9154874F001FDCEE7144874F06E
:103DD000FDFCCAE752F09AFE18B9124874F0F6FCDE
:103DE000C8E7114874F0F2FCC4E753F0D9FA18B9E7
:103DF0000E4874F0EBFCC2E70D4874F0E7FCBEE738
:103E0000F42F0008E82F000830EF071058EF0710D4
:103E100084EF0710B0EF0710EC2F0008D8EF071061
:103E2000F4EF07101CF007103CF0071064F00710C7
:103E300088F0071000B591B000228DF8082001210C
:103E4000032006F0DFFF434B186002A852F062FC2B
:103E500008BB414A136843F0010313603F4874F004
:103E6000B5FCFFF755FEC8B9FFF7BCFDB0B9FFF7C9
:103E7000DDFE98B93A4B01930223009300234FF4DF
:103E800080623849384807F0E5F901281ED03748E4
:103E900074F09CFC02E0364874F098FC354874F0ED
:103EA00095FC354B186808B108F048F82C4B186899
:103EB00008B108F043F8FFF743FF304874F086FC80
:103EC000002008F03BF811B05DF804FB2C48FFF728
:103ED000C9FB10E02B4874F079FCFFF7A7FE00281F
:103EE000DCD100238DF80C304FF0FF3203A92648B7
:103EF000006806F031FB4FF0FF320DF13F01154B2A
:103F0000186806F0FDFC0128F5D19DF83F30022B22
:103F1000F1D101238DF80C3000234FF0FF3203A9BB
:103F20001948006806F018FB184B18683EF018FA9C
:103F300053F0C8F80028CDD1074A136823F00203D4
:103F40001360134874F042FCFFF7E2FD0028C1D073
:103F5000A4E700BFF02F0008F42F0008E0F00710DE
:103F6000F82F000808F107107D40001018F1071025
:103F7000ACF00710BCF1071038300008ECF1071066
:103F80003CF1071098F10710FC2F0008E82F0008FB
:103F900074F1071000B58FB000230D9302228DF845
:103FA00004200DAA01A90948006806F0BBFB0D9B7F
:103FB0004BB14FF0E0234FF08052C3F8042DBFF314
:103FC0004F8FBFF36F8F0FB05DF804FBFC2F00081D
:103FD00030B583B0FEF7E0FC0022FF211C4844F01E
:103FE00079FA034610B33BB36BBB194C04F10805D7
:103FF00000221849284644F05BF80122009203236E
:104000002946204644F094F8204644F08DFA124B9D
:104010005968124874F074FB0021009102230A468B
:104020000F48006808F09EF903B030BD0D490848FC
:1040300044F0AAFA0346D6E742F21071044844F06D
:10404000B5F90346D0E7084874F0C0FBECE700BFC1
:1040500000300008953F0010B023000830F2071030
:10406000F82E0008D0F307106CF2071008B50248CC
:1040700044F072FA08BD00BF0030000830B5E5B06A
:10408000FFF7A6FF00223021032006F0BBFE464BBF
:10409000186001E0FFF7EAFF4FF0FF3258A9424BEA
:1040A000186806F02DFC0128F6D19DF86031012B2F
:1040B000F0D0022B04D0002BEED1FFF789FFEBE705
:1040C000FEF72CFD5CAB5BAA5AA959A8FEF758FD78
:1040D00063A8FEF7F5FC62AB019361AB009360ABA4
:1040E0005FAA5EA95DA8FEF7BBFD17AD639871F0EE
:1040F00013FCCDE91401629871F00EFCCDE91201B8
:10410000619871F009FCCDE91001609871F004FC30
:10411000CDE90E015F9871F0FFFBCDE90C015E98CF
:1041200071F0FAFBCDE90A015D9871F0F5FBCDE97C
:1041300008015C9871F0F0FBCDE906015B9871F025
:10414000EBFBCDE904015A9871F0E6FBCDE90201E1
:10415000599871F0E1FBCDE90001144A4FF48071E8
:10416000284674F03BFB124CE560284675F01EFDB6
:10417000206121460F4B18683DF0F2FF014618B947
:104180000D48FFF76FFA87E70C4874F0B9FA01237E
:104190008DF85F3100234FF0FF320DF25F110848B8
:1041A000006806F0D9F9EBE7FC2F000894F207103D
:1041B000B0230008E82F000894F307105CF3071001
:1041C000F02F000800B585B0C26803690192009322
:1041D00090F9003042680189084874F091FA02238E
:1041E0008DF80C3000234FF0FF3203A9044800681B
:1041F00006F0B2F905B05DF804FB00BFE0F307106C
:104200003C300008000000000230800803D001307C
:104210000238FCD100BF00BF7047EFF3108072B6C8
:10422000704780F310887047B0F1FF3F22D008B389
:1042300038B5C50E43011B1A65F10005AD0045EA0E
:1042400093759B001B1845F10005ED0045EA537579
:10425000DC004FF47A7200232046294671F004FFF7
:104260006FF47A73A34240F2E733AB4101D26FF0AF
:10427000010038BD704708B543F0E8FD002008BDD7
:10428000034B0360034B0B6080231360704700BF38
:104290005836000858300008034B0360034B0B608E
:1042A0004FF48073136070471437000858320008C9
:1042B00070B582B0054600230193244B1B686BB197
:1042C000224B1B6843B1FFF7A8FF044607F0CCFC64
:1042D00070B92046FFF7A5FF02B070BD1C4841F041
:1042E0007FF818B9194B1A4A1A60E9E701BEE7E7E7
:1042F0004FF47A7605FB06F6164DA5FB0635AD099B
:10430000FFF7B9FF85420CD813480028E1D1019B83
:10431000AB4200D901BE0198FFF786FF07F02EF8E7
:10432000D7E7012301AA291A0848006843F018FDBD
:104330000A4B9842E9D1B6F57A7FCAD3002301AA85
:1043400029460248006843F00BFDDEE740300008D4
:1043500044300008D34D621000000E06051A020416
:1043600008B508F0BCFB03680BB14068984708BD6E
:104370002DE9F04784B00C9D002843D00F469046AD
:104380001C468146B5F5967F3ED313B113F0070F57
:104390003ED184B3002606F1C80006F019F8824623
:1043A000002837D025F00705AD083CB3564403225A
:1043B0000021012006F026FDC6F8BC0000B3184B12
:1043C000C6F8C030C6F8C4A016F0070F00D001BE72
:1043D000029601949DF8343000930E9B2A46414684
:1043E000384607F059FDC9F80000864214D0A8B13C
:1043F00001BE002009E025F00706CCE70446D5E71A
:1044000001BEDCE7074800E0064804B0BDE8F087DD
:104410000548FAE70548F8E70020F6E70020F4E74A
:1044200001EFCDAB05000E0606000E0601000E06DC
:1044300010B507F03DFC0446D0F8C020074B9A4267
:1044400004D001BE204607F00DFAFBE700231A4610
:104450001946D0F8BC0006F07FF8F3E701EFCDABCA
:10446000E0B110B50446006807F068FD246807F065
:10447000C5FDD4F8C0200A4B9A4203D007F080F85B
:10448000002010BD0023C4F8C030D4F8BC0006F0F2
:10449000E5FDD4F8C40005F0ABFFEFE70148704735
:1044A00001EFCDAB05000E06A8B110B504460368B8
:1044B000D3F8C010094A914203D0002000232360A2
:1044C00010BD4FF0FF31D3F8BC0006F0C8FA20460B
:1044D000FFF7C6FFF2E70248704700BF01EFCDAB20
:1044E00005000E0680B110B50446017131B10420FB
:1044F00006F0DBFC206028B1002010BD012006F092
:10450000D4FCF7E70148F8E70148704701000E06C0
:1045100005000E0698B110B504460846FFF784FE64
:10452000014623792BB1206806F06AFB28B10020F0
:1045300010BD206806F093FAF8E70248F8E7024851
:10454000704700BF00000E0605000E0688B108B5D2
:1045500003792BB1006806F0C4F840B1002008BD13
:1045600000231A461946006805F0F6FFF5E70248F1
:10457000F5E70248704700BF02000E0605000E0670
:1045800060B330B583B00C46054649B300230193B0
:10459000EFF305839BB1002301AA006806F0C2F87F
:1045A000012815D1019B9BB14FF0E0234FF08052C1
:1045B000C3F8042DBFF34F8FBFF36F8F08E0104691
:1045C000FFF732FE024600232146286805F0C4FFAB
:1045D00010B9044803B030BD0020FBE70248704723
:1045E0000148F7E702000E0605000E0650B330B58D
:1045F00083B00C46054639B300230193EFF30583DE
:1046000093B101AA006806F05BFC012814D1019B5C
:1046100093B14FF0E0234FF08052C3F8042DBFF365
:104620004F8FBFF36F8F07E01046FFF7FDFD024687
:104630002146286806F064F910B9044803B030BD7B
:104640000020FBE7024870470148F7E702000E062A
:1046500005000E0628B108B5006806F0FFFC002032
:1046600008BD0148704700BF05000E0660B110B5D7
:104670000B4611460446184606F0F4FB206008B1CC
:10468000002010BD0148FCE70148704701000E06FC
:1046900005000E0630B583B00023019330B3054604
:1046A000EFF3058303B119BB0846FFF7BDFD0146D3
:1046B000EFF305849CB101AA0021286806F000FCF4
:1046C000C0B1019BC3B14FF0E0234FF08052C3F85B
:1046D000042DBFF34F8FBFF36F8F002403E02868D2
:1046E00006F0BDF950B1204603B030BD044CFAE7E6
:1046F000034CF8E7034CF6E70024F4E7014CF2E73B
:1047000005000E0600000E0600B583B000230193DD
:1047100010B3EFF3058393B101A9006806F083F8A5
:10472000012812D1019B83B14FF0E0234FF080525A
:10473000C3F8042DBFF34F8FBFF36F8F05E0002345
:104740001A461946006805F007FF18B1002003B0AB
:104750005DF804FB0148FAE70148F8E702000E069D
:1047600005000E0628B108B5006806F077FC0020A9
:1047700008BD0148704700BF05000E0668B110B5BE
:104780000B46114604460022184606F03BFB20600B
:1047900008B1002010BD0248FCE70248704700BF86
:1047A00001000E0605000E0678B110B50C4671B179
:1047B000EFF305822AB1006806F0F0FB20600020CC
:1047C00010BD006806F03DFAF8E70248704701485E
:1047D000F6E700BF05000E0628B108B5006806F030
:1047E0003DFC002008BD0148704700BF05000E06D3
:1047F00028B32DE9F04182B00F4614461D4680468D
:10480000FAB1082071F030FE0646E0B10460456060
:1048100077B901220D4B0093334601210C4808F073
:10482000F1F8C8F8000028B1002002B0BDE8F0811E
:104830000022EFE7304671F01FFE0648F5E7064814
:1048400070470548F1E70348EFE700BF61430010F8
:10485000E408091001000E0605000E06002853D0DA
:1048600030B585B004460846FFF7DEFC0246EFF39C
:10487000058383B300230393009303AB09212068CE
:1048800008F0DCF801282ED1039B4BB14FF0E02358
:104890004FF08052C3F8042DBFF34F8FBFF36F8FDB
:1048A00000250395246807F0B7FB0246009503AB8B
:1048B0000621204608F0C2F8012814D1039B93B1C9
:1048C0004FF0E0234FF08052C3F8042DBFF34F8F19
:1048D000BFF36F8F07E0002300930421206808F0E6
:1048E000ADF8012803D068B1002005B030BD2468C0
:1048F00007F08CFB0246002300930121204608F0BC
:104900009DF8F0E70148F0E70148704702000E0605
:1049100005000E0648B300B585B0EFF30583B3B1CB
:1049200000220392009203AB0821006808F086F889
:10493000012813D1039B8BB14FF0E0234FF080523D
:10494000C3F8042DBFF34F8FBFF36F8F06E0002233
:10495000009213460321006808F070F818B1002097
:1049600005B05DF804FB0248FAE70248704700BF53
:1049700002000E0605000E0658B110B50C4651B1E6
:10498000006808F091F8003818BF0120207000205E
:1049900010BD024870470148FAE700BF05000E0647
:1049A000B0B130B583B00546006808F098F8044609
:1049B0000022009213460521286808F03FF810B93C
:1049C000044803B030BD204671F056FD0020F8E7E2
:1049D0000148704702000E0605000E0630B110B502
:1049E000044607F013FB2060002010BD004870470C
:1049F00005000E0608B5FFF717FC06F067FE00205D
:104A000008BD10B582B004464FF0FF32694620461B
:104A1000FFF7ECFD0028F7D1009B13B101989847F0
:104A2000F2E7FFF705FD02B010BD000070B584B0DD
:104A300004460E4601B100B901BEB36813B17368F4
:104A400003B901BE002323606360A360E3603169A2
:104A500001B9102108222046FFF790FE054680B9D3
:104A60000123237304F10800F2686AB17368317896
:104A7000029401910093B3680749FFF779FC05465A
:104A800020B9284604B070BD044AEFE70023237321
:104A90002046FFF7A1FEF4E7034A00105CF407107C
:104AA00070B582B00446FFF7B8FB0546237BCBB355
:104AB000012B13D00026237B042B24D1237B93B31B
:104AC0002846FFF7AEFB2046FFF786FE064668BB8A
:104AD000FFF7A3FB05460023237324E0032323737E
:104AE000FFF79FFB00220092019269462046FFF7E4
:104AF00047FD06460028DED0FFF78FFB0123237316
:104B0000FFF78FFB12E02846FFF78BFB04F108004C
:104B1000FFF7CAFC064648B9FFF77FFB05460423AA
:104B20002373CBE700262846FFF77BFB304602B015
:104B300070BD000070B582B00D461646044618B32D
:104B400025B3FFF76AFB237B013BDBB2012B1FD8A8
:104B500063680133636002232373FFF762FB0095F0
:104B60000196002269462046FFF70AFD0546FFF739
:104B700054FB6368013B63600BB901232373FFF7A8
:104B800050FB284602B070BD01BED9E701BED8E790
:104B9000FFF747FB004DF4E720000E06401A704770
:104BA0000238032803D8DFE800F00A0406080020D2
:104BB0007047502070476220704770207047402037
:104BC000704748B151B10B7803B14AB10B694BB191
:104BD000CB684BB10020704701207047012070471F
:104BE0000120704700207047012070472DE9F047F1
:104BF00068B10F4615460646836E7BB1426DA2B181
:104C0000D1B1984780464FF00009CA4630E0274BA3
:104C1000274A40F25E21274871F0EAFB264B244ADE
:104C200040F25F21234871F0E3FB244B204A4FF40C
:104C30001871204871F0DCFB214B1D4A40F26121C4
:104C40001C4871F0D5FB1F4B194A40F27E211948D0
:104C500071F0CEFBB36E98474146FFF79FFFB0F56A
:104C6000FA7F05D34FF0010902E04FF00109A24697
:104C70009DB1B9F1000F10D1736D2A463946B06D60
:104C80009847041EF1DBE5DDB36E98478046AC42E1
:104C9000D9D82D1BA2442744EAE7BAF1000F01DD61
:104CA000C6F870805046BDE8F08700BF68F4071072
:104CB00080F707107CF40710F4F4071010F50710C4
:104CC0003CF507104CF507102DE9F04F83B0A8B163
:104CD0000D468046036E8B4217D3D0F868B0BBF107
:104CE000000F19D0D0F850A0BAF1000F1BD0C66D3C
:104CF00006B3D84701900027B94634E0254B264A31
:104D000040F2D621254871F073FB254B224A40F230
:104D1000D721224871F06CFB224B1F4A4FF43671A9
:104D20001E4871F065FB204B1B4A40F2D9211B48FD
:104D300071F05EFB1D4B184A40F2DA21174871F002
:104D400057FB1B4B144A40F2FA21144871F050FBF8
:104D5000D8470199FFF722FFB0F57A7F03D30127E7
:104D600001E00127A14685B17FB92A463146D8F82E
:104D70005800D047041EF4DBEADDD8470190AC426E
:104D8000DFD82D1BA1442644EDE7484603B0BDE81B
:104D9000F08F00BF68F4071044F707107CF4071089
:104DA00074F50710F4F40710A0F50710CCF5071000
:104DB000F4F507102DE9F84F68B10E46934680468A
:104DC000D0F868A0BAF1000F0CD0046ED04781462D
:104DD00000273D4614E0164B164A40F22231164891
:104DE00071F006FB154B134A40F22331124871F063
:104DF000FFFA21464046FFF767FF844208D00127AB
:104E0000B5420ED26FB9731BA342F2D21C46F0E733
:104E10000544D0474946FFF7C1FE5845F0D3012766
:104E2000EEE7B54202D00420BDE8F88F0720FBE78B
:104E300068F4071050F707107CF40710F4F407101B
:104E400010B584B004AC04E90E0058B1C26D82B153
:104E5000039C026E944213D9069A2146FFF7AAFFDB
:104E600004B010BD0B4B0C4A40F25F310B4871F09F
:104E7000BFFA0B4B084A4FF45871084871F0B8FA62
:104E80002146FFF721FF844201D00420E8E70020FB
:104E9000E6E700BF68F4071060F707107CF407101E
:104EA000CCF5071050280FD062280FD040280FD023
:104EB000702801D10320704708B5064B064A40F21E
:104EC000C121064871F094FA012070470220704712
:104ED000002070471CF6071004F707107CF4071039
:104EE00070B5A0B10C4615460646B9B1EAB1C16D20
:104EF00011B323690BB1E3682BB32A463046FFF7A1
:104F000075FE85422FDC226922BB002070BD184B44
:104F1000184A40F27951184871F06AFA174B154A4D
:104F200040F27A51144871F063FA154B114A40F27D
:104F30007B51114871F05CFA124B0E4A40F27C51E1
:104F40000D4871F055FA104B0A4A40F27D510A485B
:104F500071F04EFAE1683046FFF748FE236983425C
:104F600003DC0020D2E70320D0E70320CEE700BF18
:104F700068F40710F4F707107CF4071044F60710E4
:104F80005CF60710CCF507106CF607102DE9F04F12
:104F900083B068B10F469346984606467BB1D0F879
:104FA00068A0BAF1000F11D0D047814600251FE05C
:104FB0002E4B2F4A4FF4B7612E4871F019FA2E4B41
:104FC0002B4A40F2B9512B4871F012FA2B4B284A68
:104FD00040F2BA51274871F00BFAD0474946FFF723
:104FE000DDFDB84234BF00200120072C0FD170B97D
:104FF0004246B16D306D01F072F90446002FECD1DC
:10500000012D94BF002001200135ADB2EDE7ACB910
:10501000D0474946FFF7C2FD874206D93F1A98F8A4
:105020000030202B03D0052409E00027F7E7009784
:1050300098E80E003046FFF703FF044654B12CB940
:10504000BBF1000F02D00C9B1B786BB9204603B05C
:10505000BDE8F08FF36DC8F804300C9A002140468B
:1050600001F0F1F80446EAE70524EFE768F40710D9
:1050700070F707107CF40710B8F60710F4F4071067
:10508000F0B585B000238DF80F3048B10D460646C7
:105090001046FFF785FD044648B9204605B0F0BD2F
:1050A000144B154A40F2B131144871F0A1F9FFF7E1
:1050B000F9FE07462A46214606F15C0001F044F855
:1050C00008B10324E9E70422F16D3046FFF78EFDB5
:1050D000042801D00324E0E7012386F874300DF1A1
:1050E0000F03009300233A462946304601F0F1FBB6
:1050F0000446D2E768F407101CF707107CF4071089
:1051000030B583B0002301938DF8033048B10546D4
:10511000F9B10DF1030201A901F02DFC01460024B3
:1051200013E0134B134A4FF4C661134871F060F952
:105130009DF803202846FFF7A3FF04460DF1030264
:1051400001A9284601F017FC014669B1002CEFD0F7
:105150000AE028242246002173F0D2FC22460021D6
:10516000281973F0CDFC0024204603B030BD00BFE9
:1051700068F407102CF707107CF40710F0B587B01F
:1051800000238DF8173020B30C46054641B3C76E97
:105190006FB30878FFF786FE0646002205A9204671
:1051A00001F051F850B390B9BDF81430ADF80830A3
:1051B0008DF810000023039302AA21462846B84721
:1051C0009DF81720BDF814102846FFF759FF07B0C7
:1051D000F0BD104B104A40F28141104871F008F9BF
:1051E0000F4B0D4A40F282410C4871F001F90D4B12
:1051F000094A40F28341094871F0FAF80DF11703AA
:10520000009301233246BDF81410284601F061FBDB
:10521000C9E700BF68F407108CF707107CF407108B
:10522000B8F60710D0F60710F0B585B00023ADF83A
:105230000E30A8B10C4615460646C1B1C76EEFB197
:105240000B78B02B27D034D8702B04D021D8502B1A
:1052500001D0622B19D121463046FFF78FFF26E09F
:10526000284B294A4FF49961284871F0C1F8284B1E
:10527000254A40F2C941254871F0BAF8254B224A27
:1052800040F2CA41214871F0B3F8402BE3D0052029
:105290000DE0902B0AD100220DF10E01204600F006
:1052A000D2FFF0B106281AD000231BE0052005B07C
:1052B000F0BDD02B0AD100220DF10E01204600F0E6
:1052C000C2FF034620B925B9012302E00520EEE71D
:1052D000002338B935B1002286F87C2002E0012392
:1052E00000E00123002BE2D0BDF80E30ADF8003015
:1052F0008DF80800002501956A4621463046B847DA
:105300002846D4E768F40710A0F707107CF40710CC
:10531000B8F60710D0F60710F0B585B01D4600238B
:105320000393029360B10C461646074679B1ADB1BE
:1053300002AA03A9204600F08FFEB0B105B0F0BD6F
:105340000E4B0F4A4FF4CB610E4871F051F80E4BE3
:105350000B4A40F259610B4871F04AF80B4B084A6E
:1053600040F25A61074871F043F8009507F15C0379
:10537000039A3146204600F08AFEDFE768F4071002
:1053800000F807107CF4071044F60710F0F6071039
:1053900070B58CB000238DF82F30ADF82C3030B3C1
:1053A0000D46064651B3C36E7BB306AA0BA9284629
:1053B00000F02FFF044678B3B4B90022BDF82C30BA
:1053C000ADF80C3006AB04938DF8144022B9F36E9F
:1053D00003AA2946304698479DF82F20BDF82C1087
:1053E0003046FFF74DFE044620460CB070BD184B0A
:1053F000184A40F20F41184870F0FAFF174B154A4F
:105400004FF48261144870F0F3FF154B114A40F2DB
:105410001141114870F0ECFF0DF12F0300939DF83E
:1054200018300122BDF82C10304601F0FBF960B1B4
:10543000092801D00446BFE79DF81810012001F0AB
:10544000DEF98DF82F000122B8E70446B4E700BF6B
:1054500068F40710B4F707107CF40710B8F60710CB
:10546000D0F6071028B3F8B50C4616461D46074679
:1054700009B3069B0BB312B31DB30B681BB34B6888
:105480001BB38022002173F03BFB07F1500394E82B
:10549000070083E80700BE66FD6607F15C03069A15
:1054A00092E8030083E803000123A7F8643000209A
:1054B00002E0012070470120F8BD0120FCE7012037
:1054C000FAE70120F8E70120F6E70120F4E72DE9EB
:1054D000F04389B00D4690469946109E00240794EB
:1054E0000694039404940594074648B1E1B1EEB1E3
:1054F00006AB07AA4146284600F052FD044600E0EC
:105500000124ACB1ECB134B374B34CB9012387F8C6
:1055100066306B88A7F87630002387F87C30BB674D
:10552000204609B0BDE8F0830124EAE70124E8E75A
:1055300007F15C03079A4146284600F067FD0446E0
:10554000E0E7069AF96D3846FFF750FB069B834269
:10555000D9DD0324D8E7009603AB2A7849463846BC
:10556000FFF714FD0446CFE731783846FFF7C8FD52
:105570000446CAE770B584B005460C4616460023BB
:1055800003938DF80B30FFF71CFB68B108B9227844
:105590008AB920B9039A21462846FFF7A1FC08B929
:1055A000237893B904B070BD03AB32462146284638
:1055B000FFF7B2FEEAE73146284601F00BF9092869
:1055C000E7D1A378002BE5D1E3E70DF10B020092C0
:1055D00000223146284601F025F9E3E730B583B0D3
:1055E00000230193054640B101A800F0F5FD0446F3
:1055F0002CB154B1204603B030BD0124F8E705F1C9
:105600005C0000F0F0FD0446F3E7019AE96D2846DE
:10561000FFF7ECFA019B834205DC2B6FAB6701239C
:1056200085F87C30E6E70324E4E7000070B5E8B1D4
:105630000546836E0BB398470646B5F876404FF49F
:105640007A7303FB04F41CB3296FFFF7A7FAA04297
:1056500020D995F87C30BBB1A96F3046FFF79EFA90
:1056600041F28833984217D8002012E00B4B0C4AC5
:1056700040F2E7310B4870F0BBFE0B4B084A4FF489
:105680007A71084870F0B4FE2846FFF7A7FF00E0E3
:10569000002070BD0020FCE70A20FAE768F407103C
:1056A000CCF707107CF40710F4F40710F0B587B0BE
:1056B00008B30E4617460546C36D1BB303AA816D9A
:1056C000006D00F00CFE0446072822D050B36CB9E0
:1056D000EB6D04939DF80C3003F0F003302B2AD0CF
:1056E0003A4603A92846FFF79FFD0446072C28D019
:1056F000204607B0F0BD144B144A40F20E51144836
:1057000070F076FE134B114A40F20F51104870F0C2
:105710006FFE1FB90028E9D00446D8E72846FFF7F6
:1057200085FFF7E7009606AB13E90E002846FFF762
:1057300087FB0446CBE703A92846FFF729FE04466A
:10574000D4E70024D4E700BF68F40710DCF70710A3
:105750007CF40710CCF5071030B583B0002301931B
:10576000054660B101A800F01AFD04464CB174B1C1
:1057700014B9002385F86630204603B030BD0124FB
:10578000F4E705F15C0000F011FD0446EFE7019A33
:10579000E96D2846FFF72AFA019B8342E8DD0324DE
:1057A000EAE72DE9F0410F460646F0B1836E03B3F8
:1057B000C26D12B398478046002586F874503C4667
:1057C00000E03C1A75B9012221463046FFF76EFF12
:1057D00005460028F6D1B36E98474146FFF7DEF93B
:1057E0008742EED82846BDE8F0814FF00008012539
:1057F000E5E74FF000080125E1E74FF0000801253B
:10580000DDE7034668B1B0F864004FF6FF729042DE
:1058100003D0421CA3F8642070470122A3F864203F
:10582000704700207047B0B10346B1B1BAB10078FB
:10583000902801D001207047586890B110B49C683E
:10584000022C10D9023008609B68023B13600020D4
:105850005DF8044B7047012070470120704701201C
:105860007047012070470120F2E77F2807D9B0F583
:10587000804F06D3B0F5001F05D2032070470120EA
:10588000704702207047042070472DE9F04182B034
:1058900007460E4600248DF80740A046012512E079
:1058A0009DF8073003F07F0305FB0344ED0108F189
:1058B000010801E04FF08054B4F1805F10D09DF9F1
:1058C0000730002B0CDAB5F5001FF3D801220DF1DB
:1058D00007013046B8470128E2D04FF08054EBE78B
:1058E000B4F1805F06D02046FFF7BFFF804501D0AE
:1058F0004FF08054204602B0BDE8F08100F0F00384
:10590000602B22D006D9B02B28D014D9D02B1AD096
:1059100000207047402B1DD003D9502B09D0002008
:105920007047202B18D0302B01D000207047012069
:10593000704701207047702B12D0902B01D00020AF
:105940007047012070470120704710F0020F09D105
:1059500000207047012070470120704701207047E8
:10596000012070470120704719B9824206D80846C5
:1059700070470232824203D80020704705207047EA
:105980000520704708B560B90A4B0B4A40F2D9119F
:105990000A4870F02DFD42F0800200F8012B7F2BA9
:1059A00006D901F07F020B46C9097F2BF5D9F2E732
:1059B00008BD00BF14F8071060FC07102CF8071092
:1059C0002DE9F041E8B10F461646034601B332B364
:1059D0000289901C197801B1101D174C241AD3F8B4
:1059E0001080A04522D808EB00052846FFF73DFFB0
:1059F000241AA0451DD83D600130284430600120A4
:105A000015E00E4B0E4A40F21E210E4870F0F0FCDD
:105A10000D4B0B4A40F21F210A4870F0E9FC0B4B7A
:105A2000074A4FF40871074870F0E2FC0020BDE817
:105A3000F0810020FBE700BFFEFFFF0F44F60710D8
:105A400020FD07102CF80710E0F80710FCF80710ED
:105A500008B581B10B4610F0040F13D010F0020FFF
:105A600019D102220A7000F001025A70C0F3C0007E
:105A70009870002008BD094B094A40F24B31094893
:105A800070F0B6FC10F0020F02D001220A70EAE7B3
:105A900000220A70E7E70520ECE700BF44F6071094
:105AA000E0FC07102CF80710F8B5002830D00F469E
:105AB00014460646002932D0002A37D04568002D0A
:105AC0003BD00078114600F00F00FFF7C1FF20B96E
:105AD00003222178B068FFF747FF48B92B786A782E
:105AE00042EA0322228102322178B068FFF73CFFAC
:105AF00050BB023565602389EA18217829B3E95C37
:105B0000537843EA01233B800232F3B905202AE0AF
:105B1000154B164A4FF49B61154870F069FC154B04
:105B2000124A40F2D941124870F062FC124B0F4AFF
:105B300040F2DA410E4870F05BFC104B0B4A40F229
:105B4000DB410B4870F054FC002260B9B368218936
:105B50005B1A023B2361217809B1023B236123696F
:105B600003B90022E260F8BDB8F60710F4FC071094
:105B70002CF8071010F9071044F6071024F9071045
:105B800010B586B08646EC46094C0FCCACE80F0049
:105B900094E803008CE80300BEF1050F01D806B0BD
:105BA00010BD044B044A40F28B31044870F020FCD5
:105BB0000CFC07104CF90710B8FC07102CF8071064
:105BC00010B538B169B142688368022B10D0052442
:105BD000204610BD154B164A40F2A131154870F011
:105BE00007FC154B124A40F2A231124870F000FC3B
:105BF000137833F0010001D00524E9E713F0010F19
:105C000005D001230B7053781BB10524E0E7002376
:105C10000B705478052C01D90524D9E72046FFF7ED
:105C2000AFFF002CD4D00624D2E700BF60F90710E4
:105C3000CCFC07102CF8071074F9071008B521B137
:105C400084468E46002318460AE00A4B0A4A40F270
:105C500041410A4870F0CCFB802A08D1062001336C
:105C6000634505D21EF80320022AF5D8F7E7052080
:105C700008BD00BF8CF9071090FC07102CF8071026
:105C800008B538B1034661B180685B6802280FD857
:105C9000052008BD0C4B0D4A40F27A410C4870F0CB
:105CA000A7FB0C4B094A40F27B41094870F0A0FB6E
:105CB00093F800C05A7842EA0C220A80991C0238F4
:105CC000FFF7BCFFE5E700BFA4F90710A4FC07102D
:105CD0002CF80710B4F9071008B518B1836843B958
:105CE000002008BD044B054A40F25651044870F0AC
:105CF0007FFB0520F5E700BFD0F907103CFC07103B
:105D00002CF8071008B528B159B18268022A0FD0C3
:105D1000052008BD0C4B0D4A40F233510C4870F081
:105D200067FB0C4B094A40F23451094870F060FBA4
:105D300043681A785B7843EA02230B800BB100209A
:105D4000E7E70520E5E700BFE4F9071024FC0710AA
:105D50002CF80710B4F9071038B558B11446120AD8
:105D600002704470851C19B12246284673F010FF5A
:105D7000281938BD034B044A40F2FD11034870F066
:105D800037FB00BF14F8071050FC07102CF8071061
:105D900070B5002850D00E4611461D460446002B13
:105DA00051D01868002855D0102300F8013BFFF7A8
:105DB000E9FD04223249FFF7CFFF04230370237863
:105DC00003B10223E2680AB143F0800362690AB1B9
:105DD00043F04003002E4AD043F0040231780129F9
:105DE0003FD0022940D0737813B142F02002D2B2E2
:105DF000427063881B0A8370A378C370228961682C
:105E00000430FFF7A9FF3EB132897168FFF7A4FFA4
:105E1000328AF168FFF7A0FFE16811B1228AFFF72B
:105E20009BFF616911B1228BFFF796FF2B68C01AA7
:105E30006B6898421DD870BD124B134A40F26E51E8
:105E4000124870F0D5FA124B0F4A40F26F510F48CA
:105E500070F0CEFA0F4B0C4A4FF4AE610B4870F065
:105E6000C7FA43F00C02BEE743F01402BBE71A4640
:105E7000BEE7094B044A4FF4BB61044870F0B8FA1E
:105E800044FA0710F4F9071078FC07102CF80710F3
:105E90000CFA071024FA07104CFA07102DE9F0410C
:105EA0009DF81880002836D017461E460546002B60
:105EB00038D0186800283CD02B780BB1002A3FD08E
:105EC000AA780AB1002B42D0012B47D0022B47D031
:105ED00030236C780CB143F001030AB143F008039E
:105EE00000F8013BFFF74EFD2A896968FFF734FF90
:105EF00004462B781BB13B0A0370477002342A69B1
:105F000012B1B8F1000F2DD13368E41A73689C42C6
:105F10002FD8BDE8F0811A4B1A4A40F272211A4874
:105F200070F066FA194B174A40F27321164870F068
:105F30005FFA174B134A4FF41D71134870F058FA6B
:105F4000144B104A40F276210F4870F051FA124B70
:105F50000C4A4FF41E710C4870F04AFA3223B8E72D
:105F60003423B6E7E968204673F012FE2B691C441F
:105F7000CAE70A4B034A40F2C121034870F038FADD
:105F800044F6071008FD07102CF807100CFA07104C
:105F900024FA071094FA0710D4FA07104CFA0710E5
:105FA00040B370B515461C4603462AB334B3068980
:105FB00036B3406830B319B10869B0F5803F23D2D9
:105FC0000C3621B10A8909690A443244161DDA687F
:105FD00012B11A8A3244961C5A6912B11B8B33448F
:105FE0009E1C3046FFF741FC013030442E6020609B
:105FF000002002E001207047012070BD0120FCE775
:106000000120FAE70120F8E70120F6E7E0B1F8B552
:106010000E4615461C460746C3B11B68C3B109B1FD
:106020004B68BBB12846FFF720FC28440130636869
:10603000834201D202200AE023462A4631463846EE
:10604000FFF7A6FE002002E0012070470120F8BD06
:106050000120FCE70120FAE778B108B5034671B1E9
:106060007AB1406878B1188908B9012008E018466B
:10607000FFF7A6FC48B1002002E001207047012094
:1060800008BD0120FCE70120FAE70120F8E72DE92F
:10609000F04383B004460F461646984613B348B300
:1060A0000A9B5BB3D8F8003063B3436873B30389CA
:1060B00083B3037803B189B3236803F0FF13B3F507
:1060C000803F2FD03046FFF7D0FB00EB0609236955
:1060D000A9EB030909F10109D8F804304B4531D384
:1060E000002502E04FF000090125FDB1284603B06C
:1060F000BDE8F0834FF000090125F6E74FF00009F5
:106100000125F2E74FF000090125EEE74FF0000905
:106110000125EAE74FF000090125E6E74FF0000905
:106120000125E2E74FF000090125DEE70023009397
:1061300043463A4631462046FFF7B0FE0A9BC3F875
:106140000090D3E70225D1E7F8B103460068F0B12B
:1061500010B45C68032C1CD9FAB162290AD005D8A6
:10616000402907D0502905D0012013E0702901D023
:1061700001200FE001701968022048701968100AA8
:1061800088701B68DA70002004E00120704701204D
:10619000704702205DF8044B70470120FAE718B100
:1061A000022202600020704701207047034668B158
:1061B00002686AB14268012A0CD9002058B91A68ED
:1061C000E02111701B6800225A7070470120F5E72A
:1061D0000120F3E70220704718B10222026000207C
:1061E000704701207047034668B102686AB142688F
:1061F000012A0CD9002058B91A68C02111701B68F7
:1062000000225A7070470120F5E70120F3E70220D1
:10621000704780B108B5034679B182B1007800F0CB
:10622000F000302801D0012008BD586848B1184658
:10623000FFF73AFCF8E7012070470120F4E701205E
:10624000F2E70120F0E7002847D008B5844669B19D
:106250009AB1DCF80430B3B19CF80030902B38D000
:1062600028D8202B30D014D2052008BD0378202B4D
:10627000EED0D02BECD00120F7E79CF80030202B9B
:10628000E7D10120F1E79CF80030D02BE4D00120C9
:10629000EBE7622B08D003D9702B05D00520E4E78B
:1062A000402B01D0502B03D16046FFF72BFDDCE7DC
:1062B0000520DAE7B02BF7D0D02B03D16046FFF7EB
:1062C0000BFDD2E70520D0E711466046FFF778FCCA
:1062D000CBE76046FFF7D4FCC7E70120704732B335
:1062E00070B504460D461646012231462846A047A1
:1062F0000346012807D00020012800D0ABB10128B7
:1063000000D0042070BD3078FFF7F8FA08B90520F6
:10631000F8E729462046FFF7B8FAB060B0F1805F91
:1063200001D00020EEE70520ECE70720EAE7002394
:106330000120012800D023B1012801D0042070479A
:1063400070470720704707282AD8DFE800F0040FBD
:10635000292929291F24012A01D000207047881EDD
:10636000C0B201288CBF002001207047012B03D050
:10637000022B06D000207047062914BF0020012000
:106380007047072914BF002001207047062914BF59
:10639000002001207047072914BF0020012070470A
:1063A000002070470238072836D8DFE800F00409DB
:1063B000291904240E2E0A2914BF00200120704739
:1063C000082914BF002001207047052906D008299C
:1063D00002D00021084670470121FBE70121F9E7BF
:1063E0000A2906D0052902D000210846704701215C
:1063F000FBE70121F9E7042914BF002001207047C1
:10640000092914BF0020012070470939C9B20129A8
:106410008CBF0020012070470020704702280BD05D
:1064200003D9032803D000207047012808D8012988
:1064300014BF002001207047B1FA81F04009704775
:106440000020704738B518B102460A20002317E033
:10645000134B144A40F2C51113486FF0C9FF0A28C4
:106460000DD002EB800522F820409CF80240AC7071
